{
  "contractName": "delegateContract",
  "abi": [
    {
      "anonymous": false,
      "inputs": [
        {
          "indexed": true,
          "internalType": "address",
          "name": "previousOwner",
          "type": "address"
        },
        {
          "indexed": true,
          "internalType": "address",
          "name": "newOwner",
          "type": "address"
        }
      ],
      "name": "OwnershipTransferred",
      "type": "event"
    },
    {
      "inputs": [],
      "name": "bbusd",
      "outputs": [
        {
          "internalType": "address",
          "name": "",
          "type": "address"
        }
      ],
      "stateMutability": "view",
      "type": "function",
      "constant": true
    },
    {
      "inputs": [],
      "name": "claimOwnership",
      "outputs": [],
      "stateMutability": "nonpayable",
      "type": "function"
    },
    {
      "inputs": [
        {
          "internalType": "address",
          "name": "",
          "type": "address"
        }
      ],
      "name": "delegatorStats",
      "outputs": [
        {
          "internalType": "address",
          "name": "delegatorAddr",
          "type": "address"
        },
        {
          "internalType": "uint256",
          "name": "oneStaked",
          "type": "uint256"
        },
        {
          "internalType": "uint256",
          "name": "oxratio",
          "type": "uint256"
        },
        {
          "internalType": "uint256",
          "name": "earnedOne",
          "type": "uint256"
        },
        {
          "internalType": "uint256",
          "name": "earnedoAvax",
          "type": "uint256"
        },
        {
          "internalType": "uint256",
          "name": "earnedUsd",
          "type": "uint256"
        }
      ],
      "stateMutability": "view",
      "type": "function",
      "constant": true
    },
    {
      "inputs": [],
      "name": "factory",
      "outputs": [
        {
          "internalType": "contract IUniswapV2Factory",
          "name": "",
          "type": "address"
        }
      ],
      "stateMutability": "view",
      "type": "function",
      "constant": true
    },
    {
      "inputs": [],
      "name": "oavax",
      "outputs": [
        {
          "internalType": "address",
          "name": "",
          "type": "address"
        }
      ],
      "stateMutability": "view",
      "type": "function",
      "constant": true
    },
    {
      "inputs": [],
      "name": "owner",
      "outputs": [
        {
          "internalType": "address",
          "name": "",
          "type": "address"
        }
      ],
      "stateMutability": "view",
      "type": "function",
      "constant": true
    },
    {
      "inputs": [],
      "name": "pendingOwner",
      "outputs": [
        {
          "internalType": "address",
          "name": "",
          "type": "address"
        }
      ],
      "stateMutability": "view",
      "type": "function",
      "constant": true
    },
    {
      "inputs": [
        {
          "internalType": "address",
          "name": "newOwner",
          "type": "address"
        },
        {
          "internalType": "bool",
          "name": "direct",
          "type": "bool"
        },
        {
          "internalType": "bool",
          "name": "renounce",
          "type": "bool"
        }
      ],
      "name": "transferOwnership",
      "outputs": [],
      "stateMutability": "nonpayable",
      "type": "function"
    },
    {
      "inputs": [],
      "name": "weth",
      "outputs": [
        {
          "internalType": "address",
          "name": "",
          "type": "address"
        }
      ],
      "stateMutability": "view",
      "type": "function",
      "constant": true
    },
    {
      "inputs": [
        {
          "internalType": "address",
          "name": "_contract",
          "type": "address"
        }
      ],
      "name": "setMultiTransfer",
      "outputs": [],
      "stateMutability": "nonpayable",
      "type": "function"
    },
    {
      "inputs": [
        {
          "internalType": "uint256",
          "name": "_ratio",
          "type": "uint256"
        }
      ],
      "name": "setRatioPercentageoAVAX",
      "outputs": [],
      "stateMutability": "nonpayable",
      "type": "function"
    },
    {
      "inputs": [
        {
          "internalType": "address",
          "name": "_user",
          "type": "address"
        }
      ],
      "name": "getRatio",
      "outputs": [
        {
          "internalType": "uint256",
          "name": "",
          "type": "uint256"
        }
      ],
      "stateMutability": "view",
      "type": "function",
      "constant": true
    },
    {
      "inputs": [
        {
          "internalType": "address",
          "name": "userAddr",
          "type": "address"
        },
        {
          "internalType": "uint256",
          "name": "stakedAmount",
          "type": "uint256"
        },
        {
          "internalType": "uint256",
          "name": "oavaxAmount",
          "type": "uint256"
        },
        {
          "internalType": "uint256",
          "name": "oneAmount",
          "type": "uint256"
        }
      ],
      "name": "logUser",
      "outputs": [],
      "stateMutability": "nonpayable",
      "type": "function"
    },
    {
      "inputs": [
        {
          "internalType": "address",
          "name": "fromToken",
          "type": "address"
        },
        {
          "internalType": "address",
          "name": "toToken",
          "type": "address"
        },
        {
          "internalType": "uint256",
          "name": "amountIn",
          "type": "uint256"
        }
      ],
      "name": "valueUSD",
      "outputs": [
        {
          "internalType": "uint256",
          "name": "",
          "type": "uint256"
        }
      ],
      "stateMutability": "nonpayable",
      "type": "function"
    }
  ],
  "bytecode": "0x60a0604052600480546001600160a01b03199081167319860ccb0a68fd4213ab9d8266f7bbf05a8dde9817909155600580548216737767f8ed52f9c8ab777512d649006ffd770088821790556006805490911673b31f66aa3c1e785363f0875a1b74e27b85fd66c71790557fccb4a1e7fddf1201565a8b802a39aed0e645862200000000000000000000000060805234801561009a57600080fd5b50600080546001600160a01b0319163390811782556040519091907f8be0079c531659141344cd1fd0a4f28419497f9722a3daafe3b4186f6b6457e0908290a360805160601c610b5b6100fc6000398061067a5280610a175250610b5b6000f3fe608060405234801561001057600080fd5b50600436106100ea5760003560e01c80635e5dddd71161008c57806393019639116100665780639301963914610277578063af02c0421461027f578063c45a0155146102b7578063e30c3978146102bf576100ea565b80635e5dddd714610201578063754b2707146102495780638da5cb5b1461026f576100ea565b80633fc8cef3116100c85780633fc8cef3146101ae5780634e71e0c8146101b657806358ee983e146101be5780635a5a770a146101db576100ea565b8063078dfbe7146100ef57806328a670a61461012757806328b39bcf1461018a575b600080fd5b6101256004803603606081101561010557600080fd5b506001600160a01b038135169060208101351515906040013515156102c7565b005b61014d6004803603602081101561013d57600080fd5b50356001600160a01b031661040f565b604080516001600160a01b0390971687526020870195909552858501939093526060850191909152608084015260a0830152519081900360c00190f35b610192610450565b604080516001600160a01b039092168252519081900360200190f35b61019261045f565b61012561046e565b610125600480360360208110156101d457600080fd5b5035610530565b610125600480360360208110156101f157600080fd5b50356001600160a01b03166105f2565b6102376004803603606081101561021757600080fd5b506001600160a01b03813581169160208101359091169060400135610673565b60408051918252519081900360200190f35b6102376004803603602081101561025f57600080fd5b50356001600160a01b03166108b0565b6101926108e8565b6101926108f7565b6101256004803603608081101561029557600080fd5b506001600160a01b038135169060208101359060408101359060600135610906565b610192610a15565b610192610a39565b6000546001600160a01b03163314610326576040805162461bcd60e51b815260206004820181905260248201527f4f776e61626c653a2063616c6c6572206973206e6f7420746865206f776e6572604482015290519081900360640190fd5b81156103ee576001600160a01b0383161515806103405750805b610389576040805162461bcd60e51b81526020600482015260156024820152744f776e61626c653a207a65726f206164647265737360581b604482015290519081900360640190fd5b600080546040516001600160a01b03808716939216917f8be0079c531659141344cd1fd0a4f28419497f9722a3daafe3b4186f6b6457e091a3600080546001600160a01b0385166001600160a01b03199182161790915560018054909116905561040a565b600180546001600160a01b0319166001600160a01b0385161790555b505050565b60026020819052600091825260409091208054600182015492820154600383015460048401546005909401546001600160a01b039093169493919290919086565b6004546001600160a01b031681565b6006546001600160a01b031681565b6001546001600160a01b03163381146104ce576040805162461bcd60e51b815260206004820181905260248201527f4f776e61626c653a2063616c6c657220213d2070656e64696e67206f776e6572604482015290519081900360640190fd5b600080546040516001600160a01b03808516939216917f8be0079c531659141344cd1fd0a4f28419497f9722a3daafe3b4186f6b6457e091a3600080546001600160a01b039092166001600160a01b0319928316179055600180549091169055565b601e811015610586576040805162461bcd60e51b815260206004820152601c60248201527f4d696e696d756d206d75737420626520333025204f415641582e2e2e00000000604482015290519081900360640190fd5b60648111156105dc576040805162461bcd60e51b815260206004820152601b60248201527f4f6e6c7920757020746f20313030252e204c6f76652c206465762e0000000000604482015290519081900360640190fd5b3260009081526002602081905260409091200155565b6000546001600160a01b03163314610651576040805162461bcd60e51b815260206004820181905260248201527f4f776e61626c653a2063616c6c6572206973206e6f7420746865206f776e6572604482015290519081900360640190fd5b600380546001600160a01b0319166001600160a01b0392909216919091179055565b60008060007f00000000000000000000000000000000000000000000000000000000000000006001600160a01b031663e6a4390587876040518363ffffffff1660e01b815260040180836001600160a01b03168152602001826001600160a01b031681526020019250505060206040518083038186803b1580156106f657600080fd5b505afa15801561070a573d6000803e3d6000fd5b505050506040513d602081101561072057600080fd5b505160408051630240bc6b60e21b8152905191925060009182916001600160a01b03851691630902f1ac91600480820192606092909190829003018186803b15801561076b57600080fd5b505afa15801561077f573d6000803e3d6000fd5b505050506040513d606081101561079557600080fd5b5080516020909101516dffffffffffffffffffffffffffff918216935016905060006107c3876103e5610a48565b9050836001600160a01b0316630dfe16816040518163ffffffff1660e01b815260040160206040518083038186803b1580156107fe57600080fd5b505afa158015610812573d6000803e3d6000fd5b505050506040513d602081101561082857600080fd5b50516001600160a01b038a811691161415610878576108538161084d856103e8610a48565b90610aaa565b610869836108638a6103e5610a48565b90610a48565b8161087057fe5b0494506108a3565b6108888161084d846103e8610a48565b610898846108638a6103e5610a48565b8161089f57fe5b0494505b5092979650505050505050565b6001600160a01b03811660009081526002602081905260408220908101546108dc5760649150506108e3565b6002015490505b919050565b6000546001600160a01b031681565b6005546001600160a01b031681565b6003546001600160a01b0316331461094e576040805162461bcd60e51b815260206004808301919091526024820152632737b71760e11b604482015290519081900360640190fd5b6001600160a01b038416600090815260026020526040812090821561098d5760065460045461098a916001600160a01b03908116911685610673565b90505b6005546004546000916109ad916001600160a01b03918216911687610673565b600584018054820184019055600384018054860190556004840180548701905583549091506001600160a01b03166109f95782546001600160a01b0319166001600160a01b0388161783555b82600101548614610a0c57600183018690555b50505050505050565b7f000000000000000000000000000000000000000000000000000000000000000081565b6001546001600160a01b031681565b600082610a5757506000610aa4565b82820282848281610a6457fe5b0414610aa15760405162461bcd60e51b8152600401808060200182810382526021815260200180610b056021913960400191505060405180910390fd5b90505b92915050565b600082820183811015610aa1576040805162461bcd60e51b815260206004820152601b60248201527f536166654d6174683a206164646974696f6e206f766572666c6f770000000000604482015290519081900360640190fdfe536166654d6174683a206d756c7469706c69636174696f6e206f766572666c6f77a2646970667358221220e99c19d097c723e222d3982960647cb7cfb48580f46ab0c8e31e91432228cbb764736f6c634300060c0033",
  "immutableReferences": {
    "4662": [
      {
        "length": 32,
        "start": 1658
      },
      {
        "length": 32,
        "start": 2583
      }
    ]
  },
  "source": "// SPDX-License-Identifier: MIT\n\npragma solidity 0.6.12;\n\nimport \"./Ownable.sol\";\nimport \"@openzeppelin/contracts/math/SafeMath.sol\";\nimport \"./uniswapv2/interfaces/IUniswapV2ERC20.sol\";\nimport \"./uniswapv2/interfaces/IUniswapV2Pair.sol\";\nimport \"./uniswapv2/interfaces/IUniswapV2Factory.sol\";\n\ncontract delegateContract is Ownable{\n\tusing SafeMath for uint256;\n\tmapping(address => delegatorData) public delegatorStats;\n\taddress private multiTransfer;\n\taddress public bbusd = 0x19860CCB0A68fd4213aB9D8266F7bBf05A8dDe98;\n\taddress public oavax = 0x7767f8ed52F9c8AB777512D649006fFD77008882;\n\taddress public weth = 0xB31f66AA3C1e785363F0875A1B74E27b85FD66c7;\n\n\tIUniswapV2Factory public immutable factory = IUniswapV2Factory(0xCcb4A1e7FDDF1201565A8B802A39aeD0e6458622);\n\n\tstruct delegatorData {\n\t   address delegatorAddr;\n\t   uint256 oneStaked;\n\t   uint256 oxratio;\n\t   uint256 earnedOne;\n\t   uint256 earnedoAvax;\n\t   uint256 earnedUsd;\n\t}\n\n\tmodifier onlyMultiTransfer{\n\t\trequire(msg.sender == multiTransfer, \"Non.\");\n\t\t _;\n\t}\n\n\tfunction setMultiTransfer(address _contract) public onlyOwner{\n\t\tmultiTransfer = _contract;\n\t}\n\n\tfunction setRatioPercentageoAVAX(uint256 _ratio) public {\n\t\trequire(_ratio >= 30, \"Minimum must be 30% OAVAX...\");\n\t\trequire(_ratio <= 100, \"Only up to 100%. Love, dev.\");\n\t\tdelegatorData storage del = delegatorStats[tx.origin];\n\n\t\tdel.oxratio = _ratio;\n\t}\n\tfunction getRatio(address _user) public view returns(uint256){\n\t\tdelegatorData storage del = delegatorStats[_user];\n\t\tif(del.oxratio == 0)\n\t\t{\n\t\t\treturn uint256(100);\n\t\t}\n\t\telse{\n\t\t\treturn del.oxratio;\n\t\t}\t\n\t}\n\n\n\tfunction logUser(address userAddr,uint256 stakedAmount,uint256 oavaxAmount,uint256 oneAmount) public onlyMultiTransfer {\n\t\tdelegatorData storage del = delegatorStats[userAddr];\n\t\tuint256 usdOne;\n\t\tif(oneAmount != 0){\n\t\t\tusdOne = valueUSD(weth, bbusd, oneAmount);\n\t\t}\n\t\n\t\tuint256 usdOAVAX = valueUSD(oavax, bbusd, oavaxAmount);\n\t\tdel.earnedUsd = del.earnedUsd + usdOAVAX + usdOne;\n\n\t\tdel.earnedOne += oneAmount;\n\t\tdel.earnedoAvax += oavaxAmount;\n\n\t\tif(del.delegatorAddr == address(0)){\n\t\t\tdel.delegatorAddr = userAddr;\n\t\t}\n\n\t\tif(stakedAmount != del.oneStaked){\n\t\t\tdel.oneStaked = stakedAmount;\n\t\t}\n\n\n\t}\n\tfunction valueUSD(address fromToken,address toToken,uint256 amountIn)public returns(uint256){\n\t\t // X1 - X5: OK\n\t\tuint256 amountOut;\n        IUniswapV2Pair pair = IUniswapV2Pair(factory.getPair(fromToken, toToken));\n   \n        (uint256 reserve0, uint256 reserve1,) = pair.getReserves();\n        uint256 amountInWithFee = amountIn.mul(997);\n\n        if (fromToken == pair.token0()) {\n         amountOut = amountIn.mul(997).mul(reserve1) / reserve0.mul(1000).add(amountInWithFee);\n         } else {\n         amountOut = amountIn.mul(997).mul(reserve0) / reserve1.mul(1000).add(amountInWithFee);\n         }\n      return amountOut;\n\t}\n}",
  "sourcePath": "/opt/1oavax/oavax-core/contracts/delegateContract.sol",
  "compiler": {
    "name": "solc",
    "version": "0.6.12+commit.27d51765.Emscripten.clang"
  },
  "schemaVersion": "3.2.4",
  "updatedAt": "2022-01-20T20:26:22.904Z",
  "networkType": "ethereum",
  "devdoc": {
    "kind": "dev",
    "methods": {},
    "version": 1
  },
  "userdoc": {
    "kind": "user",
    "methods": {},
    "version": 1
  }
}