{
  "contractName": "MasterChef",
  "abi": [
    {
      "inputs": [
        {
          "internalType": "contract oAVAXToken",
          "name": "_sushi",
          "type": "address"
        },
        {
          "internalType": "address",
          "name": "_devaddr",
          "type": "address"
        },
        {
          "internalType": "uint256",
          "name": "_sushiPerBlock",
          "type": "uint256"
        },
        {
          "internalType": "uint256",
          "name": "_sushiPerSecond",
          "type": "uint256"
        },
        {
          "internalType": "uint256",
          "name": "_startBlock",
          "type": "uint256"
        },
        {
          "internalType": "uint256",
          "name": "_bonusEndBlock",
          "type": "uint256"
        },
        {
          "internalType": "uint256",
          "name": "_currentBlocktime",
          "type": "uint256"
        },
        {
          "internalType": "uint256",
          "name": "_lastBlocktime",
          "type": "uint256"
        }
      ],
      "stateMutability": "nonpayable",
      "type": "constructor"
    },
    {
      "anonymous": false,
      "inputs": [
        {
          "indexed": true,
          "internalType": "address",
          "name": "user",
          "type": "address"
        },
        {
          "indexed": true,
          "internalType": "uint256",
          "name": "pid",
          "type": "uint256"
        },
        {
          "indexed": false,
          "internalType": "uint256",
          "name": "amount",
          "type": "uint256"
        }
      ],
      "name": "Deposit",
      "type": "event"
    },
    {
      "anonymous": false,
      "inputs": [
        {
          "indexed": false,
          "internalType": "uint8",
          "name": "currentAmount",
          "type": "uint8"
        }
      ],
      "name": "DevFundLowered",
      "type": "event"
    },
    {
      "anonymous": false,
      "inputs": [
        {
          "indexed": true,
          "internalType": "address",
          "name": "user",
          "type": "address"
        },
        {
          "indexed": true,
          "internalType": "uint256",
          "name": "pid",
          "type": "uint256"
        },
        {
          "indexed": false,
          "internalType": "uint256",
          "name": "amount",
          "type": "uint256"
        }
      ],
      "name": "EmergencyWithdraw",
      "type": "event"
    },
    {
      "anonymous": false,
      "inputs": [
        {
          "indexed": true,
          "internalType": "address",
          "name": "previousOwner",
          "type": "address"
        },
        {
          "indexed": true,
          "internalType": "address",
          "name": "newOwner",
          "type": "address"
        }
      ],
      "name": "OwnershipTransferred",
      "type": "event"
    },
    {
      "anonymous": false,
      "inputs": [
        {
          "indexed": false,
          "internalType": "uint256",
          "name": "oAVAXPerBlock",
          "type": "uint256"
        },
        {
          "indexed": false,
          "internalType": "uint256",
          "name": "Blocktime",
          "type": "uint256"
        }
      ],
      "name": "RewardChange",
      "type": "event"
    },
    {
      "anonymous": false,
      "inputs": [
        {
          "indexed": true,
          "internalType": "address",
          "name": "user",
          "type": "address"
        },
        {
          "indexed": true,
          "internalType": "uint256",
          "name": "pid",
          "type": "uint256"
        },
        {
          "indexed": false,
          "internalType": "uint256",
          "name": "amount",
          "type": "uint256"
        }
      ],
      "name": "Withdraw",
      "type": "event"
    },
    {
      "inputs": [],
      "name": "BONUS_MULTIPLIER",
      "outputs": [
        {
          "internalType": "uint256",
          "name": "",
          "type": "uint256"
        }
      ],
      "stateMutability": "view",
      "type": "function",
      "constant": true
    },
    {
      "inputs": [],
      "name": "bonusEndBlock",
      "outputs": [
        {
          "internalType": "uint256",
          "name": "",
          "type": "uint256"
        }
      ],
      "stateMutability": "view",
      "type": "function",
      "constant": true
    },
    {
      "inputs": [],
      "name": "claimOwnership",
      "outputs": [],
      "stateMutability": "nonpayable",
      "type": "function"
    },
    {
      "inputs": [],
      "name": "currentBlocktime",
      "outputs": [
        {
          "internalType": "uint256",
          "name": "",
          "type": "uint256"
        }
      ],
      "stateMutability": "view",
      "type": "function",
      "constant": true
    },
    {
      "inputs": [],
      "name": "devDivisor",
      "outputs": [
        {
          "internalType": "uint8",
          "name": "",
          "type": "uint8"
        }
      ],
      "stateMutability": "view",
      "type": "function",
      "constant": true
    },
    {
      "inputs": [],
      "name": "devaddr",
      "outputs": [
        {
          "internalType": "address",
          "name": "",
          "type": "address"
        }
      ],
      "stateMutability": "view",
      "type": "function",
      "constant": true
    },
    {
      "inputs": [
        {
          "internalType": "address",
          "name": "",
          "type": "address"
        }
      ],
      "name": "isUserRegisty",
      "outputs": [
        {
          "internalType": "bool",
          "name": "",
          "type": "bool"
        }
      ],
      "stateMutability": "view",
      "type": "function",
      "constant": true
    },
    {
      "inputs": [],
      "name": "lastBlocktime",
      "outputs": [
        {
          "internalType": "uint256",
          "name": "",
          "type": "uint256"
        }
      ],
      "stateMutability": "view",
      "type": "function",
      "constant": true
    },
    {
      "inputs": [],
      "name": "lpDepositor",
      "outputs": [
        {
          "internalType": "address",
          "name": "",
          "type": "address"
        }
      ],
      "stateMutability": "view",
      "type": "function",
      "constant": true
    },
    {
      "inputs": [],
      "name": "oAVAX",
      "outputs": [
        {
          "internalType": "contract oAVAXToken",
          "name": "",
          "type": "address"
        }
      ],
      "stateMutability": "view",
      "type": "function",
      "constant": true
    },
    {
      "inputs": [],
      "name": "oAVAXPerBlock",
      "outputs": [
        {
          "internalType": "uint256",
          "name": "",
          "type": "uint256"
        }
      ],
      "stateMutability": "view",
      "type": "function",
      "constant": true
    },
    {
      "inputs": [],
      "name": "oAVAXPerSecond",
      "outputs": [
        {
          "internalType": "uint256",
          "name": "",
          "type": "uint256"
        }
      ],
      "stateMutability": "view",
      "type": "function",
      "constant": true
    },
    {
      "inputs": [],
      "name": "owner",
      "outputs": [
        {
          "internalType": "address",
          "name": "",
          "type": "address"
        }
      ],
      "stateMutability": "view",
      "type": "function",
      "constant": true
    },
    {
      "inputs": [],
      "name": "pendingOwner",
      "outputs": [
        {
          "internalType": "address",
          "name": "",
          "type": "address"
        }
      ],
      "stateMutability": "view",
      "type": "function",
      "constant": true
    },
    {
      "inputs": [
        {
          "internalType": "contract IERC20",
          "name": "",
          "type": "address"
        }
      ],
      "name": "poolExistence",
      "outputs": [
        {
          "internalType": "bool",
          "name": "",
          "type": "bool"
        }
      ],
      "stateMutability": "view",
      "type": "function",
      "constant": true
    },
    {
      "inputs": [
        {
          "internalType": "uint256",
          "name": "",
          "type": "uint256"
        }
      ],
      "name": "poolInfo",
      "outputs": [
        {
          "internalType": "contract IERC20",
          "name": "lpToken",
          "type": "address"
        },
        {
          "internalType": "uint256",
          "name": "allocPoint",
          "type": "uint256"
        },
        {
          "internalType": "uint256",
          "name": "lastRewardBlock",
          "type": "uint256"
        },
        {
          "internalType": "uint256",
          "name": "accoAVAXPerShare",
          "type": "uint256"
        }
      ],
      "stateMutability": "view",
      "type": "function",
      "constant": true
    },
    {
      "inputs": [],
      "name": "rewardCollector",
      "outputs": [
        {
          "internalType": "address",
          "name": "",
          "type": "address"
        }
      ],
      "stateMutability": "view",
      "type": "function",
      "constant": true
    },
    {
      "inputs": [],
      "name": "startBlock",
      "outputs": [
        {
          "internalType": "uint256",
          "name": "",
          "type": "uint256"
        }
      ],
      "stateMutability": "view",
      "type": "function",
      "constant": true
    },
    {
      "inputs": [],
      "name": "totalAllocPoint",
      "outputs": [
        {
          "internalType": "uint256",
          "name": "",
          "type": "uint256"
        }
      ],
      "stateMutability": "view",
      "type": "function",
      "constant": true
    },
    {
      "inputs": [
        {
          "internalType": "address",
          "name": "newOwner",
          "type": "address"
        },
        {
          "internalType": "bool",
          "name": "direct",
          "type": "bool"
        },
        {
          "internalType": "bool",
          "name": "renounce",
          "type": "bool"
        }
      ],
      "name": "transferOwnership",
      "outputs": [],
      "stateMutability": "nonpayable",
      "type": "function"
    },
    {
      "inputs": [
        {
          "internalType": "uint256",
          "name": "",
          "type": "uint256"
        },
        {
          "internalType": "address",
          "name": "",
          "type": "address"
        }
      ],
      "name": "userInfo",
      "outputs": [
        {
          "internalType": "uint256",
          "name": "amount",
          "type": "uint256"
        },
        {
          "internalType": "uint256",
          "name": "rewardDebt",
          "type": "uint256"
        }
      ],
      "stateMutability": "view",
      "type": "function",
      "constant": true
    },
    {
      "inputs": [],
      "name": "poolLength",
      "outputs": [
        {
          "internalType": "uint256",
          "name": "",
          "type": "uint256"
        }
      ],
      "stateMutability": "view",
      "type": "function",
      "constant": true
    },
    {
      "inputs": [],
      "name": "updateBlockIssuanceWithBlocktime",
      "outputs": [],
      "stateMutability": "nonpayable",
      "type": "function"
    },
    {
      "inputs": [
        {
          "internalType": "uint256",
          "name": "_currentBlocktime",
          "type": "uint256"
        }
      ],
      "name": "changeBlocktime",
      "outputs": [],
      "stateMutability": "nonpayable",
      "type": "function"
    },
    {
      "inputs": [
        {
          "internalType": "uint256",
          "name": "_allocPoint",
          "type": "uint256"
        },
        {
          "internalType": "contract IERC20",
          "name": "_lpToken",
          "type": "address"
        },
        {
          "internalType": "bool",
          "name": "_withUpdate",
          "type": "bool"
        }
      ],
      "name": "add",
      "outputs": [],
      "stateMutability": "nonpayable",
      "type": "function"
    },
    {
      "inputs": [
        {
          "internalType": "uint256",
          "name": "_pid",
          "type": "uint256"
        },
        {
          "internalType": "uint256",
          "name": "_allocPoint",
          "type": "uint256"
        },
        {
          "internalType": "bool",
          "name": "_withUpdate",
          "type": "bool"
        }
      ],
      "name": "set",
      "outputs": [],
      "stateMutability": "nonpayable",
      "type": "function"
    },
    {
      "inputs": [
        {
          "internalType": "uint256",
          "name": "_from",
          "type": "uint256"
        },
        {
          "internalType": "uint256",
          "name": "_to",
          "type": "uint256"
        }
      ],
      "name": "getMultiplier",
      "outputs": [
        {
          "internalType": "uint256",
          "name": "",
          "type": "uint256"
        }
      ],
      "stateMutability": "view",
      "type": "function",
      "constant": true
    },
    {
      "inputs": [
        {
          "internalType": "uint256",
          "name": "_pid",
          "type": "uint256"
        },
        {
          "internalType": "address",
          "name": "_user",
          "type": "address"
        }
      ],
      "name": "pendingoAVAX",
      "outputs": [
        {
          "internalType": "uint256",
          "name": "",
          "type": "uint256"
        }
      ],
      "stateMutability": "view",
      "type": "function",
      "constant": true
    },
    {
      "inputs": [
        {
          "internalType": "uint256",
          "name": "_pid",
          "type": "uint256"
        },
        {
          "internalType": "address",
          "name": "_user",
          "type": "address"
        }
      ],
      "name": "amountStaked",
      "outputs": [
        {
          "internalType": "uint256",
          "name": "",
          "type": "uint256"
        }
      ],
      "stateMutability": "view",
      "type": "function",
      "constant": true
    },
    {
      "inputs": [],
      "name": "massUpdatePools",
      "outputs": [],
      "stateMutability": "nonpayable",
      "type": "function"
    },
    {
      "inputs": [
        {
          "internalType": "uint256",
          "name": "_pid",
          "type": "uint256"
        }
      ],
      "name": "updatePool",
      "outputs": [],
      "stateMutability": "nonpayable",
      "type": "function"
    },
    {
      "inputs": [
        {
          "internalType": "uint256",
          "name": "_pid",
          "type": "uint256"
        },
        {
          "internalType": "uint256",
          "name": "_amount",
          "type": "uint256"
        }
      ],
      "name": "deposit",
      "outputs": [],
      "stateMutability": "nonpayable",
      "type": "function"
    },
    {
      "inputs": [
        {
          "internalType": "uint256",
          "name": "_pid",
          "type": "uint256"
        },
        {
          "internalType": "uint256",
          "name": "_amount",
          "type": "uint256"
        },
        {
          "internalType": "address",
          "name": "_user",
          "type": "address"
        }
      ],
      "name": "extDeposit",
      "outputs": [],
      "stateMutability": "nonpayable",
      "type": "function"
    },
    {
      "inputs": [
        {
          "internalType": "uint256",
          "name": "_pid",
          "type": "uint256"
        },
        {
          "internalType": "uint256",
          "name": "_amount",
          "type": "uint256"
        }
      ],
      "name": "withdraw",
      "outputs": [],
      "stateMutability": "nonpayable",
      "type": "function"
    },
    {
      "inputs": [
        {
          "internalType": "uint256",
          "name": "_pid",
          "type": "uint256"
        },
        {
          "internalType": "address",
          "name": "_user",
          "type": "address"
        }
      ],
      "name": "extWithdraw",
      "outputs": [],
      "stateMutability": "nonpayable",
      "type": "function"
    },
    {
      "inputs": [],
      "name": "collectAll",
      "outputs": [],
      "stateMutability": "nonpayable",
      "type": "function"
    },
    {
      "inputs": [
        {
          "internalType": "uint256",
          "name": "_pid",
          "type": "uint256"
        }
      ],
      "name": "emergencyWithdraw",
      "outputs": [],
      "stateMutability": "nonpayable",
      "type": "function"
    },
    {
      "inputs": [],
      "name": "lowerDevFund",
      "outputs": [],
      "stateMutability": "nonpayable",
      "type": "function"
    },
    {
      "inputs": [
        {
          "internalType": "address",
          "name": "_devaddr",
          "type": "address"
        }
      ],
      "name": "dev",
      "outputs": [],
      "stateMutability": "nonpayable",
      "type": "function"
    },
    {
      "inputs": [
        {
          "internalType": "address",
          "name": "_collectoraddr",
          "type": "address"
        }
      ],
      "name": "collector",
      "outputs": [],
      "stateMutability": "nonpayable",
      "type": "function"
    },
    {
      "inputs": [
        {
          "internalType": "address",
          "name": "_depositoraddr",
          "type": "address"
        }
      ],
      "name": "depositor",
      "outputs": [],
      "stateMutability": "nonpayable",
      "type": "function"
    }
  ],
  "bytecode": "0x60806040526004805460ff60a01b1916600160a31b1790556000600e5534801561002857600080fd5b50604051612b38380380612b38833981810160405261010081101561004c57600080fd5b50805160208201516040808401516060850151608086015160a087015160c088015160e090980151600080546001600160a01b03191633908117825596519899979895979496939592949391927f8be0079c531659141344cd1fd0a4f28419497f9722a3daafe3b4186f6b6457e0908290a36001600255600380546001600160a01b03998a166001600160a01b0319918216179091556004805498909916978116881790985560058054909816909617909655600893909355600991909155600791909155600f55601191909155601055612a0c8061012c6000396000f3fe608060405234801561001057600080fd5b50600436106102525760003560e01c806364482f7911610146578063952c96fb116100c3578063cbd258b511610087578063cbd258b514610636578063d49e77cd1461065c578063d5688d8314610664578063e2bbb15814610681578063e30c3978146106a4578063ef69b4a8146106ac57610252565b8063952c96fb146105a2578063a1066bd4146105aa578063ab1bbd48146105d6578063afffd5b7146105fc578063cab3c3921461060457610252565b80638d88a90e1161010a5780638d88a90e146105045780638da5cb5b1461052a5780638dbb1e3a1461053257806393e450c61461055557806393f1a40b1461055d57610252565b806364482f79146104b95780636b61a19f146104e45780636d3782ef146104ec57806384f41ebf146104f45780638aa28550146104fc57610252565b80633a40799e116101d457806351eb05a61161019857806351eb05a6146104675780635312ea8e146104845780635cce7b35146104a157806361cf753b146104a9578063630b5ba1146104b157610252565b80633a40799e146103ea578063441a3e701461040857806348cd4cb11461042b5780634e71e0c8146104335780634e9ad15a1461043b57610252565b806317caf6f11161021b57806317caf6f1146103465780631aed65531461034e5780631eaaa045146103565780632e7a3f1e1461038a578063387e971c146103c457610252565b806204c3c21461025757806302f283be14610295578063078dfbe7146102b9578063081e3eda146102f15780631526fe27146102f9575b600080fd5b6102836004803603604081101561026d57600080fd5b50803590602001356001600160a01b03166106b4565b60408051918252519081900360200190f35b61029d610875565b604080516001600160a01b039092168252519081900360200190f35b6102ef600480360360608110156102cf57600080fd5b506001600160a01b03813516906020810135151590604001351515610884565b005b6102836109ba565b6103166004803603602081101561030f57600080fd5b50356109c0565b604080516001600160a01b0390951685526020850193909352838301919091526060830152519081900360800190f35b610283610a01565b610283610a07565b6102ef6004803603606081101561036c57600080fd5b508035906001600160a01b0360208201351690604001351515610a0d565b6103b0600480360360208110156103a057600080fd5b50356001600160a01b0316610cd3565b604080519115158252519081900360200190f35b6102ef600480360360208110156103da57600080fd5b50356001600160a01b0316610ce8565b6103f2610d74565b6040805160ff9092168252519081900360200190f35b6102ef6004803603604081101561041e57600080fd5b5080359060200135610d84565b610283610f67565b6102ef610f6d565b6102ef6004803603604081101561045157600080fd5b50803590602001356001600160a01b031661102f565b6102ef6004803603602081101561047d57600080fd5b503561121f565b6102ef6004803603602081101561049a57600080fd5b5035611497565b6102ef6115cc565b6102836116d9565b6102ef6116df565b6102ef600480360360608110156104cf57600080fd5b508035906020810135906040013515156116fe565b61028361180f565b610283611815565b61028361181b565b610283611821565b6102ef6004803603602081101561051a57600080fd5b50356001600160a01b0316611826565b61029d61189c565b6102836004803603604081101561054857600080fd5b50803590602001356118ab565b61029d611917565b6105896004803603604081101561057357600080fd5b50803590602001356001600160a01b0316611926565b6040805192835260208301919091528051918290030190f35b6102ef61194a565b610283600480360360408110156105c057600080fd5b50803590602001356001600160a01b0316611971565b6102ef600480360360208110156105ec57600080fd5b50356001600160a01b03166119e8565b61029d611a74565b6102ef6004803603606081101561061a57600080fd5b50803590602081013590604001356001600160a01b0316611a83565b6103b06004803603602081101561064c57600080fd5b50356001600160a01b0316611d55565b61029d611d6a565b6102ef6004803603602081101561067a57600080fd5b5035611d79565b6102ef6004803603604081101561069757600080fd5b5080359060200135611e89565b61029d612108565b6102ef612117565b600a5460009083908110610701576040805162461bcd60e51b815260206004820152600f60248201526e12539590531251081413d3d3081251608a1b604482015290519081900360640190fd5b6000600a858154811061071057fe5b60009182526020808320888452600b825260408085206001600160a01b038a8116875290845281862060049586029093016003810154815484516370a0823160e01b81523098810198909852935191985093969395939492909116926370a08231926024808301939192829003018186803b15801561078e57600080fd5b505afa1580156107a2573d6000803e3d6000fd5b505050506040513d60208110156107b857600080fd5b50516002850154909150431180156107cf57508015155b1561083b5760006107e48560020154436118ab565b90506000610817600e54610811886001015461080b6008548761221990919063ffffffff16565b90612219565b90612279565b905061083661082f846108118464e8d4a51000612219565b85906122e0565b935050505b610869836001015461086364e8d4a5100061081186886000015461221990919063ffffffff16565b9061233a565b98975050505050505050565b6006546001600160a01b031681565b6000546001600160a01b031633146108d1576040805162461bcd60e51b8152602060048201819052602482015260008051602061298d833981519152604482015290519081900360640190fd5b8115610999576001600160a01b0383161515806108eb5750805b610934576040805162461bcd60e51b81526020600482015260156024820152744f776e61626c653a207a65726f206164647265737360581b604482015290519081900360640190fd5b600080546040516001600160a01b03808716939216917f8be0079c531659141344cd1fd0a4f28419497f9722a3daafe3b4186f6b6457e091a3600080546001600160a01b0385166001600160a01b0319918216179091556001805490911690556109b5565b600180546001600160a01b0319166001600160a01b0385161790555b505050565b600a5490565b600a81815481106109cd57fe5b600091825260209091206004909102018054600182015460028301546003909301546001600160a01b039092169350919084565b600e5481565b60075481565b6000546001600160a01b03163314610a5a576040805162461bcd60e51b8152602060048201819052602482015260008051602061298d833981519152604482015290519081900360640190fd5b816000816001600160a01b03166370a08231306040518263ffffffff1660e01b815260040180826001600160a01b0316815260200191505060206040518083038186803b158015610aaa57600080fd5b505afa925050508015610acf57506040513d6020811015610aca57600080fd5b505160015b610adb57506000610ae1565b50600190505b6001600160a01b0382166000908152600d602052604090205460ff1615610b395760405162461bcd60e51b81526004018080602001828103825260238152602001806129496023913960400191505060405180910390fd5b600181151514610b90576040805162461bcd60e51b815260206004820152601d60248201527f43616e27742063616c6c2062616c616e63654f662e205265766572742e000000604482015290519081900360640190fd5b8215610b9e57610b9e6116df565b6000600f544311610bb157600f54610bb3565b435b600e54909150610bc390876122e0565b600e556001600160a01b039485166000818152600d602090815260408083208054600160ff1990911681179091558151608081018352948552918401998a52830193845260608301818152600a8054928301815590925291517fc65a7bb8d6351c1cf70c95a316cc6a92839c986682d98bc35f958f4883f9d2a8600490930292830180546001600160a01b031916919098161790965595517fc65a7bb8d6351c1cf70c95a316cc6a92839c986682d98bc35f958f4883f9d2a9870155517fc65a7bb8d6351c1cf70c95a316cc6a92839c986682d98bc35f958f4883f9d2aa860155505090517fc65a7bb8d6351c1cf70c95a316cc6a92839c986682d98bc35f958f4883f9d2ab9092019190915550565b600c6020526000908152604090205460ff1681565b6006546001600160a01b0316331480610d0b57506004546001600160a01b031633145b610d52576040805162461bcd60e51b815260206004820152601360248201527202a3432903232bb1039b0bcb99d102737b7171606d1b604482015290519081900360640190fd5b600680546001600160a01b0319166001600160a01b0392909216919091179055565b600454600160a01b900460ff1681565b600a5482908110610dce576040805162461bcd60e51b815260206004820152600f60248201526e12539590531251081413d3d3081251608a1b604482015290519081900360640190fd5b600280541415610e13576040805162461bcd60e51b815260206004820152601f60248201526000805160206128e1833981519152604482015290519081900360640190fd5b600280819055506000600a8481548110610e2957fe5b60009182526020808320878452600b825260408085203386529092529220805460049092029092019250841115610e9c576040805162461bcd60e51b81526020600482015260126024820152711dda5d1a191c985dce881b9bdd0819dbdbd960721b604482015290519081900360640190fd5b610ea58561121f565b6000610ed3826001015461086364e8d4a510006108118760030154876000015461221990919063ffffffff16565b9050610edf3382612397565b8154610eeb908661233a565b8083556003840154610f089164e8d4a51000916108119190612219565b60018301558254610f23906001600160a01b0316338761256a565b604080518681529051879133917ff279e6a1f5e320cca91135676d9cb6e44ca8a08c0b88342bcdb1144f6511b5689181900360200190a35050600160025550505050565b600f5481565b6001546001600160a01b0316338114610fcd576040805162461bcd60e51b815260206004820181905260248201527f4f776e61626c653a2063616c6c657220213d2070656e64696e67206f776e6572604482015290519081900360640190fd5b600080546040516001600160a01b03808516939216917f8be0079c531659141344cd1fd0a4f28419497f9722a3daafe3b4186f6b6457e091a3600080546001600160a01b039092166001600160a01b0319928316179055600180549091169055565b6005546001600160a01b0316331461104657600080fd5b600a5482908110611090576040805162461bcd60e51b815260206004820152600f60248201526e12539590531251081413d3d3081251608a1b604482015290519081900360640190fd5b6002805414156110d5576040805162461bcd60e51b815260206004820152601f60248201526000805160206128e1833981519152604482015290519081900360640190fd5b60028081905550600080600a85815481106110ec57fe5b60009182526020808320888452600b825260408085206001600160a01b038a1686529092529220805460049092029092019250831115611168576040805162461bcd60e51b81526020600482015260126024820152711dda5d1a191c985dce881b9bdd0819dbdbd960721b604482015290519081900360640190fd5b6111718661121f565b600061119f826001015461086364e8d4a510006108118760030154876000015461221990919063ffffffff16565b905080156111b1576111b18682612397565b600383015482546111cc9164e8d4a510009161081191612219565b600183015560408051858152905188916001600160a01b038916917ff279e6a1f5e320cca91135676d9cb6e44ca8a08c0b88342bcdb1144f6511b5689181900360200190a3505060016002555050505050565b600a5481908110611269576040805162461bcd60e51b815260206004820152600f60248201526e12539590531251081413d3d3081251608a1b604482015290519081900360640190fd5b6000600a838154811061127857fe5b90600052602060002090600402019050806002015443116112995750611493565b8054604080516370a0823160e01b815230600482015290516000926001600160a01b0316916370a08231916024808301926020929190829003018186803b1580156112e357600080fd5b505afa1580156112f7573d6000803e3d6000fd5b505050506040513d602081101561130d57600080fd5b5051905080611323575043600290910155611493565b60006113338360020154436118ab565b9050600061135a600e54610811866001015461080b6008548761221990919063ffffffff16565b6003546004549192506001600160a01b03908116916340c10f199181169061138d908590600160a01b900460ff16612279565b6040518363ffffffff1660e01b815260040180836001600160a01b0316815260200182815260200192505050600060405180830381600087803b1580156113d357600080fd5b505af11580156113e7573d6000803e3d6000fd5b5050600354604080516340c10f1960e01b81523060048201526024810186905290516001600160a01b0390921693506340c10f19925060448082019260009290919082900301818387803b15801561143e57600080fd5b505af1158015611452573d6000803e3d6000fd5b505050506114806114758461081164e8d4a510008561221990919063ffffffff16565b6003860154906122e0565b6003850155505043600290920191909155505b5050565b600a54819081106114e1576040805162461bcd60e51b815260206004820152600f60248201526e12539590531251081413d3d3081251608a1b604482015290519081900360640190fd5b600280541415611526576040805162461bcd60e51b815260206004820152601f60248201526000805160206128e1833981519152604482015290519081900360640190fd5b600280819055506000600a838154811061153c57fe5b60009182526020808320868452600b82526040808520338087529352909320805460049093029093018054909450611581926001600160a01b0391909116919061256a565b80546040805191825251859133917fbb757047c2b5f3974fe26b7c10f732e7bce710b0952a71082702781e62ae05959181900360200190a36000808255600191820155600255505050565b6000546001600160a01b03163314611619576040805162461bcd60e51b8152602060048201819052602482015260008051602061298d833981519152604482015290519081900360640190fd5b6011546010541415611672576040805162461bcd60e51b815260206004820181905260248201527f6f41564158203a20426c6f636b74696d65206861736e2774206368616e676564604482015290519081900360640190fd5b61168f6103e861081160095460115461221990919063ffffffff16565b6008819055601154601081905560408051928352602083019190915280517ff84fdc31bbfc176687fb0c295c02db5def2e1e50c89107ab0d4be860a3d1bdd99281900390910190a1565b60105481565b600a5460005b81811015611493576116f68161121f565b6001016116e5565b6000546001600160a01b0316331461174b576040805162461bcd60e51b8152602060048201819052602482015260008051602061298d833981519152604482015290519081900360640190fd5b600a5483908110611795576040805162461bcd60e51b815260206004820152600f60248201526e12539590531251081413d3d3081251608a1b604482015290519081900360640190fd5b81156117a3576117a36116df565b6117e0836117da600a87815481106117b757fe5b906000526020600020906004020160010154600e5461233a90919063ffffffff16565b906122e0565b600e8190555082600a85815481106117f457fe5b90600052602060002090600402016001018190555050505050565b60115481565b60095481565b60085481565b600181565b6004546001600160a01b0316331461187a576040805162461bcd60e51b81526020600482015260126024820152712a3432902232bb1039b0bcb99d102737b71760711b604482015290519081900360640190fd5b600480546001600160a01b0319166001600160a01b0392909216919091179055565b6000546001600160a01b031681565b600060075482116118cc576118c5600161080b848661233a565b9050611911565b60075483106118df576118c5828461233a565b6118c56118f76007548461233a90919063ffffffff16565b6117da600161080b8760075461233a90919063ffffffff16565b92915050565b6003546001600160a01b031681565b600b6020908152600092835260408084209091529082529020805460019091015482565b60005b600a546000190181101561196e57611966816000610d84565b60010161194d565b50565b600a54600090839081106119be576040805162461bcd60e51b815260206004820152600f60248201526e12539590531251081413d3d3081251608a1b604482015290519081900360640190fd5b50506000918252600b602090815260408084206001600160a01b0393909316845291905290205490565b6005546001600160a01b0316331480611a0b57506004546001600160a01b031633145b611a52576040805162461bcd60e51b815260206004820152601360248201527202a3432902232bb1039b0bcb99d102737b7171606d1b604482015290519081900360640190fd5b600580546001600160a01b0319166001600160a01b0392909216919091179055565b6005546001600160a01b031681565b6006546001600160a01b03163314611a9a57600080fd5b600a5483908110611ae4576040805162461bcd60e51b815260206004820152600f60248201526e12539590531251081413d3d3081251608a1b604482015290519081900360640190fd5b600280541415611b29576040805162461bcd60e51b815260206004820152601f60248201526000805160206128e1833981519152604482015290519081900360640190fd5b600280819055506000600a8581548110611b3f57fe5b60009182526020808320888452600b825260408085206001600160a01b0389168652909252922060049091029091019150611b798661121f565b805415611bc2576000611bae826001015461086364e8d4a510006108118760030154876000015461221990919063ffffffff16565b90508015611bc057611bc08582612397565b505b8415611cf1578154604080516370a0823160e01b815230600482015290516000926001600160a01b0316916370a08231916024808301926020929190829003018186803b158015611c1257600080fd5b505afa158015611c26573d6000803e3d6000fd5b505050506040513d6020811015611c3c57600080fd5b50518354909150611c58906001600160a01b03163330896125bc565b8254604080516370a0823160e01b81523060048201529051600092611cdd9285926001600160a01b03909216916370a0823191602480820192602092909190829003018186803b158015611cab57600080fd5b505afa158015611cbf573d6000803e3d6000fd5b505050506040513d6020811015611cd557600080fd5b50519061233a565b8354909150611cec90826122e0565b835550505b60038201548154611d0c9164e8d4a510009161081191612219565b6001820155604080518681529051879133917f90890809c654f11d6e72a28fa60149770a0d11ec6c92319d6ceb2bb0a4ea1a159181900360200190a35050600160025550505050565b600d6020526000908152604090205460ff1681565b6004546001600160a01b031681565b6000546001600160a01b03163314611dc6576040805162461bcd60e51b8152602060048201819052602482015260008051602061298d833981519152604482015290519081900360640190fd5b806010541415611e1d576040805162461bcd60e51b815260206004820181905260248201527f6f41564158203a20426c6f636b74696d65206861736e2774206368616e676564604482015290519081900360640190fd5b610fa0811115611e74576040805162461bcd60e51b815260206004820152601b60248201527f43616e27742073657420626c6f636b696d65206f7665722034732e0000000000604482015290519081900360640190fd5b611e7c6116df565b601181905561196e6115cc565b600a5482908110611ed3576040805162461bcd60e51b815260206004820152600f60248201526e12539590531251081413d3d3081251608a1b604482015290519081900360640190fd5b600280541415611f18576040805162461bcd60e51b815260206004820152601f60248201526000805160206128e1833981519152604482015290519081900360640190fd5b600280819055506000600a8481548110611f2e57fe5b60009182526020808320878452600b82526040808520338652909252922060049091029091019150611f5f8561121f565b805415611fa8576000611f94826001015461086364e8d4a510006108118760030154876000015461221990919063ffffffff16565b90508015611fa657611fa63382612397565b505b83156120a5578154604080516370a0823160e01b815230600482015290516000926001600160a01b0316916370a08231916024808301926020929190829003018186803b158015611ff857600080fd5b505afa15801561200c573d6000803e3d6000fd5b505050506040513d602081101561202257600080fd5b5051835490915061203e906001600160a01b03163330886125bc565b8254604080516370a0823160e01b815230600482015290516000926120919285926001600160a01b03909216916370a0823191602480820192602092909190829003018186803b158015611cab57600080fd5b83549091506120a090826122e0565b835550505b600382015481546120c09164e8d4a510009161081191612219565b6001820155604080518581529051869133917f90890809c654f11d6e72a28fa60149770a0d11ec6c92319d6ceb2bb0a4ea1a159181900360200190a350506001600255505050565b6001546001600160a01b031681565b6000546001600160a01b03163314612164576040805162461bcd60e51b8152602060048201819052602482015260008051602061298d833981519152604482015290519081900360640190fd5b60045460ff600160a01b9091048116106121b8576040805162461bcd60e51b815260206004820152601060248201526f546861747320697420466f6c6b73202160801b604482015290519081900360640190fd5b6004805460ff600160a01b80830482166001018216810260ff60a01b199093169290921792839055604080519290930416815290517fee9c626a5ecbf59c6fa35d3ea1ada36622db84d50bcca6e2e2880627f38388739181900360200190a1565b60008261222857506000611911565b8282028284828161223557fe5b04146122725760405162461bcd60e51b815260040180806020018281038252602181526020018061296c6021913960400191505060405180910390fd5b9392505050565b60008082116122cf576040805162461bcd60e51b815260206004820152601a60248201527f536166654d6174683a206469766973696f6e206279207a65726f000000000000604482015290519081900360640190fd5b8183816122d857fe5b049392505050565b600082820183811015612272576040805162461bcd60e51b815260206004820152601b60248201527f536166654d6174683a206164646974696f6e206f766572666c6f770000000000604482015290519081900360640190fd5b600082821115612391576040805162461bcd60e51b815260206004820152601e60248201527f536166654d6174683a207375627472616374696f6e206f766572666c6f770000604482015290519081900360640190fd5b50900390565b600354604080516370a0823160e01b815230600482015290516000926001600160a01b0316916370a08231916024808301926020929190829003018186803b1580156123e257600080fd5b505afa1580156123f6573d6000803e3d6000fd5b505050506040513d602081101561240c57600080fd5b505190506000818311156124a3576003546040805163a9059cbb60e01b81526001600160a01b038781166004830152602482018690529151919092169163a9059cbb9160448083019260209291908290030181600087803b15801561247057600080fd5b505af1158015612484573d6000803e3d6000fd5b505050506040513d602081101561249a57600080fd5b50519050612528565b6003546040805163a9059cbb60e01b81526001600160a01b038781166004830152602482018790529151919092169163a9059cbb9160448083019260209291908290030181600087803b1580156124f957600080fd5b505af115801561250d573d6000803e3d6000fd5b505050506040513d602081101561252357600080fd5b505190505b806125645760405162461bcd60e51b81526004018080602001828103825260228152602001806129276022913960400191505060405180910390fd5b50505050565b604080516001600160a01b038416602482015260448082018490528251808303909101815260649091019091526020810180516001600160e01b031663a9059cbb60e01b1790526109b5908490612612565b604080516001600160a01b0380861660248301528416604482015260648082018490528251808303909101815260849091019091526020810180516001600160e01b03166323b872dd60e01b1790526125649085905b6060612667826040518060400160405280602081526020017f5361666545524332303a206c6f772d6c6576656c2063616c6c206661696c6564815250856001600160a01b03166126c39092919063ffffffff16565b8051909150156109b55780806020019051602081101561268657600080fd5b50516109b55760405162461bcd60e51b815260040180806020018281038252602a8152602001806129ad602a913960400191505060405180910390fd5b60606126d284846000856126da565b949350505050565b60608247101561271b5760405162461bcd60e51b81526004018080602001828103825260268152602001806129016026913960400191505060405180910390fd5b61272485612836565b612775576040805162461bcd60e51b815260206004820152601d60248201527f416464726573733a2063616c6c20746f206e6f6e2d636f6e7472616374000000604482015290519081900360640190fd5b60006060866001600160a01b031685876040518082805190602001908083835b602083106127b45780518252601f199092019160209182019101612795565b6001836020036101000a03801982511681845116808217855250505050505090500191505060006040518083038185875af1925050503d8060008114612816576040519150601f19603f3d011682016040523d82523d6000602084013e61281b565b606091505b509150915061282b82828661283c565b979650505050505050565b3b151590565b6060831561284b575081612272565b82511561285b5782518084602001fd5b8160405162461bcd60e51b81526004018080602001828103825283818151815260200191508051906020019080838360005b838110156128a557818101518382015260200161288d565b50505050905090810190601f1680156128d25780820380516001836020036101000a031916815260200191505b509250505060405180910390fdfe5265656e7472616e637947756172643a207265656e7472616e742063616c6c00416464726573733a20696e73756666696369656e742062616c616e636520666f722063616c6c73616665546f6b656e5472616e736665723a207472616e73666572206661696c656443616e27742061646420616e20616c7265616479206578697374696e67204661726d2e536166654d6174683a206d756c7469706c69636174696f6e206f766572666c6f774f776e61626c653a2063616c6c6572206973206e6f7420746865206f776e65725361666545524332303a204552433230206f7065726174696f6e20646964206e6f742073756363656564a2646970667358221220133ad92a31bab9427d5f7286d8a0ec52bcaea73d7c47034e6c32f4722d4c6f6064736f6c634300060c0033",
  "immutableReferences": {},
  "source": "// SPDX-License-Identifier: MIT\r\n\r\npragma solidity 0.6.12;\r\n\r\nimport \"@openzeppelin/contracts/token/ERC20/IERC20.sol\";\r\nimport \"@openzeppelin/contracts/token/ERC20/SafeERC20.sol\";\r\nimport \"@openzeppelin/contracts/utils/EnumerableSet.sol\";\r\nimport \"@openzeppelin/contracts/utils/ReentrancyGuard.sol\";\r\n\r\nimport \"@openzeppelin/contracts/math/SafeMath.sol\";\r\nimport \"./Ownable.sol\";\r\nimport \"./oAVAXToken.sol\";\r\n\r\n\r\n\r\n// MasterChef is the master of Sushi. He can make Sushi and he is a fair guy.\r\n//\r\n// Note that it's ownable and the owner wields tremendous power. The ownership\r\n// will be transferred to a governance smart contract once oAVAX is sufficiently\r\n// distributed and the community can show to govern itself.\r\n//\r\n// Have fun reading it. Hopefully it's bug-free. God bless.\r\ncontract MasterChef is Ownable, ReentrancyGuard {\r\n    using SafeMath for uint256;\r\n    using SafeERC20 for IERC20;\r\n    // Info of each user.\r\n    struct UserInfo {\r\n        uint256 amount; // How many LP tokens the user has provided.\r\n        uint256 rewardDebt; // Reward debt. See explanation below.\r\n        //\r\n        // We do some fancy math here. Basically, any point in time, the amount of SUSHIs\r\n        // entitled to a user but is pending to be distributed is:\r\n        //\r\n        //   pending reward = (user.amount * pool.accoAVAXPerShare) - user.rewardDebt\r\n        //\r\n        // Whenever a user deposits or withdraws LP tokens to a pool. Here's what happens:\r\n        //   1. The pool's `accoAVAXPerShare` (and `lastRewardBlock`) gets updated.\r\n        //   2. User receives the pending reward sent to his/her address.\r\n        //   3. User's `amount` gets updated.\r\n        //   4. User's `rewardDebt` gets updated.\r\n    }\r\n    // Info of each pool.\r\n    struct PoolInfo {\r\n        IERC20 lpToken; // Address of LP token contract.\r\n        uint256 allocPoint; // How many allocation points assigned to this pool. SUSHIs to distribute per block.\r\n        uint256 lastRewardBlock; // Last block number that SUSHIs distribution occurs.\r\n        uint256 accoAVAXPerShare; // Accumulated SUSHIs per share, times 1e12. See below.\r\n    }\r\n\r\n    // The oAVAX TOKEN!\r\n    oAVAXToken public oAVAX;\r\n    // Dev address.\r\n    address public devaddr;\r\n    //Dev mint devisor, can only be increased, reducing percentage.\r\n    uint8 public devDivisor = 8; // 8 == 12.5% // 9 == 11% // 10 == 10%  // 11 == 9%\r\n    // Reward collector address for blocktime change\r\n    address public rewardCollector;\r\n    // LP Depositor address for blocktime change\r\n    address public lpDepositor;\r\n    // Block number when bonus oAVAX period ends.\r\n    uint256 public bonusEndBlock;\r\n    // oAVAX tokens created per block.\r\n    uint256 public oAVAXPerBlock;\r\n    //Amount of sushis per Second\r\n    uint256 public oAVAXPerSecond;\r\n    // Bonus muliplier for early oAVAX makers.\r\n    uint256 public constant BONUS_MULTIPLIER = 1;\r\n    // Info of each pool.\r\n    PoolInfo[] public poolInfo;\r\n    // Info of each user that stakes LP tokens.\r\n    mapping(uint256 => mapping(address => UserInfo)) public userInfo;\r\n    // Mapping to know if the User has been added to the registry\r\n    mapping(address => bool) public isUserRegisty;\r\n    //Mapping to check if farm exists\r\n    mapping(IERC20 => bool) public poolExistence;\r\n    // Total allocation poitns. Must be the sum of all allocation points in all pools.\r\n    uint256 public totalAllocPoint = 0;\r\n    // The block number when oAVAX mining starts.\r\n    uint256 public startBlock;\r\n    // Last Blocktime in Milliseconds\r\n    uint256 public lastBlocktime;\r\n    // Current Blocktime in Milliseconds\r\n    uint256 public currentBlocktime;\r\n\r\n    event DevFundLowered(uint8 currentAmount);\r\n    event Deposit(address indexed user, uint256 indexed pid, uint256 amount);\r\n    event RewardChange(uint256 oAVAXPerBlock, uint256 Blocktime);\r\n    event Withdraw(address indexed user, uint256 indexed pid, uint256 amount);\r\n    event EmergencyWithdraw(\r\n        address indexed user,\r\n        uint256 indexed pid,\r\n        uint256 amount\r\n    );\r\n\r\n    modifier onlyCollector {\r\n      require(msg.sender == rewardCollector);\r\n      _;\r\n   }\r\n\r\n   modifier onlyDepositor {\r\n      require(msg.sender == lpDepositor);\r\n      _;\r\n   }\r\n\r\n   modifier validPID(uint256 _pid){\r\n    require(_pid < poolInfo.length, \"INVALID POOL ID\");\r\n    _;\r\n   }\r\n\r\n    modifier nonDuplicateAndValid(IERC20 _lpToken) {       \r\n        bool isToken = false; \r\n        try _lpToken.balanceOf(address(this)){\r\n            isToken = true;\r\n        } catch {\r\n            isToken = false;\r\n        }\r\n        require(poolExistence[_lpToken] == false, \"Can't add an already existing Farm.\");\r\n        require(isToken == true, \"Can't call balanceOf. Revert.\");\r\n        _;\r\n    }\r\n\r\n    constructor(\r\n        oAVAXToken _sushi,\r\n        address _devaddr,\r\n        uint256 _sushiPerBlock,\r\n        uint256 _sushiPerSecond,\r\n        uint256 _startBlock,\r\n        uint256 _bonusEndBlock,\r\n        uint256 _currentBlocktime,\r\n        uint256 _lastBlocktime\r\n    ) public {\r\n        oAVAX = _sushi;\r\n        devaddr = _devaddr;\r\n        rewardCollector = _devaddr;\r\n        oAVAXPerBlock = _sushiPerBlock;\r\n        oAVAXPerSecond = _sushiPerSecond;\r\n        bonusEndBlock = _bonusEndBlock;\r\n        startBlock = _startBlock;\r\n        currentBlocktime = _currentBlocktime;\r\n        lastBlocktime = _lastBlocktime;\r\n    }\r\n\r\n    function poolLength() external view returns (uint256) {\r\n        return poolInfo.length;\r\n    }\r\n    //Changes rewards per block in Case an eventual Change in Avalanche BlockTime\r\n    function updateBlockIssuanceWithBlocktime()\r\n        public onlyOwner {\r\n        require(lastBlocktime != currentBlocktime , \"oAVAX : Blocktime hasn't changed\");\r\n        oAVAXPerBlock = currentBlocktime.mul(oAVAXPerSecond).div(1000);\r\n        lastBlocktime = currentBlocktime;\r\n        emit RewardChange(oAVAXPerBlock, currentBlocktime);\r\n    }\r\n\r\n    //Changes the Blocktime Parameter and updates the Rewards per Block\r\n    function changeBlocktime(uint _currentBlocktime)\r\n        public onlyOwner {\r\n        require(lastBlocktime != _currentBlocktime , \"oAVAX : Blocktime hasn't changed\");\r\n        require(_currentBlocktime <= 4000, \"Can't set blockime over 4s.\");\r\n        \r\n        massUpdatePools();\r\n\r\n        currentBlocktime = _currentBlocktime;\r\n        updateBlockIssuanceWithBlocktime();\r\n        \r\n    }\r\n\r\n    // Add a new lp to the pool. Can only be called by the owner.\r\n    function add(\r\n        uint256 _allocPoint,\r\n        IERC20 _lpToken,\r\n        bool _withUpdate\r\n    ) public onlyOwner nonDuplicateAndValid(_lpToken) {\r\n        if (_withUpdate) {\r\n            massUpdatePools();\r\n        }\r\n        uint256 lastRewardBlock =\r\n            block.number > startBlock ? block.number : startBlock;\r\n        totalAllocPoint = totalAllocPoint.add(_allocPoint);\r\n        poolExistence[_lpToken] = true;\r\n        poolInfo.push(\r\n            PoolInfo({\r\n                lpToken: _lpToken,\r\n                allocPoint: _allocPoint,\r\n                lastRewardBlock: lastRewardBlock,\r\n                accoAVAXPerShare: 1\r\n            })\r\n        );\r\n    }\r\n\r\n    // Update the given pool's oAVAX allocation point. Can only be called by the owner.\r\n    function set(\r\n        uint256 _pid,\r\n        uint256 _allocPoint,\r\n        bool _withUpdate\r\n    ) public onlyOwner validPID(_pid){\r\n        if (_withUpdate) {\r\n            massUpdatePools();\r\n        }\r\n        totalAllocPoint = totalAllocPoint.sub(poolInfo[_pid].allocPoint).add(\r\n            _allocPoint\r\n        );\r\n        poolInfo[_pid].allocPoint = _allocPoint;\r\n    }\r\n\r\n\r\n    // Return reward multiplier over the given _from to _to block.\r\n    function getMultiplier(uint256 _from, uint256 _to)\r\n        public\r\n        view\r\n        returns (uint256)\r\n    {\r\n        if (_to <= bonusEndBlock) {\r\n            return _to.sub(_from).mul(BONUS_MULTIPLIER);\r\n        } else if (_from >= bonusEndBlock) {\r\n            return _to.sub(_from);\r\n        } else {\r\n            return\r\n                bonusEndBlock.sub(_from).mul(BONUS_MULTIPLIER).add(\r\n                    _to.sub(bonusEndBlock)\r\n                );\r\n        }\r\n    }\r\n\r\n    // View function to see pending SUSHIs on frontend.\r\n    function pendingoAVAX(uint256 _pid, address _user)\r\n        external\r\n        view\r\n        validPID(_pid)\r\n        returns (uint256)\r\n        {\r\n        PoolInfo storage pool = poolInfo[_pid];\r\n        UserInfo storage user = userInfo[_pid][_user];\r\n        uint256 accoAVAXPerShare = pool.accoAVAXPerShare;\r\n        uint256 lpSupply = pool.lpToken.balanceOf(address(this));\r\n        if (block.number > pool.lastRewardBlock && lpSupply != 0) {\r\n            uint256 multiplier =\r\n                getMultiplier(pool.lastRewardBlock, block.number);\r\n            uint256 oAVAXReward =\r\n                multiplier.mul(oAVAXPerBlock).mul(pool.allocPoint).div(\r\n                    totalAllocPoint\r\n                );\r\n            accoAVAXPerShare = accoAVAXPerShare.add(\r\n                oAVAXReward.mul(1e12).div(lpSupply)\r\n            );\r\n        }\r\n        return user.amount.mul(accoAVAXPerShare).div(1e12).sub(user.rewardDebt);\r\n    }\r\n    function amountStaked(uint256 _pid, address _user)\r\n        external\r\n        view\r\n        validPID(_pid)\r\n        returns (uint256)\r\n    {\r\n        UserInfo storage user = userInfo[_pid][_user];\r\n        return user.amount;\r\n\r\n    }\r\n\r\n    // Update reward vairables for all pools. Be careful of gas spending!\r\n    function massUpdatePools() public {\r\n        uint256 length = poolInfo.length;\r\n        for (uint256 pid = 0; pid < length; ++pid) {\r\n            updatePool(pid);\r\n        }\r\n    }\r\n\r\n    // Update reward variables of the given pool to be up-to-date.\r\n    function updatePool(uint256 _pid) public validPID(_pid) {\r\n        PoolInfo storage pool = poolInfo[_pid];\r\n        if (block.number <= pool.lastRewardBlock) {\r\n            return;\r\n        }\r\n        uint256 lpSupply = pool.lpToken.balanceOf(address(this));\r\n        if (lpSupply == 0) {\r\n            pool.lastRewardBlock = block.number;\r\n            return;\r\n        }\r\n        uint256 multiplier = getMultiplier(pool.lastRewardBlock, block.number);\r\n        uint256 oAVAXReward =\r\n            multiplier.mul(oAVAXPerBlock).mul(pool.allocPoint).div(\r\n                totalAllocPoint\r\n            );\r\n        oAVAX.mint(devaddr, oAVAXReward.div(devDivisor));\r\n        oAVAX.mint(address(this), oAVAXReward);\r\n        pool.accoAVAXPerShare = pool.accoAVAXPerShare.add(\r\n            oAVAXReward.mul(1e12).div(lpSupply)\r\n        );\r\n        pool.lastRewardBlock = block.number;\r\n    }\r\n\r\n    // Deposit LP tokens to MasterChef for oAVAX allocation.\r\n    function deposit(uint256 _pid, uint256 _amount) public validPID(_pid) nonReentrant {\r\n        PoolInfo storage pool = poolInfo[_pid];\r\n        UserInfo storage user = userInfo[_pid][msg.sender];\r\n        updatePool(_pid);\r\n\r\n        if (user.amount > 0) {\r\n            uint256 pending = user.amount.mul(pool.accoAVAXPerShare).div(1e12).sub(user.rewardDebt);\r\n            if (pending > 0) {\r\n                safeTokenTransfer(msg.sender, pending);\r\n            }\r\n        }\r\n\r\n        if (_amount > 0) {\r\n            uint256 balanceBefore = pool.lpToken.balanceOf(address(this));\r\n            pool.lpToken.safeTransferFrom(address(msg.sender), address(this), _amount);\r\n            uint256 finalAmount = pool.lpToken.balanceOf(address(this)).sub(balanceBefore);\r\n            user.amount = user.amount.add(finalAmount);\r\n        }\r\n        \r\n        user.rewardDebt = user.amount.mul(pool.accoAVAXPerShare).div(1e12);\r\n        emit Deposit(msg.sender, _pid, _amount);\r\n    }\r\n\r\n    // ext deposit is to be called by a contract that must have the lp tokens. it will credit the account passed in as _user\r\n    // allows 1 click deposit and stake of LP.\r\n    // it also collects and send the user's farm rewards to his wallet.\r\n    // does NOT transfer _user LP tokens.\r\n    function extDeposit(uint256 _pid, uint256 _amount, address _user) public onlyDepositor validPID(_pid) nonReentrant {\r\n        PoolInfo storage pool = poolInfo[_pid];\r\n        UserInfo storage user = userInfo[_pid][_user];//gets the user info passed in as parameter\r\n        updatePool(_pid);\r\n\r\n        if (user.amount > 0) {\r\n            uint256 pending = user.amount.mul(pool.accoAVAXPerShare).div(1e12).sub(user.rewardDebt);\r\n            if (pending > 0) {\r\n                safeTokenTransfer(_user, pending); //Send rewards to _user not msg.sender\r\n            }\r\n        }\r\n\r\n        if (_amount > 0) {\r\n            uint256 balanceBefore = pool.lpToken.balanceOf(address(this));\r\n\r\n            //does not take _user but msg.sender to take the LP tokens\r\n            pool.lpToken.safeTransferFrom(address(msg.sender), address(this), _amount);\r\n            uint256 finalAmount = pool.lpToken.balanceOf(address(this)).sub(balanceBefore);\r\n            user.amount = user.amount.add(finalAmount);\r\n        }\r\n        \r\n        user.rewardDebt = user.amount.mul(pool.accoAVAXPerShare).div(1e12);\r\n        emit Deposit(msg.sender, _pid, _amount);\r\n    }\r\n\r\n    // Withdraw LP tokens from MasterChef.\r\n    function withdraw(uint256 _pid, uint256 _amount) public validPID(_pid) nonReentrant{\r\n        PoolInfo storage pool = poolInfo[_pid];\r\n        UserInfo storage user = userInfo[_pid][msg.sender];\r\n        require(user.amount >= _amount, \"withdraw: not good\");\r\n        updatePool(_pid);\r\n        uint256 pending =\r\n            user.amount.mul(pool.accoAVAXPerShare).div(1e12).sub(\r\n                user.rewardDebt\r\n            );\r\n        safeTokenTransfer(msg.sender, pending);\r\n        user.amount = user.amount.sub(_amount);\r\n        user.rewardDebt = user.amount.mul(pool.accoAVAXPerShare).div(1e12);\r\n        pool.lpToken.safeTransfer(address(msg.sender), _amount);\r\n        emit Withdraw(msg.sender, _pid, _amount);\r\n    }\r\n\r\n    //Withdraw users oAVAX token by Collector address. Allows some flexibility to the dev.\r\n    //Does not withdraw LPs\r\n    function extWithdraw(uint256 _pid, address _user)\r\n    public onlyCollector validPID(_pid) nonReentrant{\r\n        uint256 _amount = 0; //HardCoded 0 Amount: Withdraw only oAVAX tokens and not LP tokens\r\n        PoolInfo storage pool = poolInfo[_pid];\r\n        UserInfo storage user = userInfo[_pid][_user];\r\n        require(user.amount >= _amount, \"withdraw: not good\");\r\n        updatePool(_pid);\r\n        uint256 pending =\r\n            user.amount.mul(pool.accoAVAXPerShare).div(1e12).sub(\r\n                user.rewardDebt\r\n            );\r\n\r\n        if (pending > 0) {\r\n            safeTokenTransfer(_user, pending);\r\n        }\r\n\r\n        user.rewardDebt = user.amount.mul(pool.accoAVAXPerShare).div(1e12);\r\n        emit Withdraw(_user, _pid, _amount);\r\n    }\r\n\r\n    function collectAll() public {\r\n        for (uint256 i = 0; i < poolInfo.length-1 ; i++) {\r\n          withdraw(i, 0);\r\n        }\r\n    }\r\n\r\n    // Withdraw without caring about rewards. EMERGENCY ONLY.\r\n    function emergencyWithdraw(uint256 _pid) public validPID(_pid) nonReentrant {\r\n        PoolInfo storage pool = poolInfo[_pid];\r\n        UserInfo storage user = userInfo[_pid][msg.sender];\r\n        pool.lpToken.safeTransfer(address(msg.sender), user.amount);\r\n        emit EmergencyWithdraw(msg.sender, _pid, user.amount);\r\n        user.amount = 0;\r\n        user.rewardDebt = 0;\r\n    }\r\n\r\n    // Safe oAVAX transfer function, just in case if rounding error causes pool to not have enough SUSHIs.\r\n    function safeTokenTransfer(address _to, uint256 _amount) internal {\r\n        uint256 tokenBal = oAVAX.balanceOf(address(this));\r\n        bool transferSuccess = false;\r\n        if (_amount > tokenBal) {\r\n            transferSuccess = oAVAX.transfer(_to, tokenBal);\r\n        } else {\r\n            transferSuccess = oAVAX.transfer(_to, _amount);\r\n        }\r\n        require(transferSuccess, \"safeTokenTransfer: transfer failed\");\r\n    }\r\n    //allows dev to lower his reward mint percentage by increasing divisor.\r\n    function lowerDevFund() public onlyOwner{\r\n        require(devDivisor < 255, 'Thats it Folks !'); // prevents overflow\r\n        devDivisor += 1;\r\n        emit DevFundLowered(devDivisor);\r\n    }\r\n\r\n    // Update dev address by the previous dev.\r\n    function dev(address _devaddr) public {\r\n        require(msg.sender == devaddr, \"The Dev says: Non.\");\r\n        devaddr = _devaddr;\r\n    }\r\n\r\n    function collector(address _collectoraddr) public {\r\n        require(msg.sender == rewardCollector || msg.sender == devaddr, \"The Dev says: Non. \");\r\n        rewardCollector = _collectoraddr;\r\n    }\r\n\r\n\r\n    function depositor(address _depositoraddr) public {\r\n        require(msg.sender == lpDepositor|| msg.sender == devaddr, \"The dev says: Non. \");\r\n        lpDepositor = _depositoraddr;\r\n    }\r\n}\r\n",
  "sourcePath": "/opt/1oavax/oavax-core/contracts/MasterChef.sol",
  "compiler": {
    "name": "solc",
    "version": "0.6.12+commit.27d51765.Emscripten.clang"
  },
  "schemaVersion": "3.2.4",
  "updatedAt": "2022-01-20T14:15:41.194Z",
  "networkType": "ethereum",
  "devdoc": {
    "kind": "dev",
    "methods": {},
    "version": 1
  },
  "userdoc": {
    "kind": "user",
    "methods": {},
    "version": 1
  }
}