{
  "contractName": "RevertingERC20Mock",
  "abi": [
    {
      "inputs": [
        {
          "internalType": "string",
          "name": "name_",
          "type": "string"
        },
        {
          "internalType": "string",
          "name": "symbol_",
          "type": "string"
        },
        {
          "internalType": "uint256",
          "name": "supply",
          "type": "uint256"
        }
      ],
      "stateMutability": "nonpayable",
      "type": "constructor"
    },
    {
      "anonymous": false,
      "inputs": [
        {
          "indexed": true,
          "internalType": "address",
          "name": "_owner",
          "type": "address"
        },
        {
          "indexed": true,
          "internalType": "address",
          "name": "_spender",
          "type": "address"
        },
        {
          "indexed": false,
          "internalType": "uint256",
          "name": "_value",
          "type": "uint256"
        }
      ],
      "name": "Approval",
      "type": "event"
    },
    {
      "anonymous": false,
      "inputs": [
        {
          "indexed": true,
          "internalType": "address",
          "name": "_from",
          "type": "address"
        },
        {
          "indexed": true,
          "internalType": "address",
          "name": "_to",
          "type": "address"
        },
        {
          "indexed": false,
          "internalType": "uint256",
          "name": "_value",
          "type": "uint256"
        }
      ],
      "name": "Transfer",
      "type": "event"
    },
    {
      "inputs": [
        {
          "internalType": "address",
          "name": "",
          "type": "address"
        }
      ],
      "name": "balanceOf",
      "outputs": [
        {
          "internalType": "uint256",
          "name": "",
          "type": "uint256"
        }
      ],
      "stateMutability": "view",
      "type": "function"
    },
    {
      "inputs": [],
      "name": "decimals",
      "outputs": [
        {
          "internalType": "uint8",
          "name": "",
          "type": "uint8"
        }
      ],
      "stateMutability": "view",
      "type": "function"
    },
    {
      "inputs": [],
      "name": "name",
      "outputs": [
        {
          "internalType": "string",
          "name": "",
          "type": "string"
        }
      ],
      "stateMutability": "view",
      "type": "function"
    },
    {
      "inputs": [],
      "name": "symbol",
      "outputs": [
        {
          "internalType": "string",
          "name": "",
          "type": "string"
        }
      ],
      "stateMutability": "view",
      "type": "function"
    },
    {
      "inputs": [],
      "name": "totalSupply",
      "outputs": [
        {
          "internalType": "uint256",
          "name": "",
          "type": "uint256"
        }
      ],
      "stateMutability": "view",
      "type": "function"
    },
    {
      "inputs": [
        {
          "internalType": "address",
          "name": "to",
          "type": "address"
        },
        {
          "internalType": "uint256",
          "name": "amount",
          "type": "uint256"
        }
      ],
      "name": "transfer",
      "outputs": [
        {
          "internalType": "bool",
          "name": "success",
          "type": "bool"
        }
      ],
      "stateMutability": "nonpayable",
      "type": "function"
    },
    {
      "inputs": [
        {
          "internalType": "address",
          "name": "from",
          "type": "address"
        },
        {
          "internalType": "address",
          "name": "to",
          "type": "address"
        },
        {
          "internalType": "uint256",
          "name": "amount",
          "type": "uint256"
        }
      ],
      "name": "transferFrom",
      "outputs": [
        {
          "internalType": "bool",
          "name": "success",
          "type": "bool"
        }
      ],
      "stateMutability": "nonpayable",
      "type": "function"
    },
    {
      "inputs": [
        {
          "internalType": "address",
          "name": "spender",
          "type": "address"
        },
        {
          "internalType": "uint256",
          "name": "amount",
          "type": "uint256"
        }
      ],
      "name": "approve",
      "outputs": [
        {
          "internalType": "bool",
          "name": "success",
          "type": "bool"
        }
      ],
      "stateMutability": "nonpayable",
      "type": "function"
    }
  ],
  "bytecode": "0x608060405234801561001057600080fd5b506040516109373803806109378339818101604052606081101561003357600080fd5b810190808051604051939291908464010000000082111561005357600080fd5b90830190602082018581111561006857600080fd5b825164010000000081118282018810171561008257600080fd5b82525081516020918201929091019080838360005b838110156100af578181015183820152602001610097565b50505050905090810190601f1680156100dc5780820380516001836020036101000a031916815260200191505b50604052602001805160405193929190846401000000008211156100ff57600080fd5b90830190602082018581111561011457600080fd5b825164010000000081118282018810171561012e57600080fd5b82525081516020918201929091019080838360005b8381101561015b578181015183820152602001610143565b50505050905090810190601f1680156101885780820380516001836020036101000a031916815260200191505b5060405260209081015185519093506101a792506001918601906101d9565b5081516101bb9060009060208501906101d9565b506002819055336000908152600360205260409020555061026c9050565b828054600181600116156101000203166002900490600052602060002090601f016020900481019282601f1061021a57805160ff1916838001178555610247565b82800160010185558215610247579182015b8281111561024757825182559160200191906001019061022c565b50610253929150610257565b5090565b5b808211156102535760008155600101610258565b6106bc8061027b6000396000f3fe608060405234801561001057600080fd5b50600436106100885760003560e01c8063313ce5671161005b578063313ce5671461019a57806370a08231146101b857806395d89b41146101de578063a9059cbb146101e657610088565b806306fdde031461008d578063095ea7b31461010a57806318160ddd1461014a57806323b872dd14610164575b600080fd5b610095610212565b6040805160208082528351818301528351919283929083019185019080838360005b838110156100cf5781810151838201526020016100b7565b50505050905090810190601f1680156100fc5780820380516001836020036101000a031916815260200191505b509250505060405180910390f35b6101366004803603604081101561012057600080fd5b506001600160a01b03813516906020013561029f565b604080519115158252519081900360200190f35b610152610305565b60408051918252519081900360200190f35b6101366004803603606081101561017a57600080fd5b506001600160a01b0381358116916020810135909116906040013561030b565b6101a26104dd565b6040805160ff9092168252519081900360200190f35b610152600480360360208110156101ce57600080fd5b50356001600160a01b03166104e2565b6100956104f4565b610136600480360360408110156101fc57600080fd5b506001600160a01b03813516906020013561054f565b60018054604080516020600284861615610100026000190190941693909304601f810184900484028201840190925281815292918301828280156102975780601f1061026c57610100808354040283529160200191610297565b820191906000526020600020905b81548152906001019060200180831161027a57829003601f168201915b505050505081565b3360008181526004602090815260408083206001600160a01b038716808552908352818420869055815186815291519394909390927f8c5be1e5ebec7d5bd14f71427d1e84f3dd0314c0f7b2291e5b200ac8c7c3b925928290030190a350600192915050565b60025481565b6001600160a01b038316600090815260036020526040812054821115610372576040805162461bcd60e51b8152602060048201526017602482015276546f6b656e423a2062616c616e636520746f6f206c6f7760481b604482015290519081900360640190fd5b6001600160a01b03841660009081526004602090815260408083203384529091529020548211156103ea576040805162461bcd60e51b815260206004820152601960248201527f546f6b656e423a20616c6c6f77616e636520746f6f206c6f7700000000000000604482015290519081900360640190fd5b6001600160a01b0383166000908152600360205260409020548281011015610455576040805162461bcd60e51b8152602060048201526019602482015278151bdad95b908e881bdd995c999b1bddc819195d1958dd1959603a1b604482015290519081900360640190fd5b6001600160a01b0380851660008181526003602081815260408084208054899003905560048252808420338552825280842080548990039055948816808452918152918490208054870190558351868152935190937fddf252ad1be2c89b69c2b068fc378daa952ba7f163c4a11628f55a4df523b3ef92908290030190a35060019392505050565b601281565b60036020526000908152604090205481565b6000805460408051602060026001851615610100026000190190941693909304601f810184900484028201840190925281815292918301828280156102975780601f1061026c57610100808354040283529160200191610297565b336000908152600360205260408120548211156105ad576040805162461bcd60e51b8152602060048201526017602482015276546f6b656e423a2062616c616e636520746f6f206c6f7760481b604482015290519081900360640190fd5b6001600160a01b0383166000908152600360205260409020548281011015610618576040805162461bcd60e51b8152602060048201526019602482015278151bdad95b908e881bdd995c999b1bddc819195d1958dd1959603a1b604482015290519081900360640190fd5b336000818152600360209081526040808320805487900390556001600160a01b03871680845292819020805487019055805186815290519293927fddf252ad1be2c89b69c2b068fc378daa952ba7f163c4a11628f55a4df523b3ef929181900390910190a35060019291505056fea2646970667358221220e4a1319a937c8dce0a00e7a11de39548364f74cc47504c53cfaa6c1e61e4869564736f6c634300060c0033",
  "immutableReferences": {},
  "source": "// SPDX-License-Identifier: UNLICENSED\r\n\r\n// RevertingERC20 reverts on errors\r\npragma solidity 0.6.12;\r\n\r\ncontract RevertingERC20Mock {\r\n\tstring public symbol;\r\n\tstring public name;\r\n\tuint8 public constant decimals = 18;\r\n\tuint256 public totalSupply;\r\n\tmapping(address => uint256) public balanceOf;\r\n\tmapping(address => mapping(address => uint256)) allowance;\r\n\r\n\tevent Transfer(address indexed _from, address indexed _to, uint256 _value);\r\n\tevent Approval(address indexed _owner, address indexed _spender, uint256 _value);\r\n\r\n\tconstructor(\r\n\t\tstring memory name_,\r\n\t\tstring memory symbol_,\r\n\t\tuint256 supply\r\n\t) public {\r\n\t\tname = name_;\r\n\t\tsymbol = symbol_;\r\n\t\ttotalSupply = supply;\r\n\t\tbalanceOf[msg.sender] = supply;\r\n\t}\r\n\r\n\tfunction transfer(address to, uint256 amount) public returns (bool success) {\r\n\t\trequire(balanceOf[msg.sender] >= amount, \"TokenB: balance too low\");\r\n\t\trequire(amount >= 0, \"TokenB: amount should be > 0\");\r\n\t\trequire(balanceOf[to] + amount >= balanceOf[to], \"TokenB: overflow detected\");\r\n\t\tbalanceOf[msg.sender] -= amount;\r\n\t\tbalanceOf[to] += amount;\r\n\t\temit Transfer(msg.sender, to, amount);\r\n\t\treturn true;\r\n\t}\r\n\r\n\tfunction transferFrom(\r\n\t\taddress from,\r\n\t\taddress to,\r\n\t\tuint256 amount\r\n\t) public returns (bool success) {\r\n\t\trequire(balanceOf[from] >= amount, \"TokenB: balance too low\");\r\n\t\trequire(allowance[from][msg.sender] >= amount, \"TokenB: allowance too low\");\r\n\t\trequire(amount >= 0, \"TokenB: amount should be >= 0\");\r\n\t\trequire(balanceOf[to] + amount >= balanceOf[to], \"TokenB: overflow detected\");\r\n\t\tbalanceOf[from] -= amount;\r\n\t\tallowance[from][msg.sender] -= amount;\r\n\t\tbalanceOf[to] += amount;\r\n\t\temit Transfer(from, to, amount);\r\n\t\treturn true;\r\n\t}\r\n\r\n\tfunction approve(address spender, uint256 amount) public returns (bool success) {\r\n\t\tallowance[msg.sender][spender] = amount;\r\n\t\temit Approval(msg.sender, spender, amount);\r\n\t\treturn true;\r\n\t}\r\n}",
  "sourcePath": "/opt/1oavax/oavax-core/contracts/mocks/RevertingERC20Mock.sol",
  "compiler": {
    "name": "solc",
    "version": "0.6.12+commit.27d51765.Emscripten.clang"
  },
  "schemaVersion": "3.2.4",
  "updatedAt": "2022-01-20T13:30:51.174Z",
  "devdoc": {
    "kind": "dev",
    "methods": {},
    "version": 1
  },
  "userdoc": {
    "kind": "user",
    "methods": {},
    "version": 1
  }
}