{
  "contractName": "TokenLock",
  "abi": [
    {
      "inputs": [],
      "stateMutability": "nonpayable",
      "type": "constructor"
    },
    {
      "anonymous": false,
      "inputs": [
        {
          "indexed": true,
          "internalType": "address",
          "name": "owner",
          "type": "address"
        },
        {
          "indexed": true,
          "internalType": "address",
          "name": "spender",
          "type": "address"
        },
        {
          "indexed": false,
          "internalType": "uint256",
          "name": "value",
          "type": "uint256"
        }
      ],
      "name": "Approval",
      "type": "event"
    },
    {
      "anonymous": false,
      "inputs": [
        {
          "indexed": true,
          "internalType": "address",
          "name": "previousOwner",
          "type": "address"
        },
        {
          "indexed": true,
          "internalType": "address",
          "name": "newOwner",
          "type": "address"
        }
      ],
      "name": "OwnershipTransferred",
      "type": "event"
    },
    {
      "anonymous": false,
      "inputs": [
        {
          "indexed": true,
          "internalType": "address",
          "name": "from",
          "type": "address"
        },
        {
          "indexed": true,
          "internalType": "address",
          "name": "to",
          "type": "address"
        },
        {
          "indexed": false,
          "internalType": "uint256",
          "name": "value",
          "type": "uint256"
        }
      ],
      "name": "Transfer",
      "type": "event"
    },
    {
      "inputs": [],
      "name": "Dev",
      "outputs": [
        {
          "internalType": "address",
          "name": "",
          "type": "address"
        }
      ],
      "stateMutability": "view",
      "type": "function"
    },
    {
      "inputs": [],
      "name": "OAVAXToken",
      "outputs": [
        {
          "internalType": "contract ERC20",
          "name": "",
          "type": "address"
        }
      ],
      "stateMutability": "view",
      "type": "function"
    },
    {
      "inputs": [
        {
          "internalType": "address",
          "name": "owner",
          "type": "address"
        },
        {
          "internalType": "address",
          "name": "spender",
          "type": "address"
        }
      ],
      "name": "allowance",
      "outputs": [
        {
          "internalType": "uint256",
          "name": "",
          "type": "uint256"
        }
      ],
      "stateMutability": "view",
      "type": "function"
    },
    {
      "inputs": [
        {
          "internalType": "address",
          "name": "spender",
          "type": "address"
        },
        {
          "internalType": "uint256",
          "name": "amount",
          "type": "uint256"
        }
      ],
      "name": "approve",
      "outputs": [
        {
          "internalType": "bool",
          "name": "",
          "type": "bool"
        }
      ],
      "stateMutability": "nonpayable",
      "type": "function"
    },
    {
      "inputs": [
        {
          "internalType": "address",
          "name": "account",
          "type": "address"
        }
      ],
      "name": "balanceOf",
      "outputs": [
        {
          "internalType": "uint256",
          "name": "",
          "type": "uint256"
        }
      ],
      "stateMutability": "view",
      "type": "function"
    },
    {
      "inputs": [],
      "name": "claimOwnership",
      "outputs": [],
      "stateMutability": "nonpayable",
      "type": "function"
    },
    {
      "inputs": [],
      "name": "decimals",
      "outputs": [
        {
          "internalType": "uint8",
          "name": "",
          "type": "uint8"
        }
      ],
      "stateMutability": "view",
      "type": "function"
    },
    {
      "inputs": [
        {
          "internalType": "address",
          "name": "spender",
          "type": "address"
        },
        {
          "internalType": "uint256",
          "name": "subtractedValue",
          "type": "uint256"
        }
      ],
      "name": "decreaseAllowance",
      "outputs": [
        {
          "internalType": "bool",
          "name": "",
          "type": "bool"
        }
      ],
      "stateMutability": "nonpayable",
      "type": "function"
    },
    {
      "inputs": [
        {
          "internalType": "address",
          "name": "spender",
          "type": "address"
        },
        {
          "internalType": "uint256",
          "name": "addedValue",
          "type": "uint256"
        }
      ],
      "name": "increaseAllowance",
      "outputs": [
        {
          "internalType": "bool",
          "name": "",
          "type": "bool"
        }
      ],
      "stateMutability": "nonpayable",
      "type": "function"
    },
    {
      "inputs": [],
      "name": "lastPaymentBlocktime",
      "outputs": [
        {
          "internalType": "uint256",
          "name": "",
          "type": "uint256"
        }
      ],
      "stateMutability": "view",
      "type": "function"
    },
    {
      "inputs": [],
      "name": "name",
      "outputs": [
        {
          "internalType": "string",
          "name": "",
          "type": "string"
        }
      ],
      "stateMutability": "view",
      "type": "function"
    },
    {
      "inputs": [],
      "name": "owner",
      "outputs": [
        {
          "internalType": "address",
          "name": "",
          "type": "address"
        }
      ],
      "stateMutability": "view",
      "type": "function"
    },
    {
      "inputs": [],
      "name": "pendingOwner",
      "outputs": [
        {
          "internalType": "address",
          "name": "",
          "type": "address"
        }
      ],
      "stateMutability": "view",
      "type": "function"
    },
    {
      "inputs": [],
      "name": "symbol",
      "outputs": [
        {
          "internalType": "string",
          "name": "",
          "type": "string"
        }
      ],
      "stateMutability": "view",
      "type": "function"
    },
    {
      "inputs": [],
      "name": "totalSupply",
      "outputs": [
        {
          "internalType": "uint256",
          "name": "",
          "type": "uint256"
        }
      ],
      "stateMutability": "view",
      "type": "function"
    },
    {
      "inputs": [
        {
          "internalType": "address",
          "name": "recipient",
          "type": "address"
        },
        {
          "internalType": "uint256",
          "name": "amount",
          "type": "uint256"
        }
      ],
      "name": "transfer",
      "outputs": [
        {
          "internalType": "bool",
          "name": "",
          "type": "bool"
        }
      ],
      "stateMutability": "nonpayable",
      "type": "function"
    },
    {
      "inputs": [
        {
          "internalType": "address",
          "name": "sender",
          "type": "address"
        },
        {
          "internalType": "address",
          "name": "recipient",
          "type": "address"
        },
        {
          "internalType": "uint256",
          "name": "amount",
          "type": "uint256"
        }
      ],
      "name": "transferFrom",
      "outputs": [
        {
          "internalType": "bool",
          "name": "",
          "type": "bool"
        }
      ],
      "stateMutability": "nonpayable",
      "type": "function"
    },
    {
      "inputs": [
        {
          "internalType": "address",
          "name": "newOwner",
          "type": "address"
        },
        {
          "internalType": "bool",
          "name": "direct",
          "type": "bool"
        },
        {
          "internalType": "bool",
          "name": "renounce",
          "type": "bool"
        }
      ],
      "name": "transferOwnership",
      "outputs": [],
      "stateMutability": "nonpayable",
      "type": "function"
    },
    {
      "inputs": [],
      "name": "weiPerWeek",
      "outputs": [
        {
          "internalType": "uint256",
          "name": "",
          "type": "uint256"
        }
      ],
      "stateMutability": "view",
      "type": "function"
    },
    {
      "stateMutability": "payable",
      "type": "receive"
    },
    {
      "inputs": [
        {
          "internalType": "address",
          "name": "_OAVAX",
          "type": "address"
        }
      ],
      "name": "setOAVAXToken",
      "outputs": [],
      "stateMutability": "nonpayable",
      "type": "function"
    },
    {
      "inputs": [
        {
          "internalType": "address",
          "name": "_Dev",
          "type": "address"
        }
      ],
      "name": "setDev",
      "outputs": [],
      "stateMutability": "nonpayable",
      "type": "function"
    },
    {
      "inputs": [],
      "name": "payDev",
      "outputs": [],
      "stateMutability": "nonpayable",
      "type": "function"
    },
    {
      "inputs": [],
      "name": "getLastPayment",
      "outputs": [
        {
          "internalType": "uint256",
          "name": "",
          "type": "uint256"
        }
      ],
      "stateMutability": "view",
      "type": "function"
    }
  ],
  "bytecode": "0x608060405260006008553480156200001657600080fd5b50604080518082018252601481527f4f4156415820446576656c6f706572204c6f636b00000000000000000000000060208083019190915282518084018452600781526613d0559056191b60ca1b91810191909152600080546001600160a01b0319163390811782559351929391927f8be0079c531659141344cd1fd0a4f28419497f9722a3daafe3b4186f6b6457e0908290a38151620000bf9060059060208501906200027c565b508051620000d59060069060208401906200027c565b50506007805460ff1916601217905550620000fc306a0be951906eba2aa800000062000102565b62000318565b6001600160a01b0382166200015e576040805162461bcd60e51b815260206004820152601f60248201527f45524332303a206d696e7420746f20746865207a65726f206164647265737300604482015290519081900360640190fd5b6200016c6000838362000215565b62000188816004546200021a60201b62000d991790919060201c565b6004556001600160a01b038216600090815260026020908152604090912054620001bd91839062000d996200021a821b17901c565b6001600160a01b03831660008181526002602090815260408083209490945583518581529351929391927fddf252ad1be2c89b69c2b068fc378daa952ba7f163c4a11628f55a4df523b3ef9281900390910190a35050565b505050565b60008282018381101562000275576040805162461bcd60e51b815260206004820152601b60248201527f536166654d6174683a206164646974696f6e206f766572666c6f770000000000604482015290519081900360640190fd5b9392505050565b828054600181600116156101000203166002900490600052602060002090601f016020900481019282601f10620002bf57805160ff1916838001178555620002ef565b82800160010185558215620002ef579182015b82811115620002ef578251825591602001919060010190620002d2565b50620002fd92915062000301565b5090565b5b80821115620002fd576000815560010162000302565b6113dd80620003286000396000f3fe6080604052600436106101445760003560e01c806352844caa116100b6578063a9059cbb1161006f578063a9059cbb14610488578063d243ec26146104c1578063d477f05f146104d6578063d7ccc2c314610509578063dd62ed3e1461051e578063e30c3978146105595761014b565b806352844caa146103c8578063542debd7146103dd57806370a08231146103f25780638da5cb5b1461042557806395d89b411461043a578063a457c2d71461044f5761014b565b806318160ddd1161010857806318160ddd146102b257806318a34ec4146102d957806323b872dd1461030c578063313ce5671461034f578063395093511461037a5780634e71e0c8146103b35761014b565b806301e51ae814610150578063028fd4fb1461018157806306fdde0314610196578063078dfbe714610220578063095ea7b3146102655761014b565b3661014b57005b600080fd5b34801561015c57600080fd5b5061016561056e565b604080516001600160a01b039092168252519081900360200190f35b34801561018d57600080fd5b5061016561057d565b3480156101a257600080fd5b506101ab61058c565b6040805160208082528351818301528351919283929083019185019080838360005b838110156101e55781810151838201526020016101cd565b50505050905090810190601f1680156102125780820380516001836020036101000a031916815260200191505b509250505060405180910390f35b34801561022c57600080fd5b506102636004803603606081101561024357600080fd5b506001600160a01b03813516906020810135151590604001351515610622565b005b34801561027157600080fd5b5061029e6004803603604081101561028857600080fd5b506001600160a01b03813516906020013561076a565b604080519115158252519081900360200190f35b3480156102be57600080fd5b506102c7610787565b60408051918252519081900360200190f35b3480156102e557600080fd5b50610263600480360360208110156102fc57600080fd5b50356001600160a01b031661078d565b34801561031857600080fd5b5061029e6004803603606081101561032f57600080fd5b506001600160a01b0381358116916020810135909116906040013561080e565b34801561035b57600080fd5b50610364610895565b6040805160ff9092168252519081900360200190f35b34801561038657600080fd5b5061029e6004803603604081101561039d57600080fd5b506001600160a01b03813516906020013561089e565b3480156103bf57600080fd5b506102636108ec565b3480156103d457600080fd5b506102c76109ae565b3480156103e957600080fd5b506102c76109b4565b3480156103fe57600080fd5b506102c76004803603602081101561041557600080fd5b50356001600160a01b03166109c2565b34801561043157600080fd5b506101656109dd565b34801561044657600080fd5b506101ab6109ec565b34801561045b57600080fd5b5061029e6004803603604081101561047257600080fd5b506001600160a01b038135169060200135610a4d565b34801561049457600080fd5b5061029e600480360360408110156104ab57600080fd5b506001600160a01b038135169060200135610ab5565b3480156104cd57600080fd5b50610263610ac9565b3480156104e257600080fd5b50610263600480360360208110156104f957600080fd5b50356001600160a01b0316610cd8565b34801561051557600080fd5b506102c7610d59565b34801561052a57600080fd5b506102c76004803603604081101561054157600080fd5b506001600160a01b0381358116916020013516610d5f565b34801561056557600080fd5b50610165610d8a565b600a546001600160a01b031681565b6009546001600160a01b031681565b60058054604080516020601f60026000196101006001881615020190951694909404938401819004810282018101909252828152606093909290918301828280156106185780601f106105ed57610100808354040283529160200191610618565b820191906000526020600020905b8154815290600101906020018083116105fb57829003601f168201915b5050505050905090565b6000546001600160a01b03163314610681576040805162461bcd60e51b815260206004820181905260248201527f4f776e61626c653a2063616c6c6572206973206e6f7420746865206f776e6572604482015290519081900360640190fd5b8115610749576001600160a01b03831615158061069b5750805b6106e4576040805162461bcd60e51b81526020600482015260156024820152744f776e61626c653a207a65726f206164647265737360581b604482015290519081900360640190fd5b600080546040516001600160a01b03808716939216917f8be0079c531659141344cd1fd0a4f28419497f9722a3daafe3b4186f6b6457e091a3600080546001600160a01b0385166001600160a01b031991821617909155600180549091169055610765565b600180546001600160a01b0319166001600160a01b0385161790555b505050565b600061077e610777610dfa565b8484610dfe565b50600192915050565b60045490565b6000546001600160a01b031633146107ec576040805162461bcd60e51b815260206004820181905260248201527f4f776e61626c653a2063616c6c6572206973206e6f7420746865206f776e6572604482015290519081900360640190fd5b600980546001600160a01b0319166001600160a01b0392909216919091179055565b600061081b848484610eea565b61088b84610827610dfa565b610886856040518060600160405280602881526020016112c5602891396001600160a01b038a16600090815260036020526040812090610865610dfa565b6001600160a01b031681526020810191909152604001600020549190611047565b610dfe565b5060019392505050565b60075460ff1690565b600061077e6108ab610dfa565b8461088685600360006108bc610dfa565b6001600160a01b03908116825260208083019390935260409182016000908120918c168152925290205490610d99565b6001546001600160a01b031633811461094c576040805162461bcd60e51b815260206004820181905260248201527f4f776e61626c653a2063616c6c657220213d2070656e64696e67206f776e6572604482015290519081900360640190fd5b600080546040516001600160a01b03808516939216917f8be0079c531659141344cd1fd0a4f28419497f9722a3daafe3b4186f6b6457e091a3600080546001600160a01b039092166001600160a01b0319928316179055600180549091169055565b60085481565b690bba67f0ac09ebb0c60081565b6001600160a01b031660009081526002602052604090205490565b6000546001600160a01b031681565b60068054604080516020601f60026000196101006001881615020190951694909404938401819004810282018101909252828152606093909290918301828280156106185780601f106105ed57610100808354040283529160200191610618565b600061077e610a5a610dfa565b84610886856040518060600160405280602581526020016113836025913960036000610a84610dfa565b6001600160a01b03908116825260208083019390935260409182016000908120918d16815292529020549190611047565b600061077e610ac2610dfa565b8484610eea565b4260085462093a800110610b0e5760405162461bcd60e51b815260040180806020018281038252602c815260200180611357602c913960400191505060405180910390fd5b600954604080516370a0823160e01b815230600482015290516000926001600160a01b0316916370a08231916024808301926020929190829003018186803b158015610b5957600080fd5b505afa158015610b6d573d6000803e3d6000fd5b505050506040513d6020811015610b8357600080fd5b50519050690bba67f0ac09ebb0c600811015610c2e57600954600a546040805163a9059cbb60e01b81526001600160a01b039283166004820152602481018590529051919092169163a9059cbb9160448083019260209291908290030181600087803b158015610bf257600080fd5b505af1158015610c06573d6000803e3d6000fd5b505050506040513d6020811015610c1c57600080fd5b50610c29905030826110de565b610cd1565b600954600a546040805163a9059cbb60e01b81526001600160a01b039283166004820152690bba67f0ac09ebb0c60060248201529051919092169163a9059cbb9160448083019260209291908290030181600087803b158015610c9057600080fd5b505af1158015610ca4573d6000803e3d6000fd5b505050506040513d6020811015610cba57600080fd5b50610cd1905030690bba67f0ac09ebb0c6006110de565b5042600855565b6000546001600160a01b03163314610d37576040805162461bcd60e51b815260206004820181905260248201527f4f776e61626c653a2063616c6c6572206973206e6f7420746865206f776e6572604482015290519081900360640190fd5b600a80546001600160a01b0319166001600160a01b0392909216919091179055565b60085490565b6001600160a01b03918216600090815260036020908152604080832093909416825291909152205490565b6001546001600160a01b031681565b600082820183811015610df3576040805162461bcd60e51b815260206004820152601b60248201527f536166654d6174683a206164646974696f6e206f766572666c6f770000000000604482015290519081900360640190fd5b9392505050565b3390565b6001600160a01b038316610e435760405162461bcd60e51b81526004018080602001828103825260248152602001806113336024913960400191505060405180910390fd5b6001600160a01b038216610e885760405162461bcd60e51b815260040180806020018281038252602281526020018061127d6022913960400191505060405180910390fd5b6001600160a01b03808416600081815260036020908152604080832094871680845294825291829020859055815185815291517f8c5be1e5ebec7d5bd14f71427d1e84f3dd0314c0f7b2291e5b200ac8c7c3b9259281900390910190a3505050565b6001600160a01b038316610f2f5760405162461bcd60e51b815260040180806020018281038252602581526020018061130e6025913960400191505060405180910390fd5b6001600160a01b038216610f745760405162461bcd60e51b81526004018080602001828103825260238152602001806112386023913960400191505060405180910390fd5b610f7f838383610765565b610fbc8160405180606001604052806026815260200161129f602691396001600160a01b0386166000908152600260205260409020549190611047565b6001600160a01b038085166000908152600260205260408082209390935590841681522054610feb9082610d99565b6001600160a01b0380841660008181526002602090815260409182902094909455805185815290519193928716927fddf252ad1be2c89b69c2b068fc378daa952ba7f163c4a11628f55a4df523b3ef92918290030190a3505050565b600081848411156110d65760405162461bcd60e51b81526004018080602001828103825283818151815260200191508051906020019080838360005b8381101561109b578181015183820152602001611083565b50505050905090810190601f1680156110c85780820380516001836020036101000a031916815260200191505b509250505060405180910390fd5b505050900390565b6001600160a01b0382166111235760405162461bcd60e51b81526004018080602001828103825260218152602001806112ed6021913960400191505060405180910390fd5b61112f82600083610765565b61116c8160405180606001604052806022815260200161125b602291396001600160a01b0385166000908152600260205260409020549190611047565b6001600160a01b03831660009081526002602052604090205560045461119290826111da565b6004556040805182815290516000916001600160a01b038516917fddf252ad1be2c89b69c2b068fc378daa952ba7f163c4a11628f55a4df523b3ef9181900360200190a35050565b600082821115611231576040805162461bcd60e51b815260206004820152601e60248201527f536166654d6174683a207375627472616374696f6e206f766572666c6f770000604482015290519081900360640190fd5b5090039056fe45524332303a207472616e7366657220746f20746865207a65726f206164647265737345524332303a206275726e20616d6f756e7420657863656564732062616c616e636545524332303a20617070726f766520746f20746865207a65726f206164647265737345524332303a207472616e7366657220616d6f756e7420657863656564732062616c616e636545524332303a207472616e7366657220616d6f756e74206578636565647320616c6c6f77616e636545524332303a206275726e2066726f6d20746865207a65726f206164647265737345524332303a207472616e736665722066726f6d20746865207a65726f206164647265737345524332303a20617070726f76652066726f6d20746865207a65726f20616464726573734e6f7420656e6f7567682074696d6520686173207061737365643a205061796d656e74204465636c696e656445524332303a2064656372656173656420616c6c6f77616e63652062656c6f77207a65726fa26469706673582212208067e199b119ed7fa06240389364efe7420b13cc91b647586e0770cb9f70500664736f6c634300060c0033",
  "immutableReferences": {},
  "source": "// SPDX-License-Identifier: MIT\n\npragma solidity =0.6.12;\n\nimport \"@openzeppelin/contracts/token/ERC20/ERC20.sol\";\n\n\nimport \"./Ownable.sol\";\n\n\n// OAVAXToken with Governance.\ncontract TokenLock is Ownable, ERC20(\"OAVAX Developer Lock\", \"OAVAXdl\"){\n\n\n\tuint public lastPaymentBlocktime = 0;\n\tERC20 public OAVAXToken;\n\taddress public Dev;\n\tuint public constant weiPerWeek = 55384615384615000000000;\n\n\tmodifier onlyOnceEveryWeek() { //604800 == 1 week bruh\n\t    require(lastPaymentBlocktime + 604800 < now, \"Not enough time has passed: Payment Declined\");\n\t    _;\n\t}\n\n\treceive() external payable {\n\t     \n\t}\n\n\tconstructor() public {\n\t    _mint(address(this), 14400000000000000000000000);\n\t}\n\n\tfunction setOAVAXToken(address _OAVAX) public onlyOwner{\n\t\tOAVAXToken = ERC20(_OAVAX);\n\t}\n\n\tfunction setDev(address _Dev) public onlyOwner{\n\t\tDev = _Dev;\n\t}\n\n\tfunction payDev() public onlyOnceEveryWeek{\n\t\tuint contractBalance = OAVAXToken.balanceOf( address(this)); //get contracts OAVAX balance\n\n\t\tif(contractBalance < weiPerWeek){ // makes sure last transfer will be able to go through\n\t\t\tOAVAXToken.transfer(Dev, contractBalance);\n\t\t\t_burn( address(this), contractBalance);\t// burn oLOCK token to match OAVAX balance\n\t\t}\n\t\telse {\n\t\t\tOAVAXToken.transfer(Dev, weiPerWeek); //send predefined weekly amount to dev as payement\n\t\t\t_burn( address(this), weiPerWeek); // burn oLOCK token to match OAVAX balance\n\t\t}\n\t\tlastPaymentBlocktime = now;\n\t}\n\n\tfunction getLastPayment() external view returns(uint){\n\t\treturn lastPaymentBlocktime;\n\t}\n\n\n\n\n}",
  "sourcePath": "/opt/1oavax/release/oavax-core/contracts/OAVAXLock.sol",
  "compiler": {
    "name": "solc",
    "version": "0.6.12+commit.27d51765.Emscripten.clang"
  },
  "schemaVersion": "3.2.4",
  "updatedAt": "2022-01-22T05:57:26.568Z",
  "devdoc": {
    "kind": "dev",
    "methods": {
      "allowance(address,address)": {
        "details": "See {IERC20-allowance}."
      },
      "approve(address,uint256)": {
        "details": "See {IERC20-approve}. Requirements: - `spender` cannot be the zero address."
      },
      "balanceOf(address)": {
        "details": "See {IERC20-balanceOf}."
      },
      "decimals()": {
        "details": "Returns the number of decimals used to get its user representation. For example, if `decimals` equals `2`, a balance of `505` tokens should be displayed to a user as `5,05` (`505 / 10 ** 2`). Tokens usually opt for a value of 18, imitating the relationship between Ether and Wei. This is the value {ERC20} uses, unless {_setupDecimals} is called. NOTE: This information is only used for _display_ purposes: it in no way affects any of the arithmetic of the contract, including {IERC20-balanceOf} and {IERC20-transfer}."
      },
      "decreaseAllowance(address,uint256)": {
        "details": "Atomically decreases the allowance granted to `spender` by the caller. This is an alternative to {approve} that can be used as a mitigation for problems described in {IERC20-approve}. Emits an {Approval} event indicating the updated allowance. Requirements: - `spender` cannot be the zero address. - `spender` must have allowance for the caller of at least `subtractedValue`."
      },
      "increaseAllowance(address,uint256)": {
        "details": "Atomically increases the allowance granted to `spender` by the caller. This is an alternative to {approve} that can be used as a mitigation for problems described in {IERC20-approve}. Emits an {Approval} event indicating the updated allowance. Requirements: - `spender` cannot be the zero address."
      },
      "name()": {
        "details": "Returns the name of the token."
      },
      "symbol()": {
        "details": "Returns the symbol of the token, usually a shorter version of the name."
      },
      "totalSupply()": {
        "details": "See {IERC20-totalSupply}."
      },
      "transfer(address,uint256)": {
        "details": "See {IERC20-transfer}. Requirements: - `recipient` cannot be the zero address. - the caller must have a balance of at least `amount`."
      },
      "transferFrom(address,address,uint256)": {
        "details": "See {IERC20-transferFrom}. Emits an {Approval} event indicating the updated allowance. This is not required by the EIP. See the note at the beginning of {ERC20}. Requirements: - `sender` and `recipient` cannot be the zero address. - `sender` must have a balance of at least `amount`. - the caller must have allowance for ``sender``'s tokens of at least `amount`."
      }
    },
    "version": 1
  },
  "userdoc": {
    "kind": "user",
    "methods": {},
    "version": 1
  }
}