{
  "contractName": "UniswapV2Factory",
  "abi": [
    {
      "inputs": [
        {
          "internalType": "address",
          "name": "_feeToSetter",
          "type": "address"
        }
      ],
      "stateMutability": "nonpayable",
      "type": "constructor"
    },
    {
      "anonymous": false,
      "inputs": [
        {
          "indexed": true,
          "internalType": "address",
          "name": "token0",
          "type": "address"
        },
        {
          "indexed": true,
          "internalType": "address",
          "name": "token1",
          "type": "address"
        },
        {
          "indexed": false,
          "internalType": "address",
          "name": "pair",
          "type": "address"
        },
        {
          "indexed": false,
          "internalType": "uint256",
          "name": "",
          "type": "uint256"
        }
      ],
      "name": "PairCreated",
      "type": "event"
    },
    {
      "inputs": [
        {
          "internalType": "uint256",
          "name": "",
          "type": "uint256"
        }
      ],
      "name": "allPairs",
      "outputs": [
        {
          "internalType": "address",
          "name": "",
          "type": "address"
        }
      ],
      "stateMutability": "view",
      "type": "function",
      "constant": true
    },
    {
      "inputs": [],
      "name": "feeTo",
      "outputs": [
        {
          "internalType": "address",
          "name": "",
          "type": "address"
        }
      ],
      "stateMutability": "view",
      "type": "function",
      "constant": true
    },
    {
      "inputs": [],
      "name": "feeToSetter",
      "outputs": [
        {
          "internalType": "address",
          "name": "",
          "type": "address"
        }
      ],
      "stateMutability": "view",
      "type": "function",
      "constant": true
    },
    {
      "inputs": [
        {
          "internalType": "address",
          "name": "",
          "type": "address"
        },
        {
          "internalType": "address",
          "name": "",
          "type": "address"
        }
      ],
      "name": "getPair",
      "outputs": [
        {
          "internalType": "address",
          "name": "",
          "type": "address"
        }
      ],
      "stateMutability": "view",
      "type": "function",
      "constant": true
    },
    {
      "inputs": [],
      "name": "allPairsLength",
      "outputs": [
        {
          "internalType": "uint256",
          "name": "",
          "type": "uint256"
        }
      ],
      "stateMutability": "view",
      "type": "function",
      "constant": true
    },
    {
      "inputs": [],
      "name": "pairCodeHash",
      "outputs": [
        {
          "internalType": "bytes32",
          "name": "",
          "type": "bytes32"
        }
      ],
      "stateMutability": "pure",
      "type": "function",
      "constant": true
    },
    {
      "inputs": [
        {
          "internalType": "address",
          "name": "tokenA",
          "type": "address"
        },
        {
          "internalType": "address",
          "name": "tokenB",
          "type": "address"
        }
      ],
      "name": "createPair",
      "outputs": [
        {
          "internalType": "address",
          "name": "pair",
          "type": "address"
        }
      ],
      "stateMutability": "nonpayable",
      "type": "function"
    },
    {
      "inputs": [
        {
          "internalType": "address",
          "name": "_feeTo",
          "type": "address"
        }
      ],
      "name": "setFeeTo",
      "outputs": [],
      "stateMutability": "nonpayable",
      "type": "function"
    },
    {
      "inputs": [
        {
          "internalType": "address",
          "name": "_feeToSetter",
          "type": "address"
        }
      ],
      "name": "setFeeToSetter",
      "outputs": [],
      "stateMutability": "nonpayable",
      "type": "function"
    }
  ],
  "bytecode": "0x608060405234801561001057600080fd5b50604051612e36380380612e368339818101604052602081101561003357600080fd5b5051600180546001600160a01b0319166001600160a01b03909216919091179055612dd3806100636000396000f3fe608060405234801561001057600080fd5b50600436106100935760003560e01c80639aab9248116100665780639aab9248146100fb578063a2e74af614610103578063c9c653961461012b578063e6a4390514610159578063f46901ed1461018757610093565b8063017e7e5814610098578063094b7415146100bc5780631e3dd18b146100c4578063574f2ba3146100e1575b600080fd5b6100a06101ad565b604080516001600160a01b039092168252519081900360200190f35b6100a06101bc565b6100a0600480360360208110156100da57600080fd5b50356101cb565b6100e96101f2565b60408051918252519081900360200190f35b6100e96101f8565b6101296004803603602081101561011957600080fd5b50356001600160a01b031661022a565b005b6100a06004803603604081101561014157600080fd5b506001600160a01b038135811691602001351661029d565b6100a06004803603604081101561016f57600080fd5b506001600160a01b03813581169160200135166105b8565b6101296004803603602081101561019d57600080fd5b50356001600160a01b03166105de565b6000546001600160a01b031681565b6001546001600160a01b031681565b600381815481106101d857fe5b6000918252602090912001546001600160a01b0316905081565b60035490565b60006040518060200161020a90610651565b6020820181038252601f19601f8201166040525080519060200120905090565b6001546001600160a01b0316331461027b576040805162461bcd60e51b815260206004820152600f60248201526e37a0ab20ac102327a92124a22222a760891b604482015290519081900360640190fd5b600180546001600160a01b0319166001600160a01b0392909216919091179055565b6000816001600160a01b0316836001600160a01b03161415610306576040805162461bcd60e51b815260206004820152601960248201527f6f41564158204944454e544943414c5f41444452455353455300000000000000604482015290519081900360640190fd5b600080836001600160a01b0316856001600160a01b03161061032957838561032c565b84845b90925090506001600160a01b038216610381576040805162461bcd60e51b81526020600482015260126024820152716f41564158205a45524f5f4144445245535360701b604482015290519081900360640190fd5b6001600160a01b038281166000908152600260209081526040808320858516845290915290205416156103ef576040805162461bcd60e51b81526020600482015260116024820152706f4156415820504149525f45584953545360781b604482015290519081900360640190fd5b60606040518060200161040190610651565b6020820181038252601f19601f8201166040525090506000838360405160200180836001600160a01b031660601b8152601401826001600160a01b031660601b815260140192505050604051602081830303815290604052805190602001209050808251602084016000f59450846001600160a01b031663485cc95585856040518363ffffffff1660e01b815260040180836001600160a01b03168152602001826001600160a01b0316815260200192505050600060405180830381600087803b1580156104ce57600080fd5b505af11580156104e2573d6000803e3d6000fd5b505050506001600160a01b0384811660008181526002602081815260408084208987168086529083528185208054978d166001600160a01b031998891681179091559383528185208686528352818520805488168517905560038054600181018255958190527fc2575a0e9e593c00f959f8c92f12db2869c3395a3b0502d05e2516446f71f85b90950180549097168417909655925483519283529082015281517f0d3648bd0f6ba80134a33ba9275ac585d9d315f0ad8355cddefde31afa28d0e9929181900390910190a35050505092915050565b60026020908152600092835260408084209091529082529020546001600160a01b031681565b6001546001600160a01b0316331461062f576040805162461bcd60e51b815260206004820152600f60248201526e37a0ab20ac102327a92124a22222a760891b604482015290519081900360640190fd5b600080546001600160a01b0319166001600160a01b0392909216919091179055565b61273f8061065f8339019056fe60806040526001600d5534801561001557600080fd5b50604080518082018252600e81526d37a0ab20ac102628102a37b5b2b760911b6020918201528151808301835260018152603160f81b9082015281517f8b73c3c69bb8fe3d512ecc4cf759cc79239f7b179b0ffacaa9a75d522b39400f818301527fd60ce3ee4b66cabd3b64c2794fd5f6cc29abf78dc9352773f62924eaa9c79561818401527fc89efdaa54c0f20c7adf612882df0950f5a951637e0307cdcb4c672f298b8bc660608201524660808201523060a0808301919091528351808303909101815260c09091019092528151910120600355600580546001600160a01b031916331790556126338061010c6000396000f3fe608060405234801561001057600080fd5b50600436106101a95760003560e01c80636a627842116100f9578063ba9a7a5611610097578063d21220a711610071578063d21220a714610534578063d505accf1461053c578063dd62ed3e1461058d578063fff6cae9146105bb576101a9565b8063ba9a7a56146104fe578063bc25cf7714610506578063c45a01551461052c576101a9565b80637ecebe00116100d35780637ecebe001461046557806389afcb441461048b57806395d89b41146104ca578063a9059cbb146104d2576101a9565b80636a6278421461041157806370a08231146104375780637464fc3d1461045d576101a9565b806323b872dd116101665780633644e515116101405780633644e515146103cb578063485cc955146103d35780635909c0d5146104015780635a3d549314610409576101a9565b806323b872dd1461036f57806330adf81f146103a5578063313ce567146103ad576101a9565b8063022c0d9f146101ae57806306fdde031461023c5780630902f1ac146102b9578063095ea7b3146102f15780630dfe16811461033157806318160ddd14610355575b600080fd5b61023a600480360360808110156101c457600080fd5b8135916020810135916001600160a01b0360408301351691908101906080810160608201356401000000008111156101fb57600080fd5b82018360208201111561020d57600080fd5b8035906020019184600183028401116401000000008311171561022f57600080fd5b5090925090506105c3565b005b610244610ad8565b6040805160208082528351818301528351919283929083019185019080838360005b8381101561027e578181015183820152602001610266565b50505050905090810190601f1680156102ab5780820380516001836020036101000a031916815260200191505b509250505060405180910390f35b6102c1610b02565b604080516001600160701b03948516815292909316602083015263ffffffff168183015290519081900360600190f35b61031d6004803603604081101561030757600080fd5b506001600160a01b038135169060200135610b2c565b604080519115158252519081900360200190f35b610339610b43565b604080516001600160a01b039092168252519081900360200190f35b61035d610b52565b60408051918252519081900360200190f35b61031d6004803603606081101561038557600080fd5b506001600160a01b03813581169160208101359091169060400135610b58565b61035d610bec565b6103b5610c10565b6040805160ff9092168252519081900360200190f35b61035d610c15565b61023a600480360360408110156103e957600080fd5b506001600160a01b0381358116916020013516610c1b565b61035d610f3c565b61035d610f42565b61035d6004803603602081101561042757600080fd5b50356001600160a01b0316610f48565b61035d6004803603602081101561044d57600080fd5b50356001600160a01b0316611221565b61035d611233565b61035d6004803603602081101561047b57600080fd5b50356001600160a01b0316611239565b6104b1600480360360208110156104a157600080fd5b50356001600160a01b031661124b565b6040805192835260208301919091528051918290030190f35b6102446115dc565b61031d600480360360408110156104e857600080fd5b506001600160a01b03813516906020013561166a565b61035d611677565b61023a6004803603602081101561051c57600080fd5b50356001600160a01b031661167d565b6103396117ec565b6103396117fb565b61023a600480360360e081101561055257600080fd5b506001600160a01b03813581169160208101359091169060408101359060608101359060ff6080820135169060a08101359060c0013561180a565b61035d600480360360408110156105a357600080fd5b506001600160a01b0381358116916020013516611a08565b61023a611a25565b600d5460011461060b576040805162461bcd60e51b815260206004820152600e60248201526d1bd0559056158c881313d0d2d15160921b604482015290519081900360640190fd5b6000600d558415158061061e5750600084115b6106595760405162461bcd60e51b81526004018080602001828103825260228152602001806125b76022913960400191505060405180910390fd5b600080610664610b02565b5091509150816001600160701b0316871080156106895750806001600160701b031686105b6106da576040805162461bcd60e51b815260206004820152601e60248201527f6f41564158563220494e53554646494349454e545f4c49515549444954590000604482015290519081900360640190fd5b60065460075460009182916001600160a01b039182169190811690891682148015906107185750806001600160a01b0316896001600160a01b031614155b61075e576040805162461bcd60e51b81526020600482015260126024820152716f41564158563220494e56414c49445f544f60701b604482015290519081900360640190fd5b8a1561076f5761076f828a8d611b84565b891561078057610780818a8c611b84565b861561083257886001600160a01b03166310d1e85c338d8d8c8c6040518663ffffffff1660e01b815260040180866001600160a01b03168152602001858152602001848152602001806020018281038252848482818152602001925080828437600081840152601f19601f8201169050808301925050509650505050505050600060405180830381600087803b15801561081957600080fd5b505af115801561082d573d6000803e3d6000fd5b505050505b604080516370a0823160e01b815230600482015290516001600160a01b038416916370a08231916024808301926020929190829003018186803b15801561087857600080fd5b505afa15801561088c573d6000803e3d6000fd5b505050506040513d60208110156108a257600080fd5b5051604080516370a0823160e01b815230600482015290519195506001600160a01b038316916370a0823191602480820192602092909190829003018186803b1580156108ee57600080fd5b505afa158015610902573d6000803e3d6000fd5b505050506040513d602081101561091857600080fd5b5051925060009150506001600160701b0385168a9003831161093b57600061094a565b89856001600160701b03160383035b9050600089856001600160701b0316038311610967576000610976565b89856001600160701b03160383035b905060008211806109875750600081115b6109c25760405162461bcd60e51b81526004018080602001828103825260218152602001806125966021913960400191505060405180910390fd5b60006109e46109d2846003611d17565b6109de876103e8611d17565b90611d7a565b905060006109f66109d2846003611d17565b9050610a1b620f4240610a156001600160701b038b8116908b16611d17565b90611d17565b610a258383611d17565b1015610a64576040805162461bcd60e51b81526020600482015260096024820152686f415641585632204b60b81b604482015290519081900360640190fd5b5050610a7284848888611dca565b60408051838152602081018390528082018d9052606081018c905290516001600160a01b038b169133917fd78ad95fa46c994b6551d0da85fc275fe613ce37657fb8d5e3d130840159d8229181900360800190a350506001600d55505050505050505050565b6040518060400160405280600e81526020016d37a0ab20ac102628102a37b5b2b760911b81525081565b6009546001600160701b0380821692600160701b830490911691600160e01b900463ffffffff1690565b6000610b39338484611f86565b5060015b92915050565b6006546001600160a01b031681565b60005481565b6001600160a01b038316600090815260026020908152604080832033845290915281205460001914610bd7576001600160a01b0384166000908152600260209081526040808320338452909152902054610bb29083611d7a565b6001600160a01b03851660009081526002602090815260408083203384529091529020555b610be2848484611fe8565b5060019392505050565b7f6e71edae12b1b97f4d1f60370fef10105fa2faae0126114a169c64845d6126c981565b601281565b60035481565b6005546001600160a01b03163314610c6e576040805162461bcd60e51b815260206004820152601160248201527037a0ab20ac2b19102327a92124a22222a760791b604482015290519081900360640190fd5b600680546001600160a01b038085166001600160a01b0319928316179283905560078054858316931692909217909155604080516395d89b4160e01b81529051606093909216916395d89b4191600480820192600092909190829003018186803b158015610cdb57600080fd5b505afa158015610cef573d6000803e3d6000fd5b505050506040513d6000823e601f3d908101601f191682016040526020811015610d1857600080fd5b8101908080516040519392919084640100000000821115610d3857600080fd5b908301906020820185811115610d4d57600080fd5b8251640100000000811182820188101715610d6757600080fd5b82525081516020918201929091019080838360005b83811015610d94578181015183820152602001610d7c565b50505050905090810190601f168015610dc15780820380516001836020036101000a031916815260200191505b5060408181526007546395d89b4160e01b835290519596506060956001600160a01b0390911694506395d89b41935060048083019350600092829003018186803b158015610e0e57600080fd5b505afa158015610e22573d6000803e3d6000fd5b505050506040513d6000823e601f3d908101601f191682016040526020811015610e4b57600080fd5b8101908080516040519392919084640100000000821115610e6b57600080fd5b908301906020820185811115610e8057600080fd5b8251640100000000811182820188101715610e9a57600080fd5b82525081516020918201929091019080838360005b83811015610ec7578181015183820152602001610eaf565b50505050905090810190601f168015610ef45780820380516001836020036101000a031916815260200191505b506040525050509050610f2182604051806040016040528060018152602001602d60f81b81525083612096565b8051610f35916008916020909101906124dd565b5050505050565b600a5481565b600b5481565b6000600d54600114610f92576040805162461bcd60e51b815260206004820152600e60248201526d1bd0559056158c881313d0d2d15160921b604482015290519081900360640190fd5b6000600d81905580610fa2610b02565b50600654604080516370a0823160e01b815230600482015290519395509193506000926001600160a01b03909116916370a08231916024808301926020929190829003018186803b158015610ff657600080fd5b505afa15801561100a573d6000803e3d6000fd5b505050506040513d602081101561102057600080fd5b5051600754604080516370a0823160e01b815230600482015290519293506000926001600160a01b03909216916370a0823191602480820192602092909190829003018186803b15801561107357600080fd5b505afa158015611087573d6000803e3d6000fd5b505050506040513d602081101561109d57600080fd5b5051905060006110b6836001600160701b038716611d7a565b905060006110cd836001600160701b038716611d7a565b905060006110db878761219c565b60005490915080611112576110fe6103e86109de6110f98787611d17565b6122d1565b985061110d60006103e8612323565b611155565b6111526001600160701b0389166111298684611d17565b8161113057fe5b046001600160701b0389166111458685611d17565b8161114c57fe5b046123ad565b98505b600089116111945760405162461bcd60e51b81526004018080602001828103825260258152602001806125d96025913960400191505060405180910390fd5b61119e8a8a612323565b6111aa86868a8a611dca565b81156111d4576009546111d0906001600160701b0380821691600160701b900416611d17565b600c555b6040805185815260208101859052815133927f4c209b5fc8ad50758f13e2e1088ba56a560dff690a1c6fef26394f4c03821c4f928290030190a250506001600d5550949695505050505050565b60016020526000908152604090205481565b600c5481565b60046020526000908152604090205481565b600080600d54600114611296576040805162461bcd60e51b815260206004820152600e60248201526d1bd0559056158c881313d0d2d15160921b604482015290519081900360640190fd5b6000600d819055806112a6610b02565b50600654600754604080516370a0823160e01b815230600482015290519496509294506001600160a01b039182169391169160009184916370a08231916024808301926020929190829003018186803b15801561130257600080fd5b505afa158015611316573d6000803e3d6000fd5b505050506040513d602081101561132c57600080fd5b5051604080516370a0823160e01b815230600482015290519192506000916001600160a01b038516916370a08231916024808301926020929190829003018186803b15801561137a57600080fd5b505afa15801561138e573d6000803e3d6000fd5b505050506040513d60208110156113a457600080fd5b5051306000908152600160205260408120549192506113c3888861219c565b600054909150806113d48487611d17565b816113db57fe5b049a50806113e98486611d17565b816113f057fe5b04995060008b118015611403575060008a115b61143e5760405162461bcd60e51b81526004018080602001828103825260258152602001806125716025913960400191505060405180910390fd5b61144830846123c5565b611453878d8d611b84565b61145e868d8c611b84565b604080516370a0823160e01b815230600482015290516001600160a01b038916916370a08231916024808301926020929190829003018186803b1580156114a457600080fd5b505afa1580156114b8573d6000803e3d6000fd5b505050506040513d60208110156114ce57600080fd5b5051604080516370a0823160e01b815230600482015290519196506001600160a01b038816916370a0823191602480820192602092909190829003018186803b15801561151a57600080fd5b505afa15801561152e573d6000803e3d6000fd5b505050506040513d602081101561154457600080fd5b5051935061155485858b8b611dca565b811561157e5760095461157a906001600160701b0380821691600160701b900416611d17565b600c555b604080518c8152602081018c905281516001600160a01b038f169233927fdccd412f0b1252819cb1fd330b93224ca42612892bb3f4f789976e6d81936496929081900390910190a35050505050505050506001600d81905550915091565b6008805460408051602060026001851615610100026000190190941693909304601f810184900484028201840190925281815292918301828280156116625780601f1061163757610100808354040283529160200191611662565b820191906000526020600020905b81548152906001019060200180831161164557829003601f168201915b505050505081565b6000610b39338484611fe8565b6103e881565b600d546001146116c5576040805162461bcd60e51b815260206004820152600e60248201526d1bd0559056158c881313d0d2d15160921b604482015290519081900360640190fd5b6000600d55600654600754600954604080516370a0823160e01b815230600482015290516001600160a01b03948516949093169261176e9285928792611769926001600160701b03169185916370a0823191602480820192602092909190829003018186803b15801561173757600080fd5b505afa15801561174b573d6000803e3d6000fd5b505050506040513d602081101561176157600080fd5b505190611d7a565b611b84565b6117e281846117696009600e9054906101000a90046001600160701b03166001600160701b0316856001600160a01b03166370a08231306040518263ffffffff1660e01b815260040180826001600160a01b0316815260200191505060206040518083038186803b15801561173757600080fd5b50506001600d5550565b6005546001600160a01b031681565b6007546001600160a01b031681565b42841015611850576040805162461bcd60e51b815260206004820152600e60248201526d1bd05590560e881156141254915160921b604482015290519081900360640190fd5b6003546001600160a01b0380891660008181526004602090815260408083208054600180820190925582517f6e71edae12b1b97f4d1f60370fef10105fa2faae0126114a169c64845d6126c98186015280840196909652958d166060860152608085018c905260a085019590955260c08085018b90528151808603909101815260e08501825280519083012061190160f01b6101008601526101028501969096526101228085019690965280518085039096018652610142840180825286519683019690962095839052610162840180825286905260ff89166101828501526101a284018890526101c28401879052519193926101e280820193601f1981019281900390910190855afa15801561196b573d6000803e3d6000fd5b5050604051601f1901519150506001600160a01b038116158015906119a15750886001600160a01b0316816001600160a01b0316145b6119f2576040805162461bcd60e51b815260206004820152601860248201527f6f415641583a20494e56414c49445f5349474e41545552450000000000000000604482015290519081900360640190fd5b6119fd898989611f86565b505050505050505050565b600260209081526000928352604080842090915290825290205481565b600d54600114611a6d576040805162461bcd60e51b815260206004820152600e60248201526d1bd0559056158c881313d0d2d15160921b604482015290519081900360640190fd5b6000600d55600654604080516370a0823160e01b81523060048201529051611b7d926001600160a01b0316916370a08231916024808301926020929190829003018186803b158015611abe57600080fd5b505afa158015611ad2573d6000803e3d6000fd5b505050506040513d6020811015611ae857600080fd5b5051600754604080516370a0823160e01b815230600482015290516001600160a01b03909216916370a0823191602480820192602092909190829003018186803b158015611b3557600080fd5b505afa158015611b49573d6000803e3d6000fd5b505050506040513d6020811015611b5f57600080fd5b50516009546001600160701b0380821691600160701b900416611dca565b6001600d55565b604080518082018252601981527f7472616e7366657228616464726573732c75696e74323536290000000000000060209182015281516001600160a01b0385811660248301526044808301869052845180840390910181526064909201845291810180516001600160e01b031663a9059cbb60e01b1781529251815160009460609489169392918291908083835b60208310611c315780518252601f199092019160209182019101611c12565b6001836020036101000a0380198251168184511680821785525050505050509050019150506000604051808303816000865af19150503d8060008114611c93576040519150601f19603f3d011682016040523d82523d6000602084013e611c98565b606091505b5091509150818015611cc6575080511580611cc65750808060200190516020811015611cc357600080fd5b50515b610f35576040805162461bcd60e51b815260206004820152601760248201527f6f415641585632205452414e534645525f4641494c4544000000000000000000604482015290519081900360640190fd5b6000811580611d3257505080820282828281611d2f57fe5b04145b610b3d576040805162461bcd60e51b815260206004820152601460248201527364732d6d6174682d6d756c2d6f766572666c6f7760601b604482015290519081900360640190fd5b80820382811115610b3d576040805162461bcd60e51b815260206004820152601560248201527464732d6d6174682d7375622d756e646572666c6f7760581b604482015290519081900360640190fd5b6001600160701b038411801590611de857506001600160701b038311155b611e2c576040805162461bcd60e51b815260206004820152601060248201526f6f415641585632204f564552464c4f5760801b604482015290519081900360640190fd5b60095463ffffffff42811691600160e01b90048116820390811615801590611e5c57506001600160701b03841615155b8015611e7057506001600160701b03831615155b15611edb578063ffffffff16611e9885611e8986612457565b6001600160e01b031690612469565b600a80546001600160e01b03929092169290920201905563ffffffff8116611ec384611e8987612457565b600b80546001600160e01b0392909216929092020190555b600980546dffffffffffffffffffffffffffff19166001600160701b03888116919091176dffffffffffffffffffffffffffff60701b1916600160701b8883168102919091176001600160e01b0316600160e01b63ffffffff871602179283905560408051848416815291909304909116602082015281517f1c411e9a96e071241c2f21f7726b17ae89e3cab4c78be50e062b03a9fffbbad1929181900390910190a1505050505050565b6001600160a01b03808416600081815260026020908152604080832094871680845294825291829020859055815185815291517f8c5be1e5ebec7d5bd14f71427d1e84f3dd0314c0f7b2291e5b200ac8c7c3b9259281900390910190a3505050565b6001600160a01b03831660009081526001602052604090205461200b9082611d7a565b6001600160a01b03808516600090815260016020526040808220939093559084168152205461203a908261248e565b6001600160a01b0380841660008181526001602090815260409182902094909455805185815290519193928716927fddf252ad1be2c89b69c2b068fc378daa952ba7f163c4a11628f55a4df523b3ef92918290030190a3505050565b60608383836040516020018084805190602001908083835b602083106120cd5780518252601f1990920191602091820191016120ae565b51815160209384036101000a600019018019909216911617905286519190930192860191508083835b602083106121155780518252601f1990920191602091820191016120f6565b51815160209384036101000a600019018019909216911617905285519190930192850191508083835b6020831061215d5780518252601f19909201916020918201910161213e565b6001836020036101000a038019825116818451168082178552505050505050905001935050505060405160208183030381529060405290509392505050565b600080600560009054906101000a90046001600160a01b03166001600160a01b031663017e7e586040518163ffffffff1660e01b815260040160206040518083038186803b1580156121ed57600080fd5b505afa158015612201573d6000803e3d6000fd5b505050506040513d602081101561221757600080fd5b5051600c546001600160a01b0382161580159450919250906122bd5780156122b85760006122546110f96001600160701b03888116908816611d17565b90506000612261836122d1565b9050808211156122b557600061228361227a8484611d7a565b60005490611d17565b90506000612291848461248e565b9050600081838161229e57fe5b04905080156122b1576122b18782612323565b5050505b50505b6122c9565b80156122c9576000600c555b505092915050565b60006003821115612314575080600160028204015b8181101561230e578091506002818285816122fd57fe5b04018161230657fe5b0490506122e6565b5061231e565b811561231e575060015b919050565b600054612330908261248e565b60009081556001600160a01b038316815260016020526040902054612355908261248e565b6001600160a01b03831660008181526001602090815260408083209490945583518581529351929391927fddf252ad1be2c89b69c2b068fc378daa952ba7f163c4a11628f55a4df523b3ef9281900390910190a35050565b60008183106123bc57816123be565b825b9392505050565b6001600160a01b0382166000908152600160205260409020546123e89082611d7a565b6001600160a01b0383166000908152600160205260408120919091555461240f9082611d7a565b60009081556040805183815290516001600160a01b038516917fddf252ad1be2c89b69c2b068fc378daa952ba7f163c4a11628f55a4df523b3ef919081900360200190a35050565b6001600160701b0316600160701b0290565b60006001600160701b0382166001600160e01b0384168161248657fe5b049392505050565b80820182811015610b3d576040805162461bcd60e51b815260206004820152601460248201527364732d6d6174682d6164642d6f766572666c6f7760601b604482015290519081900360640190fd5b828054600181600116156101000203166002900490600052602060002090601f016020900481019282601f1061251e57805160ff191683800117855561254b565b8280016001018555821561254b579182015b8281111561254b578251825591602001919060010190612530565b5061255792915061255b565b5090565b5b80821115612557576000815560010161255c56fe6f41564158563220494e53554646494349454e545f4c49515549444954595f4255524e45446f41564158563220494e53554646494349454e545f494e5055545f414d4f554e546f41564158563220494e53554646494349454e545f4f55545055545f414d4f554e546f41564158563220494e53554646494349454e545f4c49515549444954595f4d494e544544a2646970667358221220a2085d51dcc6f3159e0b5660cf72132a6ff5b4d9780df6acabd6515199e73d1964736f6c634300060c0033a264697066735822122015dd7b69d66f5ce72e3ff44a87ae9ef0cea466358b1a856f6a0307ae334fea9664736f6c634300060c0033",
  "immutableReferences": {},
  "source": "// SPDX-License-Identifier: MIT\r\n\r\npragma solidity =0.6.12;\r\n\r\nimport './interfaces/IUniswapV2Factory.sol';\r\nimport './UniswapV2Pair.sol';\r\n\r\ncontract UniswapV2Factory is IUniswapV2Factory {\r\n    address public override feeTo;\r\n    address public override feeToSetter;\r\n\r\n    mapping(address => mapping(address => address)) public override getPair;\r\n    address[] public override allPairs;\r\n\r\n    event PairCreated(address indexed token0, address indexed token1, address pair, uint);\r\n\r\n    constructor(address _feeToSetter) public {\r\n        feeToSetter = _feeToSetter;\r\n    }\r\n\r\n    function allPairsLength() external override view returns (uint) {\r\n        return allPairs.length;\r\n    }\r\n\r\n    function pairCodeHash() external pure returns (bytes32) {\r\n        return keccak256(type(UniswapV2Pair).creationCode);\r\n    }\r\n\r\n    function createPair(address tokenA, address tokenB) external override returns (address pair) {\r\n        require(tokenA != tokenB, 'oAVAX IDENTICAL_ADDRESSES');\r\n        (address token0, address token1) = tokenA < tokenB ? (tokenA, tokenB) : (tokenB, tokenA);\r\n        require(token0 != address(0), 'oAVAX ZERO_ADDRESS');\r\n        require(getPair[token0][token1] == address(0), 'oAVAX PAIR_EXISTS'); // single check is sufficient\r\n        bytes memory bytecode = type(UniswapV2Pair).creationCode;\r\n        bytes32 salt = keccak256(abi.encodePacked(token0, token1));\r\n        assembly {\r\n            pair := create2(0, add(bytecode, 32), mload(bytecode), salt)\r\n        }\r\n        \r\n        UniswapV2Pair(pair).initialize(token0, token1);\r\n        getPair[token0][token1] = pair;\r\n        getPair[token1][token0] = pair; // populate mapping in the reverse direction\r\n        allPairs.push(pair);\r\n        emit PairCreated(token0, token1, pair, allPairs.length);\r\n    }\r\n\r\n    function setFeeTo(address _feeTo) external override {\r\n        require(msg.sender == feeToSetter, 'oAVAX FORBIDDEN');\r\n        feeTo = _feeTo;\r\n    }\r\n\r\n    function setFeeToSetter(address _feeToSetter) external override {\r\n        require(msg.sender == feeToSetter, 'oAVAX FORBIDDEN');\r\n        feeToSetter = _feeToSetter;\r\n    }\r\n\r\n}\r\n",
  "sourcePath": "/opt/1oavax/oavax-core/contracts/uniswapv2/UniswapV2Factory.sol",
  "compiler": {
    "name": "solc",
    "version": "0.6.12+commit.27d51765.Emscripten.clang"
  },
  "schemaVersion": "3.2.4",
  "updatedAt": "2022-01-20T20:26:22.806Z",
  "networkType": "ethereum",
  "devdoc": {
    "kind": "dev",
    "methods": {},
    "version": 1
  },
  "userdoc": {
    "kind": "user",
    "methods": {},
    "version": 1
  }
}