{
  "contractName": "UniswapV2Router02",
  "abi": [
    {
      "inputs": [
        {
          "internalType": "address",
          "name": "_factory",
          "type": "address"
        },
        {
          "internalType": "address",
          "name": "_WAVAX",
          "type": "address"
        }
      ],
      "stateMutability": "nonpayable",
      "type": "constructor"
    },
    {
      "inputs": [],
      "name": "WAVAX",
      "outputs": [
        {
          "internalType": "address",
          "name": "",
          "type": "address"
        }
      ],
      "stateMutability": "view",
      "type": "function"
    },
    {
      "inputs": [],
      "name": "factory",
      "outputs": [
        {
          "internalType": "address",
          "name": "",
          "type": "address"
        }
      ],
      "stateMutability": "view",
      "type": "function"
    },
    {
      "stateMutability": "payable",
      "type": "receive"
    },
    {
      "inputs": [
        {
          "internalType": "address",
          "name": "tokenA",
          "type": "address"
        },
        {
          "internalType": "address",
          "name": "tokenB",
          "type": "address"
        },
        {
          "internalType": "uint256",
          "name": "amountADesired",
          "type": "uint256"
        },
        {
          "internalType": "uint256",
          "name": "amountBDesired",
          "type": "uint256"
        },
        {
          "internalType": "uint256",
          "name": "amountAMin",
          "type": "uint256"
        },
        {
          "internalType": "uint256",
          "name": "amountBMin",
          "type": "uint256"
        },
        {
          "internalType": "address",
          "name": "to",
          "type": "address"
        },
        {
          "internalType": "uint256",
          "name": "deadline",
          "type": "uint256"
        }
      ],
      "name": "addLiquidity",
      "outputs": [
        {
          "internalType": "uint256",
          "name": "amountA",
          "type": "uint256"
        },
        {
          "internalType": "uint256",
          "name": "amountB",
          "type": "uint256"
        },
        {
          "internalType": "uint256",
          "name": "liquidity",
          "type": "uint256"
        }
      ],
      "stateMutability": "nonpayable",
      "type": "function"
    },
    {
      "inputs": [
        {
          "internalType": "address",
          "name": "token",
          "type": "address"
        },
        {
          "internalType": "uint256",
          "name": "amountTokenDesired",
          "type": "uint256"
        },
        {
          "internalType": "uint256",
          "name": "amountTokenMin",
          "type": "uint256"
        },
        {
          "internalType": "uint256",
          "name": "amountAVAXMin",
          "type": "uint256"
        },
        {
          "internalType": "address",
          "name": "to",
          "type": "address"
        },
        {
          "internalType": "uint256",
          "name": "deadline",
          "type": "uint256"
        }
      ],
      "name": "addLiquidityAVAX",
      "outputs": [
        {
          "internalType": "uint256",
          "name": "amountToken",
          "type": "uint256"
        },
        {
          "internalType": "uint256",
          "name": "amountAVAX",
          "type": "uint256"
        },
        {
          "internalType": "uint256",
          "name": "liquidity",
          "type": "uint256"
        }
      ],
      "stateMutability": "payable",
      "type": "function"
    },
    {
      "inputs": [
        {
          "internalType": "address",
          "name": "tokenA",
          "type": "address"
        },
        {
          "internalType": "address",
          "name": "tokenB",
          "type": "address"
        },
        {
          "internalType": "uint256",
          "name": "liquidity",
          "type": "uint256"
        },
        {
          "internalType": "uint256",
          "name": "amountAMin",
          "type": "uint256"
        },
        {
          "internalType": "uint256",
          "name": "amountBMin",
          "type": "uint256"
        },
        {
          "internalType": "address",
          "name": "to",
          "type": "address"
        },
        {
          "internalType": "uint256",
          "name": "deadline",
          "type": "uint256"
        }
      ],
      "name": "removeLiquidity",
      "outputs": [
        {
          "internalType": "uint256",
          "name": "amountA",
          "type": "uint256"
        },
        {
          "internalType": "uint256",
          "name": "amountB",
          "type": "uint256"
        }
      ],
      "stateMutability": "nonpayable",
      "type": "function"
    },
    {
      "inputs": [
        {
          "internalType": "address",
          "name": "token",
          "type": "address"
        },
        {
          "internalType": "uint256",
          "name": "liquidity",
          "type": "uint256"
        },
        {
          "internalType": "uint256",
          "name": "amountTokenMin",
          "type": "uint256"
        },
        {
          "internalType": "uint256",
          "name": "amountAVAXMin",
          "type": "uint256"
        },
        {
          "internalType": "address",
          "name": "to",
          "type": "address"
        },
        {
          "internalType": "uint256",
          "name": "deadline",
          "type": "uint256"
        }
      ],
      "name": "removeLiquidityAVAX",
      "outputs": [
        {
          "internalType": "uint256",
          "name": "amountToken",
          "type": "uint256"
        },
        {
          "internalType": "uint256",
          "name": "amountAVAX",
          "type": "uint256"
        }
      ],
      "stateMutability": "nonpayable",
      "type": "function"
    },
    {
      "inputs": [
        {
          "internalType": "address",
          "name": "tokenA",
          "type": "address"
        },
        {
          "internalType": "address",
          "name": "tokenB",
          "type": "address"
        },
        {
          "internalType": "uint256",
          "name": "liquidity",
          "type": "uint256"
        },
        {
          "internalType": "uint256",
          "name": "amountAMin",
          "type": "uint256"
        },
        {
          "internalType": "uint256",
          "name": "amountBMin",
          "type": "uint256"
        },
        {
          "internalType": "address",
          "name": "to",
          "type": "address"
        },
        {
          "internalType": "uint256",
          "name": "deadline",
          "type": "uint256"
        },
        {
          "internalType": "bool",
          "name": "approveMax",
          "type": "bool"
        },
        {
          "internalType": "uint8",
          "name": "v",
          "type": "uint8"
        },
        {
          "internalType": "bytes32",
          "name": "r",
          "type": "bytes32"
        },
        {
          "internalType": "bytes32",
          "name": "s",
          "type": "bytes32"
        }
      ],
      "name": "removeLiquidityWithPermit",
      "outputs": [
        {
          "internalType": "uint256",
          "name": "amountA",
          "type": "uint256"
        },
        {
          "internalType": "uint256",
          "name": "amountB",
          "type": "uint256"
        }
      ],
      "stateMutability": "nonpayable",
      "type": "function"
    },
    {
      "inputs": [
        {
          "internalType": "address",
          "name": "token",
          "type": "address"
        },
        {
          "internalType": "uint256",
          "name": "liquidity",
          "type": "uint256"
        },
        {
          "internalType": "uint256",
          "name": "amountTokenMin",
          "type": "uint256"
        },
        {
          "internalType": "uint256",
          "name": "amountAVAXMin",
          "type": "uint256"
        },
        {
          "internalType": "address",
          "name": "to",
          "type": "address"
        },
        {
          "internalType": "uint256",
          "name": "deadline",
          "type": "uint256"
        },
        {
          "internalType": "bool",
          "name": "approveMax",
          "type": "bool"
        },
        {
          "internalType": "uint8",
          "name": "v",
          "type": "uint8"
        },
        {
          "internalType": "bytes32",
          "name": "r",
          "type": "bytes32"
        },
        {
          "internalType": "bytes32",
          "name": "s",
          "type": "bytes32"
        }
      ],
      "name": "removeLiquidityAVAXWithPermit",
      "outputs": [
        {
          "internalType": "uint256",
          "name": "amountToken",
          "type": "uint256"
        },
        {
          "internalType": "uint256",
          "name": "amountAVAX",
          "type": "uint256"
        }
      ],
      "stateMutability": "nonpayable",
      "type": "function"
    },
    {
      "inputs": [
        {
          "internalType": "address",
          "name": "token",
          "type": "address"
        },
        {
          "internalType": "uint256",
          "name": "liquidity",
          "type": "uint256"
        },
        {
          "internalType": "uint256",
          "name": "amountTokenMin",
          "type": "uint256"
        },
        {
          "internalType": "uint256",
          "name": "amountAVAXMin",
          "type": "uint256"
        },
        {
          "internalType": "address",
          "name": "to",
          "type": "address"
        },
        {
          "internalType": "uint256",
          "name": "deadline",
          "type": "uint256"
        }
      ],
      "name": "removeLiquidityAVAXSupportingFeeOnTransferTokens",
      "outputs": [
        {
          "internalType": "uint256",
          "name": "amountAVAX",
          "type": "uint256"
        }
      ],
      "stateMutability": "nonpayable",
      "type": "function"
    },
    {
      "inputs": [
        {
          "internalType": "address",
          "name": "token",
          "type": "address"
        },
        {
          "internalType": "uint256",
          "name": "liquidity",
          "type": "uint256"
        },
        {
          "internalType": "uint256",
          "name": "amountTokenMin",
          "type": "uint256"
        },
        {
          "internalType": "uint256",
          "name": "amountAVAXMin",
          "type": "uint256"
        },
        {
          "internalType": "address",
          "name": "to",
          "type": "address"
        },
        {
          "internalType": "uint256",
          "name": "deadline",
          "type": "uint256"
        },
        {
          "internalType": "bool",
          "name": "approveMax",
          "type": "bool"
        },
        {
          "internalType": "uint8",
          "name": "v",
          "type": "uint8"
        },
        {
          "internalType": "bytes32",
          "name": "r",
          "type": "bytes32"
        },
        {
          "internalType": "bytes32",
          "name": "s",
          "type": "bytes32"
        }
      ],
      "name": "removeLiquidityAVAXWithPermitSupportingFeeOnTransferTokens",
      "outputs": [
        {
          "internalType": "uint256",
          "name": "amountAVAX",
          "type": "uint256"
        }
      ],
      "stateMutability": "nonpayable",
      "type": "function"
    },
    {
      "inputs": [
        {
          "internalType": "uint256",
          "name": "amountIn",
          "type": "uint256"
        },
        {
          "internalType": "uint256",
          "name": "amountOutMin",
          "type": "uint256"
        },
        {
          "internalType": "address[]",
          "name": "path",
          "type": "address[]"
        },
        {
          "internalType": "address",
          "name": "to",
          "type": "address"
        },
        {
          "internalType": "uint256",
          "name": "deadline",
          "type": "uint256"
        }
      ],
      "name": "swapExactTokensForTokens",
      "outputs": [
        {
          "internalType": "uint256[]",
          "name": "amounts",
          "type": "uint256[]"
        }
      ],
      "stateMutability": "nonpayable",
      "type": "function"
    },
    {
      "inputs": [
        {
          "internalType": "uint256",
          "name": "amountOut",
          "type": "uint256"
        },
        {
          "internalType": "uint256",
          "name": "amountInMax",
          "type": "uint256"
        },
        {
          "internalType": "address[]",
          "name": "path",
          "type": "address[]"
        },
        {
          "internalType": "address",
          "name": "to",
          "type": "address"
        },
        {
          "internalType": "uint256",
          "name": "deadline",
          "type": "uint256"
        }
      ],
      "name": "swapTokensForExactTokens",
      "outputs": [
        {
          "internalType": "uint256[]",
          "name": "amounts",
          "type": "uint256[]"
        }
      ],
      "stateMutability": "nonpayable",
      "type": "function"
    },
    {
      "inputs": [
        {
          "internalType": "uint256",
          "name": "amountOutMin",
          "type": "uint256"
        },
        {
          "internalType": "address[]",
          "name": "path",
          "type": "address[]"
        },
        {
          "internalType": "address",
          "name": "to",
          "type": "address"
        },
        {
          "internalType": "uint256",
          "name": "deadline",
          "type": "uint256"
        }
      ],
      "name": "swapExactAVAXForTokens",
      "outputs": [
        {
          "internalType": "uint256[]",
          "name": "amounts",
          "type": "uint256[]"
        }
      ],
      "stateMutability": "payable",
      "type": "function"
    },
    {
      "inputs": [
        {
          "internalType": "uint256",
          "name": "amountOut",
          "type": "uint256"
        },
        {
          "internalType": "uint256",
          "name": "amountInMax",
          "type": "uint256"
        },
        {
          "internalType": "address[]",
          "name": "path",
          "type": "address[]"
        },
        {
          "internalType": "address",
          "name": "to",
          "type": "address"
        },
        {
          "internalType": "uint256",
          "name": "deadline",
          "type": "uint256"
        }
      ],
      "name": "swapTokensForExactAVAX",
      "outputs": [
        {
          "internalType": "uint256[]",
          "name": "amounts",
          "type": "uint256[]"
        }
      ],
      "stateMutability": "nonpayable",
      "type": "function"
    },
    {
      "inputs": [
        {
          "internalType": "uint256",
          "name": "amountIn",
          "type": "uint256"
        },
        {
          "internalType": "uint256",
          "name": "amountOutMin",
          "type": "uint256"
        },
        {
          "internalType": "address[]",
          "name": "path",
          "type": "address[]"
        },
        {
          "internalType": "address",
          "name": "to",
          "type": "address"
        },
        {
          "internalType": "uint256",
          "name": "deadline",
          "type": "uint256"
        }
      ],
      "name": "swapExactTokensForAVAX",
      "outputs": [
        {
          "internalType": "uint256[]",
          "name": "amounts",
          "type": "uint256[]"
        }
      ],
      "stateMutability": "nonpayable",
      "type": "function"
    },
    {
      "inputs": [
        {
          "internalType": "uint256",
          "name": "amountOut",
          "type": "uint256"
        },
        {
          "internalType": "address[]",
          "name": "path",
          "type": "address[]"
        },
        {
          "internalType": "address",
          "name": "to",
          "type": "address"
        },
        {
          "internalType": "uint256",
          "name": "deadline",
          "type": "uint256"
        }
      ],
      "name": "swapAVAXForExactTokens",
      "outputs": [
        {
          "internalType": "uint256[]",
          "name": "amounts",
          "type": "uint256[]"
        }
      ],
      "stateMutability": "payable",
      "type": "function"
    },
    {
      "inputs": [
        {
          "internalType": "uint256",
          "name": "amountIn",
          "type": "uint256"
        },
        {
          "internalType": "uint256",
          "name": "amountOutMin",
          "type": "uint256"
        },
        {
          "internalType": "address[]",
          "name": "path",
          "type": "address[]"
        },
        {
          "internalType": "address",
          "name": "to",
          "type": "address"
        },
        {
          "internalType": "uint256",
          "name": "deadline",
          "type": "uint256"
        }
      ],
      "name": "swapExactTokensForTokensSupportingFeeOnTransferTokens",
      "outputs": [],
      "stateMutability": "nonpayable",
      "type": "function"
    },
    {
      "inputs": [
        {
          "internalType": "uint256",
          "name": "amountOutMin",
          "type": "uint256"
        },
        {
          "internalType": "address[]",
          "name": "path",
          "type": "address[]"
        },
        {
          "internalType": "address",
          "name": "to",
          "type": "address"
        },
        {
          "internalType": "uint256",
          "name": "deadline",
          "type": "uint256"
        }
      ],
      "name": "swapExactAVAXForTokensSupportingFeeOnTransferTokens",
      "outputs": [],
      "stateMutability": "payable",
      "type": "function"
    },
    {
      "inputs": [
        {
          "internalType": "uint256",
          "name": "amountIn",
          "type": "uint256"
        },
        {
          "internalType": "uint256",
          "name": "amountOutMin",
          "type": "uint256"
        },
        {
          "internalType": "address[]",
          "name": "path",
          "type": "address[]"
        },
        {
          "internalType": "address",
          "name": "to",
          "type": "address"
        },
        {
          "internalType": "uint256",
          "name": "deadline",
          "type": "uint256"
        }
      ],
      "name": "swapExactTokensForAVAXSupportingFeeOnTransferTokens",
      "outputs": [],
      "stateMutability": "nonpayable",
      "type": "function"
    },
    {
      "inputs": [
        {
          "internalType": "uint256",
          "name": "amountA",
          "type": "uint256"
        },
        {
          "internalType": "uint256",
          "name": "reserveA",
          "type": "uint256"
        },
        {
          "internalType": "uint256",
          "name": "reserveB",
          "type": "uint256"
        }
      ],
      "name": "quote",
      "outputs": [
        {
          "internalType": "uint256",
          "name": "amountB",
          "type": "uint256"
        }
      ],
      "stateMutability": "pure",
      "type": "function"
    },
    {
      "inputs": [
        {
          "internalType": "uint256",
          "name": "amountIn",
          "type": "uint256"
        },
        {
          "internalType": "uint256",
          "name": "reserveIn",
          "type": "uint256"
        },
        {
          "internalType": "uint256",
          "name": "reserveOut",
          "type": "uint256"
        }
      ],
      "name": "getAmountOut",
      "outputs": [
        {
          "internalType": "uint256",
          "name": "amountOut",
          "type": "uint256"
        }
      ],
      "stateMutability": "pure",
      "type": "function"
    },
    {
      "inputs": [
        {
          "internalType": "uint256",
          "name": "amountOut",
          "type": "uint256"
        },
        {
          "internalType": "uint256",
          "name": "reserveIn",
          "type": "uint256"
        },
        {
          "internalType": "uint256",
          "name": "reserveOut",
          "type": "uint256"
        }
      ],
      "name": "getAmountIn",
      "outputs": [
        {
          "internalType": "uint256",
          "name": "amountIn",
          "type": "uint256"
        }
      ],
      "stateMutability": "pure",
      "type": "function"
    },
    {
      "inputs": [
        {
          "internalType": "uint256",
          "name": "amountIn",
          "type": "uint256"
        },
        {
          "internalType": "address[]",
          "name": "path",
          "type": "address[]"
        }
      ],
      "name": "getAmountsOut",
      "outputs": [
        {
          "internalType": "uint256[]",
          "name": "amounts",
          "type": "uint256[]"
        }
      ],
      "stateMutability": "view",
      "type": "function"
    },
    {
      "inputs": [
        {
          "internalType": "uint256",
          "name": "amountOut",
          "type": "uint256"
        },
        {
          "internalType": "address[]",
          "name": "path",
          "type": "address[]"
        }
      ],
      "name": "getAmountsIn",
      "outputs": [
        {
          "internalType": "uint256[]",
          "name": "amounts",
          "type": "uint256[]"
        }
      ],
      "stateMutability": "view",
      "type": "function"
    }
  ],
  "bytecode": "0x60c060405234801561001057600080fd5b506040516200471e3803806200471e8339818101604052604081101561003557600080fd5b5080516020909101516001600160601b0319606092831b8116608052911b1660a05260805160601c60a05160601c614599620001856000398061015f5280610e085280610f3f5280610f7a52806114cb5280611666528061171c528061178c5280611840528061191652806119f85280611ad65280611bae5280611e6f5280611fcf528061205752806121f1528061231f528061247052806124f8528061290d52806129a95280612a1d5280612df25280612e485280612e7c5280612ef0525080610cb35280610cec5280610de652806110595280611134528061126252806115605280611c435280611d615280611f09528061208952806121cf52806123b9528061252a528061267f52806128a35280612a4f5280612c465280612cd15280612e2652806138c052806139035280613aa55280613c1b528061400c52806140c5528061417852506145996000f3fe60806040526004361061014f5760003560e01c806385f8c259116100b6578063baa2abde1161006f578063baa2abde14610a26578063c45a015514610a83578063c57559dd14610a98578063d06ca61f14610b1c578063e8e3370014610bd1578063f91b3f7214610c5157610188565b806385f8c259146107a95780638803dbee146107df5780638a657e67146108755780639fc27226146108f9578063a2a1623d1461096c578063ad615dec146109f057610188565b80635c11d795116101085780635c11d795146104cd578063676528d11461056357806373b295c2146105f957806373bc79cf1461062a578063762b15621461067d5780637a42416a1461071357610188565b8063054d50d41461018d5780631f00ca74146101d55780632195995c146102da5780632c4070241461037157806333c6b725146103e457806338ed17391461043757610188565b3661018857336001600160a01b037f0000000000000000000000000000000000000000000000000000000000000000161461018657fe5b005b600080fd5b34801561019957600080fd5b506101c3600480360360608110156101b057600080fd5b5080359060208101359060400135610c97565b60408051918252519081900360200190f35b3480156101e157600080fd5b5061028a600480360360408110156101f857600080fd5b81359190810190604081016020820135600160201b81111561021957600080fd5b82018360208201111561022b57600080fd5b803590602001918460208302840111600160201b8311171561024c57600080fd5b919080806020026020016040519081016040528093929190818152602001838360200280828437600092019190915250929550610cac945050505050565b60408051602080825283518183015283519192839290830191858101910280838360005b838110156102c65781810151838201526020016102ae565b505050509050019250505060405180910390f35b3480156102e657600080fd5b5061035860048036036101608110156102fe57600080fd5b506001600160a01b038135811691602081013582169160408201359160608101359160808201359160a08101359091169060c08101359060e081013515159060ff6101008201351690610120810135906101400135610ce2565b6040805192835260208301919091528051918290030190f35b34801561037d57600080fd5b50610358600480360361014081101561039557600080fd5b506001600160a01b0381358116916020810135916040820135916060810135916080820135169060a08101359060c081013515159060ff60e08201351690610100810135906101200135610ddc565b3480156103f057600080fd5b50610358600480360360c081101561040757600080fd5b506001600160a01b0381358116916020810135916040820135916060810135916080820135169060a00135610ef0565b34801561044357600080fd5b5061028a600480360360a081101561045a57600080fd5b813591602081013591810190606081016040820135600160201b81111561048057600080fd5b82018360208201111561049257600080fd5b803590602001918460208302840111600160201b831117156104b357600080fd5b91935091506001600160a01b03813516906020013561100c565b3480156104d957600080fd5b50610186600480360360a08110156104f057600080fd5b813591602081013591810190606081016040820135600160201b81111561051657600080fd5b82018360208201111561052857600080fd5b803590602001918460208302840111600160201b8311171561054957600080fd5b91935091506001600160a01b0381351690602001356111f6565b34801561056f57600080fd5b5061028a600480360360a081101561058657600080fd5b813591602081013591810190606081016040820135600160201b8111156105ac57600080fd5b8201836020820111156105be57600080fd5b803590602001918460208302840111600160201b831117156105df57600080fd5b91935091506001600160a01b038135169060200135611479565b34801561060557600080fd5b5061060e61171a565b604080516001600160a01b039092168252519081900360200190f35b34801561063657600080fd5b506101c3600480360360c081101561064d57600080fd5b506001600160a01b0381358116916020810135916040820135916060810135916080820135169060a0013561173e565b34801561068957600080fd5b50610186600480360360a08110156106a057600080fd5b813591602081013591810190606081016040820135600160201b8111156106c657600080fd5b8201836020820111156106d857600080fd5b803590602001918460208302840111600160201b831117156106f957600080fd5b91935091506001600160a01b0381351690602001356118c6565b34801561071f57600080fd5b5061028a600480360360a081101561073657600080fd5b813591602081013591810190606081016040820135600160201b81111561075c57600080fd5b82018360208201111561076e57600080fd5b803590602001918460208302840111600160201b8311171561078f57600080fd5b91935091506001600160a01b038135169060200135611b5c565b3480156107b557600080fd5b506101c3600480360360608110156107cc57600080fd5b5080359060208101359060400135611d07565b3480156107eb57600080fd5b5061028a600480360360a081101561080257600080fd5b813591602081013591810190606081016040820135600160201b81111561082857600080fd5b82018360208201111561083a57600080fd5b803590602001918460208302840111600160201b8311171561085b57600080fd5b91935091506001600160a01b038135169060200135611d14565b61028a6004803603608081101561088b57600080fd5b81359190810190604081016020820135600160201b8111156108ac57600080fd5b8201836020820111156108be57600080fd5b803590602001918460208302840111600160201b831117156108df57600080fd5b91935091506001600160a01b038135169060200135611e25565b34801561090557600080fd5b506101c3600480360361014081101561091d57600080fd5b506001600160a01b0381358116916020810135916040820135916060810135916080820135169060a08101359060c081013515159060ff60e082013516906101008101359061012001356121c7565b61028a6004803603608081101561098257600080fd5b81359190810190604081016020820135600160201b8111156109a357600080fd5b8201836020820111156109b557600080fd5b803590602001918460208302840111600160201b831117156109d657600080fd5b91935091506001600160a01b0381351690602001356122d5565b3480156109fc57600080fd5b506101c360048036036060811015610a1357600080fd5b5080359060208101359060400135612622565b348015610a3257600080fd5b50610358600480360360e0811015610a4957600080fd5b506001600160a01b038135811691602081013582169160408201359160608101359160808201359160a08101359091169060c0013561262f565b348015610a8f57600080fd5b5061060e6128a1565b61018660048036036080811015610aae57600080fd5b81359190810190604081016020820135600160201b811115610acf57600080fd5b820183602082011115610ae157600080fd5b803590602001918460208302840111600160201b83111715610b0257600080fd5b91935091506001600160a01b0381351690602001356128c5565b348015610b2857600080fd5b5061028a60048036036040811015610b3f57600080fd5b81359190810190604081016020820135600160201b811115610b6057600080fd5b820183602082011115610b7257600080fd5b803590602001918460208302840111600160201b83111715610b9357600080fd5b919080806020026020016040519081016040528093929190818152602001838360200280828437600092019190915250929550612c3f945050505050565b348015610bdd57600080fd5b50610c336004803603610100811015610bf557600080fd5b506001600160a01b038135811691602081013582169160408201359160608101359160808201359160a08101359160c0820135169060e00135612c6c565b60408051938452602084019290925282820152519081900360600190f35b610c33600480360360c0811015610c6757600080fd5b506001600160a01b0381358116916020810135916040820135916060810135916080820135169060a00135612da1565b6000610ca4848484613036565b949350505050565b6060610cd97f0000000000000000000000000000000000000000000000000000000000000000848461310e565b90505b92915050565b6000806000610d127f00000000000000000000000000000000000000000000000000000000000000008f8f61325b565b9050600087610d21578c610d25565b6000195b6040805163d505accf60e01b815233600482015230602482015260448101839052606481018c905260ff8a16608482015260a4810189905260c4810188905290519192506001600160a01b0384169163d505accf9160e48082019260009290919082900301818387803b158015610d9b57600080fd5b505af1158015610daf573d6000803e3d6000fd5b50505050610dc28f8f8f8f8f8f8f61262f565b809450819550505050509b509b9950505050505050505050565b6000806000610e2c7f00000000000000000000000000000000000000000000000000000000000000008e7f000000000000000000000000000000000000000000000000000000000000000061325b565b9050600087610e3b578c610e3f565b6000195b6040805163d505accf60e01b815233600482015230602482015260448101839052606481018c905260ff8a16608482015260a4810189905260c4810188905290519192506001600160a01b0384169163d505accf9160e48082019260009290919082900301818387803b158015610eb557600080fd5b505af1158015610ec9573d6000803e3d6000fd5b50505050610edb8e8e8e8e8e8e610ef0565b909f909e509c50505050505050505050505050565b6000808242811015610f39576040805162461bcd60e51b815260206004820152600d60248201526c13d05590560811561412549151609a1b604482015290519081900360640190fd5b610f68897f00000000000000000000000000000000000000000000000000000000000000008a8a8a308a61262f565b9093509150610f7889868561331b565b7f00000000000000000000000000000000000000000000000000000000000000006001600160a01b0316632e1a7d4d836040518263ffffffff1660e01b815260040180828152602001915050600060405180830381600087803b158015610fde57600080fd5b505af1158015610ff2573d6000803e3d6000fd5b505050506110008583613485565b50965096945050505050565b60608142811015611054576040805162461bcd60e51b815260206004820152600d60248201526c13d05590560811561412549151609a1b604482015290519081900360640190fd5b6110b27f00000000000000000000000000000000000000000000000000000000000000008988888080602002602001604051908101604052809392919081815260200183836020028082843760009201919091525061357d92505050565b915086826001845103815181106110c557fe5b6020026020010151101561110e576040805162461bcd60e51b81526020600482018190526024820152600080516020614544833981519152604482015290519081900360640190fd5b6111ac8686600081811061111e57fe5b905060200201356001600160a01b0316336111927f00000000000000000000000000000000000000000000000000000000000000008a8a600081811061116057fe5b905060200201356001600160a01b03168b8b600181811061117d57fe5b905060200201356001600160a01b031661325b565b8560008151811061119f57fe5b60200260200101516136b4565b6111eb82878780806020026020016040519081016040528093929190818152602001838360200280828437600092019190915250899250613811915050565b509695505050505050565b804281101561123c576040805162461bcd60e51b815260206004820152600d60248201526c13d05590560811561412549151609a1b604482015290519081900360640190fd5b6112b18585600081811061124c57fe5b905060200201356001600160a01b0316336112ab7f00000000000000000000000000000000000000000000000000000000000000008989600081811061128e57fe5b905060200201356001600160a01b03168a8a600181811061117d57fe5b8a6136b4565b6000858560001981018181106112c357fe5b905060200201356001600160a01b03166001600160a01b03166370a08231856040518263ffffffff1660e01b815260040180826001600160a01b0316815260200191505060206040518083038186803b15801561131f57600080fd5b505afa158015611333573d6000803e3d6000fd5b505050506040513d602081101561134957600080fd5b5051604080516020888102828101820190935288825292935061138b929091899189918291850190849080828437600092019190915250889250613a4e915050565b8661142e82888860001981018181106113a057fe5b905060200201356001600160a01b03166001600160a01b03166370a08231886040518263ffffffff1660e01b815260040180826001600160a01b0316815260200191505060206040518083038186803b1580156113fc57600080fd5b505afa158015611410573d6000803e3d6000fd5b505050506040513d602081101561142657600080fd5b505190613d50565b101561146f576040805162461bcd60e51b81526020600482018190526024820152600080516020614544833981519152604482015290519081900360640190fd5b5050505050505050565b606081428110156114c1576040805162461bcd60e51b815260206004820152600d60248201526c13d05590560811561412549151609a1b604482015290519081900360640190fd5b6001600160a01b037f000000000000000000000000000000000000000000000000000000000000000016868660001981018181106114fb57fe5b905060200201356001600160a01b03166001600160a01b03161461155b576040805162461bcd60e51b815260206004820152601260248201527109e82ac82b040929cac82989288bea082a8960731b604482015290519081900360640190fd5b6115b97f00000000000000000000000000000000000000000000000000000000000000008988888080602002602001604051908101604052809392919081815260200183836020028082843760009201919091525061357d92505050565b915086826001845103815181106115cc57fe5b60200260200101511015611615576040805162461bcd60e51b81526020600482018190526024820152600080516020614544833981519152604482015290519081900360640190fd5b6116258686600081811061111e57fe5b61166482878780806020026020016040519081016040528093929190818152602001838360200280828437600092019190915250309250613811915050565b7f00000000000000000000000000000000000000000000000000000000000000006001600160a01b0316632e1a7d4d836001855103815181106116a357fe5b60200260200101516040518263ffffffff1660e01b815260040180828152602001915050600060405180830381600087803b1580156116e157600080fd5b505af11580156116f5573d6000803e3d6000fd5b505050506111eb848360018551038151811061170d57fe5b6020026020010151613485565b7f000000000000000000000000000000000000000000000000000000000000000081565b60008142811015611786576040805162461bcd60e51b815260206004820152600d60248201526c13d05590560811561412549151609a1b604482015290519081900360640190fd5b6117b5887f0000000000000000000000000000000000000000000000000000000000000000898989308961262f565b90508092505061183e88858a6001600160a01b03166370a08231306040518263ffffffff1660e01b815260040180826001600160a01b0316815260200191505060206040518083038186803b15801561180d57600080fd5b505afa158015611821573d6000803e3d6000fd5b505050506040513d602081101561183757600080fd5b505161331b565b7f00000000000000000000000000000000000000000000000000000000000000006001600160a01b0316632e1a7d4d836040518263ffffffff1660e01b815260040180828152602001915050600060405180830381600087803b1580156118a457600080fd5b505af11580156118b8573d6000803e3d6000fd5b505050506111eb8483613485565b804281101561190c576040805162461bcd60e51b815260206004820152600d60248201526c13d05590560811561412549151609a1b604482015290519081900360640190fd5b6001600160a01b037f0000000000000000000000000000000000000000000000000000000000000000168585600019810181811061194657fe5b905060200201356001600160a01b03166001600160a01b0316146119a6576040805162461bcd60e51b815260206004820152601260248201527109e82ac82b040929cac82989288bea082a8960731b604482015290519081900360640190fd5b6119b68585600081811061124c57fe5b6119f4858580806020026020016040519081016040528093929190818152602001838360200280828437600092019190915250309250613a4e915050565b60007f00000000000000000000000000000000000000000000000000000000000000006001600160a01b03166370a08231306040518263ffffffff1660e01b815260040180826001600160a01b0316815260200191505060206040518083038186803b158015611a6357600080fd5b505afa158015611a77573d6000803e3d6000fd5b505050506040513d6020811015611a8d57600080fd5b5051905086811015611ad4576040805162461bcd60e51b81526020600482018190526024820152600080516020614544833981519152604482015290519081900360640190fd5b7f00000000000000000000000000000000000000000000000000000000000000006001600160a01b0316632e1a7d4d826040518263ffffffff1660e01b815260040180828152602001915050600060405180830381600087803b158015611b3a57600080fd5b505af1158015611b4e573d6000803e3d6000fd5b5050505061146f8482613485565b60608142811015611ba4576040805162461bcd60e51b815260206004820152600d60248201526c13d05590560811561412549151609a1b604482015290519081900360640190fd5b6001600160a01b037f00000000000000000000000000000000000000000000000000000000000000001686866000198101818110611bde57fe5b905060200201356001600160a01b03166001600160a01b031614611c3e576040805162461bcd60e51b815260206004820152601260248201527109e82ac82b040929cac82989288bea082a8960731b604482015290519081900360640190fd5b611c9c7f00000000000000000000000000000000000000000000000000000000000000008988888080602002602001604051908101604052809392919081815260200183836020028082843760009201919091525061310e92505050565b91508682600081518110611cac57fe5b60200260200101511115611615576040805162461bcd60e51b815260206004820152601c60248201527f4f41564158204558434553534956455f494e5055545f414d4f554e5400000000604482015290519081900360640190fd5b6000610ca4848484613da0565b60608142811015611d5c576040805162461bcd60e51b815260206004820152600d60248201526c13d05590560811561412549151609a1b604482015290519081900360640190fd5b611dba7f00000000000000000000000000000000000000000000000000000000000000008988888080602002602001604051908101604052809392919081815260200183836020028082843760009201919091525061310e92505050565b91508682600081518110611dca57fe5b6020026020010151111561110e576040805162461bcd60e51b815260206004820152601c60248201527f4f41564158204558434553534956455f494e5055545f414d4f554e5400000000604482015290519081900360640190fd5b60608142811015611e6d576040805162461bcd60e51b815260206004820152600d60248201526c13d05590560811561412549151609a1b604482015290519081900360640190fd5b7f00000000000000000000000000000000000000000000000000000000000000006001600160a01b031686866000818110611ea457fe5b905060200201356001600160a01b03166001600160a01b031614611f04576040805162461bcd60e51b815260206004820152601260248201527109e82ac82b040929cac82989288bea082a8960731b604482015290519081900360640190fd5b611f627f00000000000000000000000000000000000000000000000000000000000000008888888080602002602001604051908101604052809392919081815260200183836020028082843760009201919091525061310e92505050565b91503482600081518110611f7257fe5b60200260200101511115611fcd576040805162461bcd60e51b815260206004820152601c60248201527f4f41564158204558434553534956455f494e5055545f414d4f554e5400000000604482015290519081900360640190fd5b7f00000000000000000000000000000000000000000000000000000000000000006001600160a01b031663d0e30db08360008151811061200957fe5b60200260200101516040518263ffffffff1660e01b81526004016000604051808303818588803b15801561203c57600080fd5b505af1158015612050573d6000803e3d6000fd5b50505050507f00000000000000000000000000000000000000000000000000000000000000006001600160a01b031663a9059cbb6120b57f00000000000000000000000000000000000000000000000000000000000000008989600081811061128e57fe5b846000815181106120c257fe5b60200260200101516040518363ffffffff1660e01b815260040180836001600160a01b0316815260200182815260200192505050602060405180830381600087803b15801561211057600080fd5b505af1158015612124573d6000803e3d6000fd5b505050506040513d602081101561213a57600080fd5b505161214257fe5b61218182878780806020026020016040519081016040528093929190818152602001838360200280828437600092019190915250899250613811915050565b8160008151811061218e57fe5b60200260200101513411156121bd576121bd33836000815181106121ae57fe5b60200260200101513403613485565b5095945050505050565b6000806122157f00000000000000000000000000000000000000000000000000000000000000008d7f000000000000000000000000000000000000000000000000000000000000000061325b565b9050600086612224578b612228565b6000195b6040805163d505accf60e01b815233600482015230602482015260448101839052606481018b905260ff8916608482015260a4810188905260c4810187905290519192506001600160a01b0384169163d505accf9160e48082019260009290919082900301818387803b15801561229e57600080fd5b505af11580156122b2573d6000803e3d6000fd5b505050506122c48d8d8d8d8d8d61173e565b9d9c50505050505050505050505050565b6060814281101561231d576040805162461bcd60e51b815260206004820152600d60248201526c13d05590560811561412549151609a1b604482015290519081900360640190fd5b7f00000000000000000000000000000000000000000000000000000000000000006001600160a01b03168686600081811061235457fe5b905060200201356001600160a01b03166001600160a01b0316146123b4576040805162461bcd60e51b815260206004820152601260248201527109e82ac82b040929cac82989288bea082a8960731b604482015290519081900360640190fd5b6124127f00000000000000000000000000000000000000000000000000000000000000003488888080602002602001604051908101604052809392919081815260200183836020028082843760009201919091525061357d92505050565b9150868260018451038151811061242557fe5b6020026020010151101561246e576040805162461bcd60e51b81526020600482018190526024820152600080516020614544833981519152604482015290519081900360640190fd5b7f00000000000000000000000000000000000000000000000000000000000000006001600160a01b031663d0e30db0836000815181106124aa57fe5b60200260200101516040518263ffffffff1660e01b81526004016000604051808303818588803b1580156124dd57600080fd5b505af11580156124f1573d6000803e3d6000fd5b50505050507f00000000000000000000000000000000000000000000000000000000000000006001600160a01b031663a9059cbb6125567f00000000000000000000000000000000000000000000000000000000000000008989600081811061128e57fe5b8460008151811061256357fe5b60200260200101516040518363ffffffff1660e01b815260040180836001600160a01b0316815260200182815260200192505050602060405180830381600087803b1580156125b157600080fd5b505af11580156125c5573d6000803e3d6000fd5b505050506040513d60208110156125db57600080fd5b50516125e357fe5b6121bd82878780806020026020016040519081016040528093929190818152602001838360200280828437600092019190915250899250613811915050565b6000610ca4848484613e78565b6000808242811015612678576040805162461bcd60e51b815260206004820152600d60248201526c13d05590560811561412549151609a1b604482015290519081900360640190fd5b60006126a57f00000000000000000000000000000000000000000000000000000000000000008c8c61325b565b604080516323b872dd60e01b81523360048201526001600160a01b03831660248201819052604482018d9052915192935090916323b872dd916064808201926020929091908290030181600087803b15801561270057600080fd5b505af1158015612714573d6000803e3d6000fd5b505050506040513d602081101561272a57600080fd5b50506040805163226bf2d160e21b81526001600160a01b03888116600483015282516000938493928616926389afcb44926024808301939282900301818787803b15801561277757600080fd5b505af115801561278b573d6000803e3d6000fd5b505050506040513d60408110156127a157600080fd5b508051602090910151909250905060006127bb8e8e613f1e565b509050806001600160a01b03168e6001600160a01b0316146127de5781836127e1565b82825b90975095508a87101561283b576040805162461bcd60e51b815260206004820152601b60248201527f4f4156415820494e53554646494349454e545f415f414d4f554e540000000000604482015290519081900360640190fd5b89861015612890576040805162461bcd60e51b815260206004820152601b60248201527f4f4156415820494e53554646494349454e545f425f414d4f554e540000000000604482015290519081900360640190fd5b505050505097509795505050505050565b7f000000000000000000000000000000000000000000000000000000000000000081565b804281101561290b576040805162461bcd60e51b815260206004820152600d60248201526c13d05590560811561412549151609a1b604482015290519081900360640190fd5b7f00000000000000000000000000000000000000000000000000000000000000006001600160a01b03168585600081811061294257fe5b905060200201356001600160a01b03166001600160a01b0316146129a2576040805162461bcd60e51b815260206004820152601260248201527109e82ac82b040929cac82989288bea082a8960731b604482015290519081900360640190fd5b60003490507f00000000000000000000000000000000000000000000000000000000000000006001600160a01b031663d0e30db0826040518263ffffffff1660e01b81526004016000604051808303818588803b158015612a0257600080fd5b505af1158015612a16573d6000803e3d6000fd5b50505050507f00000000000000000000000000000000000000000000000000000000000000006001600160a01b031663a9059cbb612a7b7f00000000000000000000000000000000000000000000000000000000000000008989600081811061128e57fe5b836040518363ffffffff1660e01b815260040180836001600160a01b0316815260200182815260200192505050602060405180830381600087803b158015612ac257600080fd5b505af1158015612ad6573d6000803e3d6000fd5b505050506040513d6020811015612aec57600080fd5b5051612af457fe5b600086866000198101818110612b0657fe5b905060200201356001600160a01b03166001600160a01b03166370a08231866040518263ffffffff1660e01b815260040180826001600160a01b0316815260200191505060206040518083038186803b158015612b6257600080fd5b505afa158015612b76573d6000803e3d6000fd5b505050506040513d6020811015612b8c57600080fd5b50516040805160208981028281018201909352898252929350612bce9290918a918a918291850190849080828437600092019190915250899250613a4e915050565b8761142e8289896000198101818110612be357fe5b905060200201356001600160a01b03166001600160a01b03166370a08231896040518263ffffffff1660e01b815260040180826001600160a01b0316815260200191505060206040518083038186803b1580156113fc57600080fd5b6060610cd97f0000000000000000000000000000000000000000000000000000000000000000848461357d565b60008060008342811015612cb7576040805162461bcd60e51b815260206004820152600d60248201526c13d05590560811561412549151609a1b604482015290519081900360640190fd5b612cc58c8c8c8c8c8c613ffc565b90945092506000612cf77f00000000000000000000000000000000000000000000000000000000000000008e8e61325b565b9050612d058d3383886136b4565b612d118c3383876136b4565b806001600160a01b0316636a627842886040518263ffffffff1660e01b815260040180826001600160a01b03168152602001915050602060405180830381600087803b158015612d6057600080fd5b505af1158015612d74573d6000803e3d6000fd5b505050506040513d6020811015612d8a57600080fd5b5051949d939c50939a509198505050505050505050565b60008060008342811015612dec576040805162461bcd60e51b815260206004820152600d60248201526c13d05590560811561412549151609a1b604482015290519081900360640190fd5b612e1a8a7f00000000000000000000000000000000000000000000000000000000000000008b348c8c613ffc565b90945092506000612e6c7f00000000000000000000000000000000000000000000000000000000000000008c7f000000000000000000000000000000000000000000000000000000000000000061325b565b9050612e7a8b3383886136b4565b7f00000000000000000000000000000000000000000000000000000000000000006001600160a01b031663d0e30db0856040518263ffffffff1660e01b81526004016000604051808303818588803b158015612ed557600080fd5b505af1158015612ee9573d6000803e3d6000fd5b50505050507f00000000000000000000000000000000000000000000000000000000000000006001600160a01b031663a9059cbb82866040518363ffffffff1660e01b815260040180836001600160a01b0316815260200182815260200192505050602060405180830381600087803b158015612f6557600080fd5b505af1158015612f79573d6000803e3d6000fd5b505050506040513d6020811015612f8f57600080fd5b5051612f9757fe5b806001600160a01b0316636a627842886040518263ffffffff1660e01b815260040180826001600160a01b03168152602001915050602060405180830381600087803b158015612fe657600080fd5b505af1158015612ffa573d6000803e3d6000fd5b505050506040513d602081101561301057600080fd5b50519250348410156130285761302833853403613485565b505096509650969350505050565b60008084116130765760405162461bcd60e51b815260040180806020018281038252602b815260200180614519602b913960400191505060405180910390fd5b6000831180156130865750600082115b6130c15760405162461bcd60e51b81526004018080602001828103825260288152602001806144a86028913960400191505060405180910390fd5b60006130cf856103e56142b9565b905060006130dd82856142b9565b905060006130f7836130f1886103e86142b9565b9061431c565b905080828161310257fe5b04979650505050505050565b6060600282511015613167576040805162461bcd60e51b815260206004820152601e60248201527f556e697377617056324c6962726172793a20494e56414c49445f504154480000604482015290519081900360640190fd5b815167ffffffffffffffff8111801561317f57600080fd5b506040519080825280602002602001820160405280156131a9578160200160208202803683370190505b50905082816001835103815181106131bd57fe5b60209081029190910101528151600019015b80156132535760008061320c878660018603815181106131eb57fe5b60200260200101518786815181106131ff57fe5b602002602001015161436b565b9150915061322e84848151811061321f57fe5b60200260200101518383613da0565b84600185038151811061323d57fe5b60209081029190910101525050600019016131cf565b509392505050565b600080600061326a8585613f1e565b604080516bffffffffffffffffffffffff19606094851b811660208084019190915293851b81166034830152825160288184030181526048830184528051908501206001600160f81b031960688401529a90941b9093166069840152607d8301989098527fc546f5677667cb8ac71cfb13c3ccf37d1f297de1379017192159e7828db59505609d808401919091528851808403909101815260bd909201909752805196019590952095945050505050565b604080516001600160a01b038481166024830152604480830185905283518084039091018152606490920183526020820180516001600160e01b031663a9059cbb60e01b178152925182516000946060949389169392918291908083835b602083106133985780518252601f199092019160209182019101613379565b6001836020036101000a0380198251168184511680821785525050505050509050019150506000604051808303816000865af19150503d80600081146133fa576040519150601f19603f3d011682016040523d82523d6000602084013e6133ff565b606091505b509150915081801561342d57508051158061342d575080806020019051602081101561342a57600080fd5b50515b61347e576040805162461bcd60e51b815260206004820152601f60248201527f5472616e7366657248656c7065723a205452414e534645525f4641494c454400604482015290519081900360640190fd5b5050505050565b604080516000808252602082019092526001600160a01b0384169083906040518082805190602001908083835b602083106134d15780518252601f1990920191602091820191016134b2565b6001836020036101000a03801982511681845116808217855250505050505090500191505060006040518083038185875af1925050503d8060008114613533576040519150601f19603f3d011682016040523d82523d6000602084013e613538565b606091505b50509050806135785760405162461bcd60e51b81526004018080602001828103825260248152602001806144846024913960400191505060405180910390fd5b505050565b60606002825110156135d6576040805162461bcd60e51b815260206004820152601e60248201527f556e697377617056324c6962726172793a20494e56414c49445f504154480000604482015290519081900360640190fd5b815167ffffffffffffffff811180156135ee57600080fd5b50604051908082528060200260200182016040528015613618578160200160208202803683370190505b509050828160008151811061362957fe5b60200260200101818152505060005b60018351038110156132535760008061366e8786858151811061365757fe5b60200260200101518786600101815181106131ff57fe5b9150915061369084848151811061368157fe5b60200260200101518383613036565b84846001018151811061369f57fe5b60209081029190910101525050600101613638565b604080516001600160a01b0385811660248301528481166044830152606480830185905283518084039091018152608490920183526020820180516001600160e01b03166323b872dd60e01b17815292518251600094606094938a169392918291908083835b602083106137395780518252601f19909201916020918201910161371a565b6001836020036101000a0380198251168184511680821785525050505050509050019150506000604051808303816000865af19150503d806000811461379b576040519150601f19603f3d011682016040523d82523d6000602084013e6137a0565b606091505b50915091508180156137ce5750805115806137ce57508080602001905160208110156137cb57600080fd5b50515b6138095760405162461bcd60e51b81526004018080602001828103825260248152602001806144f56024913960400191505060405180910390fd5b505050505050565b60005b6001835103811015613a485760008084838151811061382f57fe5b602002602001015185846001018151811061384657fe5b602002602001015191509150600061385e8383613f1e565b509050600087856001018151811061387257fe5b60200260200101519050600080836001600160a01b0316866001600160a01b0316146138a0578260006138a4565b6000835b91509150600060028a510388106138bb57886138fc565b6138fc7f0000000000000000000000000000000000000000000000000000000000000000878c8b600201815181106138ef57fe5b602002602001015161325b565b90506139297f0000000000000000000000000000000000000000000000000000000000000000888861325b565b6001600160a01b031663022c0d9f84848460006040519080825280601f01601f191660200182016040528015613966576020820181803683370190505b506040518563ffffffff1660e01b815260040180858152602001848152602001836001600160a01b0316815260200180602001828103825283818151815260200191508051906020019080838360005b838110156139ce5781810151838201526020016139b6565b50505050905090810190601f1680156139fb5780820380516001836020036101000a031916815260200191505b5095505050505050600060405180830381600087803b158015613a1d57600080fd5b505af1158015613a31573d6000803e3d6000fd5b505060019099019850613814975050505050505050565b50505050565b60005b600183510381101561357857600080848381518110613a6c57fe5b6020026020010151858460010181518110613a8357fe5b6020026020010151915091506000613a9b8383613f1e565b5090506000613acb7f0000000000000000000000000000000000000000000000000000000000000000858561325b565b9050600080600080846001600160a01b0316630902f1ac6040518163ffffffff1660e01b815260040160606040518083038186803b158015613b0c57600080fd5b505afa158015613b20573d6000803e3d6000fd5b505050506040513d6060811015613b3657600080fd5b5080516020909101516001600160701b0391821693501690506000806001600160a01b038a811690891614613b6c578284613b6f565b83835b91509150613bc4828b6001600160a01b03166370a082318a6040518263ffffffff1660e01b815260040180826001600160a01b0316815260200191505060206040518083038186803b1580156113fc57600080fd5b9550613bd1868383613036565b945050505050600080856001600160a01b0316886001600160a01b031614613bfb57826000613bff565b6000835b91509150600060028c51038a10613c16578a613c4a565b613c4a7f0000000000000000000000000000000000000000000000000000000000000000898e8d600201815181106138ef57fe5b604080516000808252602082019283905263022c0d9f60e01b835260248201878152604483018790526001600160a01b038086166064850152608060848501908152845160a48601819052969750908c169563022c0d9f958a958a958a9591949193919260c486019290918190849084905b83811015613cd4578181015183820152602001613cbc565b50505050905090810190601f168015613d015780820380516001836020036101000a031916815260200191505b5095505050505050600060405180830381600087803b158015613d2357600080fd5b505af1158015613d37573d6000803e3d6000fd5b50506001909b019a50613a519950505050505050505050565b80820382811115610cdc576040805162461bcd60e51b815260206004820152601560248201527464732d6d6174682d7375622d756e646572666c6f7760581b604482015290519081900360640190fd5b6000808411613de05760405162461bcd60e51b815260040180806020018281038252602c815260200180614433602c913960400191505060405180910390fd5b600083118015613df05750600082115b613e2b5760405162461bcd60e51b81526004018080602001828103825260288152602001806144a86028913960400191505060405180910390fd5b6000613e436103e8613e3d86886142b9565b906142b9565b90506000613e576103e5613e3d8689613d50565b9050613e6e6001828481613e6757fe5b049061431c565b9695505050505050565b6000808411613eb85760405162461bcd60e51b81526004018080602001828103825260258152602001806144d06025913960400191505060405180910390fd5b600083118015613ec85750600082115b613f035760405162461bcd60e51b81526004018080602001828103825260288152602001806144a86028913960400191505060405180910390fd5b82613f0e85846142b9565b81613f1557fe5b04949350505050565b600080826001600160a01b0316846001600160a01b03161415613f725760405162461bcd60e51b815260040180806020018281038252602581526020018061445f6025913960400191505060405180910390fd5b826001600160a01b0316846001600160a01b031610613f92578284613f95565b83835b90925090506001600160a01b038216613ff5576040805162461bcd60e51b815260206004820152601e60248201527f556e697377617056324c6962726172793a205a45524f5f414444524553530000604482015290519081900360640190fd5b9250929050565b60008060006001600160a01b03167f00000000000000000000000000000000000000000000000000000000000000006001600160a01b031663e6a439058a8a6040518363ffffffff1660e01b815260040180836001600160a01b03168152602001826001600160a01b031681526020019250505060206040518083038186803b15801561408857600080fd5b505afa15801561409c573d6000803e3d6000fd5b505050506040513d60208110156140b257600080fd5b50516001600160a01b03161415614170577f00000000000000000000000000000000000000000000000000000000000000006001600160a01b031663c9c6539689896040518363ffffffff1660e01b815260040180836001600160a01b03168152602001826001600160a01b0316815260200192505050602060405180830381600087803b15801561414357600080fd5b505af1158015614157573d6000803e3d6000fd5b505050506040513d602081101561416d57600080fd5b50505b60008061419e7f00000000000000000000000000000000000000000000000000000000000000008b8b61436b565b915091508160001480156141b0575080155b156141c0578793508692506142ac565b60006141cd898484613e78565b9050878111614236578581101561422b576040805162461bcd60e51b815260206004820152601b60248201527f4f4156415820494e53554646494349454e545f425f414d4f554e540000000000604482015290519081900360640190fd5b8894509250826142aa565b6000614243898486613e78565b90508981111561424f57fe5b878110156142a4576040805162461bcd60e51b815260206004820152601b60248201527f4f4156415820494e53554646494349454e545f415f414d4f554e540000000000604482015290519081900360640190fd5b94508793505b505b5050965096945050505050565b60008115806142d4575050808202828282816142d157fe5b04145b610cdc576040805162461bcd60e51b815260206004820152601460248201527364732d6d6174682d6d756c2d6f766572666c6f7760601b604482015290519081900360640190fd5b80820182811015610cdc576040805162461bcd60e51b815260206004820152601460248201527364732d6d6174682d6164642d6f766572666c6f7760601b604482015290519081900360640190fd5b600080600061437a8585613f1e565b50905060008061438b88888861325b565b6001600160a01b0316630902f1ac6040518163ffffffff1660e01b815260040160606040518083038186803b1580156143c357600080fd5b505afa1580156143d7573d6000803e3d6000fd5b505050506040513d60608110156143ed57600080fd5b5080516020909101516001600160701b0391821693501690506001600160a01b0387811690841614614420578082614423565b81815b9099909850965050505050505056fe556e697377617056324c6962726172793a20494e53554646494349454e545f4f55545055545f414d4f554e54556e697377617056324c6962726172793a204944454e544943414c5f4144445245535345535472616e7366657248656c7065723a20415641585f5452414e534645525f4641494c4544556e697377617056324c6962726172793a20494e53554646494349454e545f4c4951554944495459556e697377617056324c6962726172793a20494e53554646494349454e545f414d4f554e545472616e7366657248656c7065723a205452414e534645525f46524f4d5f4641494c4544556e697377617056324c6962726172793a20494e53554646494349454e545f494e5055545f414d4f554e544f4156415820494e53554646494349454e545f4f55545055545f414d4f554e54a2646970667358221220f6068ba4a8c8b554727d234b31929a4a224c911473192bf4feac077c592a676264736f6c634300060c0033",
  "immutableReferences": {
    "8759": [
      {
        "length": 32,
        "start": 3251
      },
      {
        "length": 32,
        "start": 3308
      },
      {
        "length": 32,
        "start": 3558
      },
      {
        "length": 32,
        "start": 4185
      },
      {
        "length": 32,
        "start": 4404
      },
      {
        "length": 32,
        "start": 4706
      },
      {
        "length": 32,
        "start": 5472
      },
      {
        "length": 32,
        "start": 7235
      },
      {
        "length": 32,
        "start": 7521
      },
      {
        "length": 32,
        "start": 7945
      },
      {
        "length": 32,
        "start": 8329
      },
      {
        "length": 32,
        "start": 8655
      },
      {
        "length": 32,
        "start": 9145
      },
      {
        "length": 32,
        "start": 9514
      },
      {
        "length": 32,
        "start": 9855
      },
      {
        "length": 32,
        "start": 10403
      },
      {
        "length": 32,
        "start": 10831
      },
      {
        "length": 32,
        "start": 11334
      },
      {
        "length": 32,
        "start": 11473
      },
      {
        "length": 32,
        "start": 11814
      },
      {
        "length": 32,
        "start": 14528
      },
      {
        "length": 32,
        "start": 14595
      },
      {
        "length": 32,
        "start": 15013
      },
      {
        "length": 32,
        "start": 15387
      },
      {
        "length": 32,
        "start": 16396
      },
      {
        "length": 32,
        "start": 16581
      },
      {
        "length": 32,
        "start": 16760
      }
    ],
    "8762": [
      {
        "length": 32,
        "start": 351
      },
      {
        "length": 32,
        "start": 3592
      },
      {
        "length": 32,
        "start": 3903
      },
      {
        "length": 32,
        "start": 3962
      },
      {
        "length": 32,
        "start": 5323
      },
      {
        "length": 32,
        "start": 5734
      },
      {
        "length": 32,
        "start": 5916
      },
      {
        "length": 32,
        "start": 6028
      },
      {
        "length": 32,
        "start": 6208
      },
      {
        "length": 32,
        "start": 6422
      },
      {
        "length": 32,
        "start": 6648
      },
      {
        "length": 32,
        "start": 6870
      },
      {
        "length": 32,
        "start": 7086
      },
      {
        "length": 32,
        "start": 7791
      },
      {
        "length": 32,
        "start": 8143
      },
      {
        "length": 32,
        "start": 8279
      },
      {
        "length": 32,
        "start": 8689
      },
      {
        "length": 32,
        "start": 8991
      },
      {
        "length": 32,
        "start": 9328
      },
      {
        "length": 32,
        "start": 9464
      },
      {
        "length": 32,
        "start": 10509
      },
      {
        "length": 32,
        "start": 10665
      },
      {
        "length": 32,
        "start": 10781
      },
      {
        "length": 32,
        "start": 11762
      },
      {
        "length": 32,
        "start": 11848
      },
      {
        "length": 32,
        "start": 11900
      },
      {
        "length": 32,
        "start": 12016
      }
    ]
  },
  "source": "// SPDX-License-Identifier: MIT\r\n\r\npragma solidity =0.6.12;\r\n\r\n\r\nimport './libraries/UniswapV2Library.sol';\r\nimport './libraries/SafeMath.sol';\r\nimport './libraries/TransferHelper.sol';\r\nimport './interfaces/IUniswapV2Router02.sol';\r\nimport './interfaces/IUniswapV2Factory.sol';\r\nimport './interfaces/IERC20.sol';\r\nimport './interfaces/IWAVAX.sol';\r\n\r\ncontract UniswapV2Router02 is IUniswapV2Router02 {\r\n    using SafeMathUniswap for uint;\r\n\r\n    address public immutable override factory;\r\n    address public immutable override WAVAX;\r\n\r\n    modifier ensure(uint deadline) {\r\n        require(deadline >= block.timestamp, 'OAVAX EXPIRED');\r\n        _;\r\n    }\r\n\r\n    constructor(address _factory, address _WAVAX) public {\r\n        factory = _factory;\r\n        WAVAX = _WAVAX;\r\n    }\r\n\r\n    receive() external payable {\r\n        assert(msg.sender == WAVAX); // only accept AVAX via fallback from the WAVAX contract\r\n    }\r\n\r\n    // **** ADD LIQUIDITY ****\r\n    function _addLiquidity(\r\n        address tokenA,\r\n        address tokenB,\r\n        uint amountADesired,\r\n        uint amountBDesired,\r\n        uint amountAMin,\r\n        uint amountBMin\r\n    ) internal virtual returns (uint amountA, uint amountB) {\r\n        // create the pair if it doesn't exist yet\r\n        if (IUniswapV2Factory(factory).getPair(tokenA, tokenB) == address(0)) {\r\n            IUniswapV2Factory(factory).createPair(tokenA, tokenB);\r\n        }\r\n        (uint reserveA, uint reserveB) = UniswapV2Library.getReserves(factory, tokenA, tokenB);\r\n        if (reserveA == 0 && reserveB == 0) {\r\n            (amountA, amountB) = (amountADesired, amountBDesired);\r\n        } else {\r\n            uint amountBOptimal = UniswapV2Library.quote(amountADesired, reserveA, reserveB);\r\n            if (amountBOptimal <= amountBDesired) {\r\n                require(amountBOptimal >= amountBMin, 'OAVAX INSUFFICIENT_B_AMOUNT');\r\n                (amountA, amountB) = (amountADesired, amountBOptimal);\r\n            } else {\r\n                uint amountAOptimal = UniswapV2Library.quote(amountBDesired, reserveB, reserveA);\r\n                assert(amountAOptimal <= amountADesired);\r\n                require(amountAOptimal >= amountAMin, 'OAVAX INSUFFICIENT_A_AMOUNT');\r\n                (amountA, amountB) = (amountAOptimal, amountBDesired);\r\n            }\r\n        }\r\n    }\r\n    function addLiquidity(\r\n        address tokenA,\r\n        address tokenB,\r\n        uint amountADesired,\r\n        uint amountBDesired,\r\n        uint amountAMin,\r\n        uint amountBMin,\r\n        address to,\r\n        uint deadline\r\n    ) external virtual override ensure(deadline) returns (uint amountA, uint amountB, uint liquidity) {\r\n        (amountA, amountB) = _addLiquidity(tokenA, tokenB, amountADesired, amountBDesired, amountAMin, amountBMin);\r\n        address pair = UniswapV2Library.pairFor(factory, tokenA, tokenB);\r\n        TransferHelper.safeTransferFrom(tokenA, msg.sender, pair, amountA);\r\n        TransferHelper.safeTransferFrom(tokenB, msg.sender, pair, amountB);\r\n        liquidity = IUniswapV2Pair(pair).mint(to);\r\n    }\r\n    function addLiquidityAVAX(\r\n        address token,\r\n        uint amountTokenDesired,\r\n        uint amountTokenMin,\r\n        uint amountAVAXMin,\r\n        address to,\r\n        uint deadline\r\n    ) external virtual override payable ensure(deadline) returns (uint amountToken, uint amountAVAX, uint liquidity) {\r\n        (amountToken, amountAVAX) = _addLiquidity(\r\n            token,\r\n            WAVAX,\r\n            amountTokenDesired,\r\n            msg.value,\r\n            amountTokenMin,\r\n            amountAVAXMin\r\n        );\r\n        address pair = UniswapV2Library.pairFor(factory, token, WAVAX);\r\n        TransferHelper.safeTransferFrom(token, msg.sender, pair, amountToken);\r\n        IWAVAX(WAVAX).deposit{value: amountAVAX}();\r\n        assert(IWAVAX(WAVAX).transfer(pair, amountAVAX));\r\n        liquidity = IUniswapV2Pair(pair).mint(to);\r\n        // refund dust avax, if any\r\n        if (msg.value > amountAVAX) TransferHelper.safeTransferAVAX(msg.sender, msg.value - amountAVAX);\r\n    }\r\n\r\n    // **** REMOVE LIQUIDITY ****\r\n    function removeLiquidity(\r\n        address tokenA,\r\n        address tokenB,\r\n        uint liquidity,\r\n        uint amountAMin,\r\n        uint amountBMin,\r\n        address to,\r\n        uint deadline\r\n    ) public virtual override ensure(deadline) returns (uint amountA, uint amountB) {\r\n        address pair = UniswapV2Library.pairFor(factory, tokenA, tokenB);\r\n        IUniswapV2Pair(pair).transferFrom(msg.sender, pair, liquidity); // send liquidity to pair\r\n        (uint amount0, uint amount1) = IUniswapV2Pair(pair).burn(to);\r\n        (address token0,) = UniswapV2Library.sortTokens(tokenA, tokenB);\r\n        (amountA, amountB) = tokenA == token0 ? (amount0, amount1) : (amount1, amount0);\r\n        require(amountA >= amountAMin, 'OAVAX INSUFFICIENT_A_AMOUNT');\r\n        require(amountB >= amountBMin, 'OAVAX INSUFFICIENT_B_AMOUNT');\r\n    }\r\n    function removeLiquidityAVAX(\r\n        address token,\r\n        uint liquidity,\r\n        uint amountTokenMin,\r\n        uint amountAVAXMin,\r\n        address to,\r\n        uint deadline\r\n    ) public virtual override ensure(deadline) returns (uint amountToken, uint amountAVAX) {\r\n        (amountToken, amountAVAX) = removeLiquidity(\r\n            token,\r\n            WAVAX,\r\n            liquidity,\r\n            amountTokenMin,\r\n            amountAVAXMin,\r\n            address(this),\r\n            deadline\r\n        );\r\n        TransferHelper.safeTransfer(token, to, amountToken);\r\n        IWAVAX(WAVAX).withdraw(amountAVAX);\r\n        TransferHelper.safeTransferAVAX(to, amountAVAX);\r\n    }\r\n    function removeLiquidityWithPermit(\r\n        address tokenA,\r\n        address tokenB,\r\n        uint liquidity,\r\n        uint amountAMin,\r\n        uint amountBMin,\r\n        address to,\r\n        uint deadline,\r\n        bool approveMax, uint8 v, bytes32 r, bytes32 s\r\n    ) external virtual override returns (uint amountA, uint amountB) {\r\n        address pair = UniswapV2Library.pairFor(factory, tokenA, tokenB);\r\n        uint value = approveMax ? uint(-1) : liquidity;\r\n        IUniswapV2Pair(pair).permit(msg.sender, address(this), value, deadline, v, r, s);\r\n        (amountA, amountB) = removeLiquidity(tokenA, tokenB, liquidity, amountAMin, amountBMin, to, deadline);\r\n    }\r\n    function removeLiquidityAVAXWithPermit(\r\n        address token,\r\n        uint liquidity,\r\n        uint amountTokenMin,\r\n        uint amountAVAXMin,\r\n        address to,\r\n        uint deadline,\r\n        bool approveMax, uint8 v, bytes32 r, bytes32 s\r\n    ) external virtual override returns (uint amountToken, uint amountAVAX) {\r\n        address pair = UniswapV2Library.pairFor(factory, token, WAVAX);\r\n        uint value = approveMax ? uint(-1) : liquidity;\r\n        IUniswapV2Pair(pair).permit(msg.sender, address(this), value, deadline, v, r, s);\r\n        (amountToken, amountAVAX) = removeLiquidityAVAX(token, liquidity, amountTokenMin, amountAVAXMin, to, deadline);\r\n    }\r\n\r\n    // **** REMOVE LIQUIDITY (supporting fee-on-transfer tokens) ****\r\n    function removeLiquidityAVAXSupportingFeeOnTransferTokens(\r\n        address token,\r\n        uint liquidity,\r\n        uint amountTokenMin,\r\n        uint amountAVAXMin,\r\n        address to,\r\n        uint deadline\r\n    ) public virtual override ensure(deadline) returns (uint amountAVAX) {\r\n        (, amountAVAX) = removeLiquidity(\r\n            token,\r\n            WAVAX,\r\n            liquidity,\r\n            amountTokenMin,\r\n            amountAVAXMin,\r\n            address(this),\r\n            deadline\r\n        );\r\n        TransferHelper.safeTransfer(token, to, IERC20Uniswap(token).balanceOf(address(this)));\r\n        IWAVAX(WAVAX).withdraw(amountAVAX);\r\n        TransferHelper.safeTransferAVAX(to, amountAVAX);\r\n    }\r\n    function removeLiquidityAVAXWithPermitSupportingFeeOnTransferTokens(\r\n        address token,\r\n        uint liquidity,\r\n        uint amountTokenMin,\r\n        uint amountAVAXMin,\r\n        address to,\r\n        uint deadline,\r\n        bool approveMax, uint8 v, bytes32 r, bytes32 s\r\n    ) external virtual override returns (uint amountAVAX) {\r\n        address pair = UniswapV2Library.pairFor(factory, token, WAVAX);\r\n        uint value = approveMax ? uint(-1) : liquidity;\r\n        IUniswapV2Pair(pair).permit(msg.sender, address(this), value, deadline, v, r, s);\r\n        amountAVAX = removeLiquidityAVAXSupportingFeeOnTransferTokens(\r\n            token, liquidity, amountTokenMin, amountAVAXMin, to, deadline\r\n        );\r\n    }\r\n\r\n    // **** SWAP ****\r\n    // requires the initial amount to have already been sent to the first pair\r\n    function _swap(uint[] memory amounts, address[] memory path, address _to) internal virtual {\r\n        for (uint i; i < path.length - 1; i++) {\r\n            (address input, address output) = (path[i], path[i + 1]);\r\n            (address token0,) = UniswapV2Library.sortTokens(input, output);\r\n            uint amountOut = amounts[i + 1];\r\n            (uint amount0Out, uint amount1Out) = input == token0 ? (uint(0), amountOut) : (amountOut, uint(0));\r\n            address to = i < path.length - 2 ? UniswapV2Library.pairFor(factory, output, path[i + 2]) : _to;\r\n            IUniswapV2Pair(UniswapV2Library.pairFor(factory, input, output)).swap(\r\n                amount0Out, amount1Out, to, new bytes(0)\r\n            );\r\n        }\r\n    }\r\n    function swapExactTokensForTokens(\r\n        uint amountIn,\r\n        uint amountOutMin,\r\n        address[] calldata path,\r\n        address to,\r\n        uint deadline\r\n    ) external virtual override ensure(deadline) returns (uint[] memory amounts) {\r\n        amounts = UniswapV2Library.getAmountsOut(factory, amountIn, path);\r\n        require(amounts[amounts.length - 1] >= amountOutMin, 'OAVAX INSUFFICIENT_OUTPUT_AMOUNT');\r\n        TransferHelper.safeTransferFrom(\r\n            path[0], msg.sender, UniswapV2Library.pairFor(factory, path[0], path[1]), amounts[0]\r\n        );\r\n        _swap(amounts, path, to);\r\n    }\r\n    function swapTokensForExactTokens(\r\n        uint amountOut,\r\n        uint amountInMax,\r\n        address[] calldata path,\r\n        address to,\r\n        uint deadline\r\n    ) external virtual override ensure(deadline) returns (uint[] memory amounts) {\r\n        amounts = UniswapV2Library.getAmountsIn(factory, amountOut, path);\r\n        require(amounts[0] <= amountInMax, 'OAVAX EXCESSIVE_INPUT_AMOUNT');\r\n        TransferHelper.safeTransferFrom(\r\n            path[0], msg.sender, UniswapV2Library.pairFor(factory, path[0], path[1]), amounts[0]\r\n        );\r\n        _swap(amounts, path, to);\r\n    }\r\n    function swapExactAVAXForTokens(uint amountOutMin, address[] calldata path, address to, uint deadline)\r\n        external\r\n        virtual\r\n        override\r\n        payable\r\n        ensure(deadline)\r\n        returns (uint[] memory amounts)\r\n    {\r\n        require(path[0] == WAVAX, 'OAVAX INVALID_PATH');\r\n        amounts = UniswapV2Library.getAmountsOut(factory, msg.value, path);\r\n        require(amounts[amounts.length - 1] >= amountOutMin, 'OAVAX INSUFFICIENT_OUTPUT_AMOUNT');\r\n        IWAVAX(WAVAX).deposit{value: amounts[0]}();\r\n        assert(IWAVAX(WAVAX).transfer(UniswapV2Library.pairFor(factory, path[0], path[1]), amounts[0]));\r\n        _swap(amounts, path, to);\r\n    }\r\n    function swapTokensForExactAVAX(uint amountOut, uint amountInMax, address[] calldata path, address to, uint deadline)\r\n        external\r\n        virtual\r\n        override\r\n        ensure(deadline)\r\n        returns (uint[] memory amounts)\r\n    {\r\n        require(path[path.length - 1] == WAVAX, 'OAVAX INVALID_PATH');\r\n        amounts = UniswapV2Library.getAmountsIn(factory, amountOut, path);\r\n        require(amounts[0] <= amountInMax, 'OAVAX EXCESSIVE_INPUT_AMOUNT');\r\n        TransferHelper.safeTransferFrom(\r\n            path[0], msg.sender, UniswapV2Library.pairFor(factory, path[0], path[1]), amounts[0]\r\n        );\r\n        _swap(amounts, path, address(this));\r\n        IWAVAX(WAVAX).withdraw(amounts[amounts.length - 1]);\r\n        TransferHelper.safeTransferAVAX(to, amounts[amounts.length - 1]);\r\n    }\r\n    function swapExactTokensForAVAX(uint amountIn, uint amountOutMin, address[] calldata path, address to, uint deadline)\r\n        external\r\n        virtual\r\n        override\r\n        ensure(deadline)\r\n        returns (uint[] memory amounts)\r\n    {\r\n        require(path[path.length - 1] == WAVAX, 'OAVAX INVALID_PATH');\r\n        amounts = UniswapV2Library.getAmountsOut(factory, amountIn, path);\r\n        require(amounts[amounts.length - 1] >= amountOutMin, 'OAVAX INSUFFICIENT_OUTPUT_AMOUNT');\r\n        TransferHelper.safeTransferFrom(\r\n            path[0], msg.sender, UniswapV2Library.pairFor(factory, path[0], path[1]), amounts[0]\r\n        );\r\n        _swap(amounts, path, address(this));\r\n        IWAVAX(WAVAX).withdraw(amounts[amounts.length - 1]);\r\n        TransferHelper.safeTransferAVAX(to, amounts[amounts.length - 1]);\r\n    }\r\n    function swapAVAXForExactTokens(uint amountOut, address[] calldata path, address to, uint deadline)\r\n        external\r\n        virtual\r\n        override\r\n        payable\r\n        ensure(deadline)\r\n        returns (uint[] memory amounts)\r\n    {\r\n        require(path[0] == WAVAX, 'OAVAX INVALID_PATH');\r\n        amounts = UniswapV2Library.getAmountsIn(factory, amountOut, path);\r\n        require(amounts[0] <= msg.value, 'OAVAX EXCESSIVE_INPUT_AMOUNT');\r\n        IWAVAX(WAVAX).deposit{value: amounts[0]}();\r\n        assert(IWAVAX(WAVAX).transfer(UniswapV2Library.pairFor(factory, path[0], path[1]), amounts[0]));\r\n        _swap(amounts, path, to);\r\n        // refund dust avax, if any\r\n        if (msg.value > amounts[0]) TransferHelper.safeTransferAVAX(msg.sender, msg.value - amounts[0]);\r\n    }\r\n\r\n    // **** SWAP (supporting fee-on-transfer tokens) ****\r\n    // requires the initial amount to have already been sent to the first pair\r\n    function _swapSupportingFeeOnTransferTokens(address[] memory path, address _to) internal virtual {\r\n        for (uint i; i < path.length - 1; i++) {\r\n            (address input, address output) = (path[i], path[i + 1]);\r\n            (address token0,) = UniswapV2Library.sortTokens(input, output);\r\n            IUniswapV2Pair pair = IUniswapV2Pair(UniswapV2Library.pairFor(factory, input, output));\r\n            uint amountInput;\r\n            uint amountOutput;\r\n            { // scope to avoid stack too deep errors\r\n            (uint reserve0, uint reserve1,) = pair.getReserves();\r\n            (uint reserveInput, uint reserveOutput) = input == token0 ? (reserve0, reserve1) : (reserve1, reserve0);\r\n            amountInput = IERC20Uniswap(input).balanceOf(address(pair)).sub(reserveInput);\r\n            amountOutput = UniswapV2Library.getAmountOut(amountInput, reserveInput, reserveOutput);\r\n            }\r\n            (uint amount0Out, uint amount1Out) = input == token0 ? (uint(0), amountOutput) : (amountOutput, uint(0));\r\n            address to = i < path.length - 2 ? UniswapV2Library.pairFor(factory, output, path[i + 2]) : _to;\r\n            pair.swap(amount0Out, amount1Out, to, new bytes(0));\r\n        }\r\n    }\r\n    function swapExactTokensForTokensSupportingFeeOnTransferTokens(\r\n        uint amountIn,\r\n        uint amountOutMin,\r\n        address[] calldata path,\r\n        address to,\r\n        uint deadline\r\n    ) external virtual override ensure(deadline) {\r\n        TransferHelper.safeTransferFrom(\r\n            path[0], msg.sender, UniswapV2Library.pairFor(factory, path[0], path[1]), amountIn\r\n        );\r\n        uint balanceBefore = IERC20Uniswap(path[path.length - 1]).balanceOf(to);\r\n        _swapSupportingFeeOnTransferTokens(path, to);\r\n        require(\r\n            IERC20Uniswap(path[path.length - 1]).balanceOf(to).sub(balanceBefore) >= amountOutMin,\r\n            'OAVAX INSUFFICIENT_OUTPUT_AMOUNT'\r\n        );\r\n    }\r\n    function swapExactAVAXForTokensSupportingFeeOnTransferTokens(\r\n        uint amountOutMin,\r\n        address[] calldata path,\r\n        address to,\r\n        uint deadline\r\n    )\r\n        external\r\n        virtual\r\n        override\r\n        payable\r\n        ensure(deadline)\r\n    {\r\n        require(path[0] == WAVAX, 'OAVAX INVALID_PATH');\r\n        uint amountIn = msg.value;\r\n        IWAVAX(WAVAX).deposit{value: amountIn}();\r\n        assert(IWAVAX(WAVAX).transfer(UniswapV2Library.pairFor(factory, path[0], path[1]), amountIn));\r\n        uint balanceBefore = IERC20Uniswap(path[path.length - 1]).balanceOf(to);\r\n        _swapSupportingFeeOnTransferTokens(path, to);\r\n        require(\r\n            IERC20Uniswap(path[path.length - 1]).balanceOf(to).sub(balanceBefore) >= amountOutMin,\r\n            'OAVAX INSUFFICIENT_OUTPUT_AMOUNT'\r\n        );\r\n    }\r\n    function swapExactTokensForAVAXSupportingFeeOnTransferTokens(\r\n        uint amountIn,\r\n        uint amountOutMin,\r\n        address[] calldata path,\r\n        address to,\r\n        uint deadline\r\n    )\r\n        external\r\n        virtual\r\n        override\r\n        ensure(deadline)\r\n    {\r\n        require(path[path.length - 1] == WAVAX, 'OAVAX INVALID_PATH');\r\n        TransferHelper.safeTransferFrom(\r\n            path[0], msg.sender, UniswapV2Library.pairFor(factory, path[0], path[1]), amountIn\r\n        );\r\n        _swapSupportingFeeOnTransferTokens(path, address(this));\r\n        uint amountOut = IERC20Uniswap(WAVAX).balanceOf(address(this));\r\n        require(amountOut >= amountOutMin, 'OAVAX INSUFFICIENT_OUTPUT_AMOUNT');\r\n        IWAVAX(WAVAX).withdraw(amountOut);\r\n        TransferHelper.safeTransferAVAX(to, amountOut);\r\n    }\r\n\r\n    // **** LIBRARY FUNCTIONS ****\r\n    function quote(uint amountA, uint reserveA, uint reserveB) public pure virtual override returns (uint amountB) {\r\n        return UniswapV2Library.quote(amountA, reserveA, reserveB);\r\n    }\r\n\r\n    function getAmountOut(uint amountIn, uint reserveIn, uint reserveOut)\r\n        public\r\n        pure\r\n        virtual\r\n        override\r\n        returns (uint amountOut)\r\n    {\r\n        return UniswapV2Library.getAmountOut(amountIn, reserveIn, reserveOut);\r\n    }\r\n\r\n    function getAmountIn(uint amountOut, uint reserveIn, uint reserveOut)\r\n        public\r\n        pure\r\n        virtual\r\n        override\r\n        returns (uint amountIn)\r\n    {\r\n        return UniswapV2Library.getAmountIn(amountOut, reserveIn, reserveOut);\r\n    }\r\n\r\n    function getAmountsOut(uint amountIn, address[] memory path)\r\n        public\r\n        view\r\n        virtual\r\n        override\r\n        returns (uint[] memory amounts)\r\n    {\r\n        return UniswapV2Library.getAmountsOut(factory, amountIn, path);\r\n    }\r\n\r\n    function getAmountsIn(uint amountOut, address[] memory path)\r\n        public\r\n        view\r\n        virtual\r\n        override\r\n        returns (uint[] memory amounts)\r\n    {\r\n        return UniswapV2Library.getAmountsIn(factory, amountOut, path);\r\n    }\r\n}\r\n",
  "sourcePath": "/opt/1oavax/release/oavax-core/contracts/uniswapv2/UniswapV2Router02.sol",
  "compiler": {
    "name": "solc",
    "version": "0.6.12+commit.27d51765.Emscripten.clang"
  },
  "schemaVersion": "3.2.4",
  "updatedAt": "2022-01-22T05:57:26.651Z",
  "devdoc": {
    "kind": "dev",
    "methods": {},
    "version": 1
  },
  "userdoc": {
    "kind": "user",
    "methods": {},
    "version": 1
  }
}